{
  "_format": "hh-sol-artifact-1",
  "contractName": "QuestBoard",
  "sourceName": "contracts/QuestBoard.sol",
  "abi": [
    {
      "inputs": [
        {
          "internalType": "address",
          "name": "_userProfile",
          "type": "address"
        },
        {
          "internalType": "address",
          "name": "_rewardManager",
          "type": "address"
        },
        {
          "internalType": "address",
          "name": "platformFeeRecipient_",
          "type": "address"
        }
      ],
      "stateMutability": "nonpayable",
      "type": "constructor"
    },
    {
      "anonymous": false,
      "inputs": [
        {
          "indexed": true,
          "internalType": "uint256",
          "name": "questId",
          "type": "uint256"
        },
        {
          "indexed": true,
          "internalType": "address",
          "name": "participant",
          "type": "address"
        }
      ],
      "name": "ParticipantJoined",
      "type": "event"
    },
    {
      "anonymous": false,
      "inputs": [
        {
          "indexed": true,
          "internalType": "uint256",
          "name": "questId",
          "type": "uint256"
        },
        {
          "indexed": true,
          "internalType": "address",
          "name": "participant",
          "type": "address"
        }
      ],
      "name": "ParticipantLeft",
      "type": "event"
    },
    {
      "anonymous": false,
      "inputs": [
        {
          "indexed": false,
          "internalType": "address",
          "name": "account",
          "type": "address"
        }
      ],
      "name": "Paused",
      "type": "event"
    },
    {
      "anonymous": false,
      "inputs": [
        {
          "indexed": false,
          "internalType": "address",
          "name": "newRecipient",
          "type": "address"
        }
      ],
      "name": "PlatformFeeRecipientUpdated",
      "type": "event"
    },
    {
      "anonymous": false,
      "inputs": [
        {
          "indexed": false,
          "internalType": "uint256",
          "name": "newFeePercentage",
          "type": "uint256"
        }
      ],
      "name": "PlatformFeeUpdated",
      "type": "event"
    },
    {
      "anonymous": false,
      "inputs": [
        {
          "indexed": true,
          "internalType": "uint256",
          "name": "questId",
          "type": "uint256"
        },
        {
          "indexed": false,
          "internalType": "string",
          "name": "reason",
          "type": "string"
        }
      ],
      "name": "QuestCancelled",
      "type": "event"
    },
    {
      "anonymous": false,
      "inputs": [
        {
          "indexed": true,
          "internalType": "uint256",
          "name": "questId",
          "type": "uint256"
        },
        {
          "indexed": false,
          "internalType": "address[]",
          "name": "winners",
          "type": "address[]"
        }
      ],
      "name": "QuestCompleted",
      "type": "event"
    },
    {
      "anonymous": false,
      "inputs": [
        {
          "indexed": true,
          "internalType": "uint256",
          "name": "questId",
          "type": "uint256"
        },
        {
          "indexed": true,
          "internalType": "string",
          "name": "externalId",
          "type": "string"
        },
        {
          "indexed": true,
          "internalType": "address",
          "name": "creator",
          "type": "address"
        },
        {
          "indexed": false,
          "internalType": "string",
          "name": "title",
          "type": "string"
        },
        {
          "indexed": false,
          "internalType": "string",
          "name": "description",
          "type": "string"
        },
        {
          "indexed": false,
          "internalType": "string",
          "name": "metadataURI",
          "type": "string"
        },
        {
          "indexed": false,
          "internalType": "enum IQuestBoard.QuestType",
          "name": "questType",
          "type": "uint8"
        },
        {
          "indexed": false,
          "internalType": "uint256",
          "name": "bountyAmount",
          "type": "uint256"
        },
        {
          "indexed": false,
          "internalType": "address",
          "name": "bountyToken",
          "type": "address"
        },
        {
          "indexed": false,
          "internalType": "uint256",
          "name": "maxParticipants",
          "type": "uint256"
        },
        {
          "indexed": false,
          "internalType": "uint256",
          "name": "maxCollaborators",
          "type": "uint256"
        },
        {
          "indexed": false,
          "internalType": "uint256",
          "name": "submissionDeadline",
          "type": "uint256"
        },
        {
          "indexed": false,
          "internalType": "uint256",
          "name": "reviewDeadline",
          "type": "uint256"
        },
        {
          "indexed": false,
          "internalType": "bool",
          "name": "requiresApproval",
          "type": "bool"
        },
        {
          "indexed": false,
          "internalType": "string[]",
          "name": "tags",
          "type": "string[]"
        },
        {
          "components": [
            {
              "internalType": "string[]",
              "name": "skillsRequired",
              "type": "string[]"
            },
            {
              "internalType": "uint256",
              "name": "minReputation",
              "type": "uint256"
            },
            {
              "internalType": "bool",
              "name": "kycRequired",
              "type": "bool"
            },
            {
              "internalType": "string[]",
              "name": "allowedFileTypes",
              "type": "string[]"
            },
            {
              "internalType": "uint256",
              "name": "maxFileSize",
              "type": "uint256"
            }
          ],
          "indexed": false,
          "internalType": "struct IQuestBoard.QuestRequirements",
          "name": "requirements",
          "type": "tuple"
        }
      ],
      "name": "QuestCreated",
      "type": "event"
    },
    {
      "anonymous": false,
      "inputs": [
        {
          "indexed": true,
          "internalType": "uint256",
          "name": "questId",
          "type": "uint256"
        },
        {
          "indexed": false,
          "internalType": "enum IQuestBoard.QuestStatus",
          "name": "status",
          "type": "uint8"
        }
      ],
      "name": "QuestUpdated",
      "type": "event"
    },
    {
      "anonymous": false,
      "inputs": [
        {
          "indexed": true,
          "internalType": "bytes32",
          "name": "role",
          "type": "bytes32"
        },
        {
          "indexed": true,
          "internalType": "bytes32",
          "name": "previousAdminRole",
          "type": "bytes32"
        },
        {
          "indexed": true,
          "internalType": "bytes32",
          "name": "newAdminRole",
          "type": "bytes32"
        }
      ],
      "name": "RoleAdminChanged",
      "type": "event"
    },
    {
      "anonymous": false,
      "inputs": [
        {
          "indexed": true,
          "internalType": "bytes32",
          "name": "role",
          "type": "bytes32"
        },
        {
          "indexed": true,
          "internalType": "address",
          "name": "account",
          "type": "address"
        },
        {
          "indexed": true,
          "internalType": "address",
          "name": "sender",
          "type": "address"
        }
      ],
      "name": "RoleGranted",
      "type": "event"
    },
    {
      "anonymous": false,
      "inputs": [
        {
          "indexed": true,
          "internalType": "bytes32",
          "name": "role",
          "type": "bytes32"
        },
        {
          "indexed": true,
          "internalType": "address",
          "name": "account",
          "type": "address"
        },
        {
          "indexed": true,
          "internalType": "address",
          "name": "sender",
          "type": "address"
        }
      ],
      "name": "RoleRevoked",
      "type": "event"
    },
    {
      "anonymous": false,
      "inputs": [
        {
          "indexed": false,
          "internalType": "address",
          "name": "account",
          "type": "address"
        }
      ],
      "name": "Unpaused",
      "type": "event"
    },
    {
      "inputs": [],
      "name": "ADMIN_ROLE",
      "outputs": [
        {
          "internalType": "bytes32",
          "name": "",
          "type": "bytes32"
        }
      ],
      "stateMutability": "view",
      "type": "function"
    },
    {
      "inputs": [],
      "name": "DEFAULT_ADMIN_ROLE",
      "outputs": [
        {
          "internalType": "bytes32",
          "name": "",
          "type": "bytes32"
        }
      ],
      "stateMutability": "view",
      "type": "function"
    },
    {
      "inputs": [],
      "name": "MODERATOR_ROLE",
      "outputs": [
        {
          "internalType": "bytes32",
          "name": "",
          "type": "bytes32"
        }
      ],
      "stateMutability": "view",
      "type": "function"
    },
    {
      "inputs": [
        {
          "internalType": "uint256",
          "name": "questId",
          "type": "uint256"
        },
        {
          "internalType": "address",
          "name": "participant",
          "type": "address"
        }
      ],
      "name": "approveParticipant",
      "outputs": [],
      "stateMutability": "nonpayable",
      "type": "function"
    },
    {
      "inputs": [
        {
          "internalType": "uint256",
          "name": "questId",
          "type": "uint256"
        },
        {
          "internalType": "string",
          "name": "reason",
          "type": "string"
        }
      ],
      "name": "cancelQuest",
      "outputs": [],
      "stateMutability": "nonpayable",
      "type": "function"
    },
    {
      "inputs": [
        {
          "internalType": "string",
          "name": "externalId",
          "type": "string"
        },
        {
          "internalType": "string",
          "name": "title",
          "type": "string"
        },
        {
          "internalType": "string",
          "name": "description",
          "type": "string"
        },
        {
          "internalType": "string",
          "name": "metadataURI",
          "type": "string"
        },
        {
          "internalType": "enum IQuestBoard.QuestType",
          "name": "questType",
          "type": "uint8"
        },
        {
          "internalType": "uint256",
          "name": "bountyAmount",
          "type": "uint256"
        },
        {
          "internalType": "address",
          "name": "bountyToken",
          "type": "address"
        },
        {
          "internalType": "uint256",
          "name": "maxParticipants",
          "type": "uint256"
        },
        {
          "internalType": "uint256",
          "name": "maxCollaborators",
          "type": "uint256"
        },
        {
          "internalType": "uint256",
          "name": "submissionDeadline",
          "type": "uint256"
        },
        {
          "internalType": "uint256",
          "name": "reviewDeadline",
          "type": "uint256"
        },
        {
          "internalType": "bool",
          "name": "requiresApproval",
          "type": "bool"
        },
        {
          "internalType": "string[]",
          "name": "tags",
          "type": "string[]"
        },
        {
          "components": [
            {
              "internalType": "string[]",
              "name": "skillsRequired",
              "type": "string[]"
            },
            {
              "internalType": "uint256",
              "name": "minReputation",
              "type": "uint256"
            },
            {
              "internalType": "bool",
              "name": "kycRequired",
              "type": "bool"
            },
            {
              "internalType": "string[]",
              "name": "allowedFileTypes",
              "type": "string[]"
            },
            {
              "internalType": "uint256",
              "name": "maxFileSize",
              "type": "uint256"
            }
          ],
          "internalType": "struct IQuestBoard.QuestRequirements",
          "name": "requirements",
          "type": "tuple"
        }
      ],
      "name": "createQuest",
      "outputs": [
        {
          "internalType": "uint256",
          "name": "questId",
          "type": "uint256"
        }
      ],
      "stateMutability": "payable",
      "type": "function"
    },
    {
      "inputs": [
        {
          "internalType": "address",
          "name": "token",
          "type": "address"
        },
        {
          "internalType": "uint256",
          "name": "amount",
          "type": "uint256"
        }
      ],
      "name": "emergencyWithdraw",
      "outputs": [],
      "stateMutability": "nonpayable",
      "type": "function"
    },
    {
      "inputs": [],
      "name": "getActiveQuests",
      "outputs": [
        {
          "internalType": "uint256[]",
          "name": "",
          "type": "uint256[]"
        }
      ],
      "stateMutability": "view",
      "type": "function"
    },
    {
      "inputs": [
        {
          "internalType": "uint256",
          "name": "questId",
          "type": "uint256"
        }
      ],
      "name": "getExternalIdByQuestId",
      "outputs": [
        {
          "internalType": "string",
          "name": "",
          "type": "string"
        }
      ],
      "stateMutability": "view",
      "type": "function"
    },
    {
      "inputs": [
        {
          "internalType": "uint256",
          "name": "questId",
          "type": "uint256"
        }
      ],
      "name": "getQuest",
      "outputs": [
        {
          "components": [
            {
              "internalType": "uint256",
              "name": "id",
              "type": "uint256"
            },
            {
              "internalType": "string",
              "name": "externalId",
              "type": "string"
            },
            {
              "internalType": "address",
              "name": "creator",
              "type": "address"
            },
            {
              "internalType": "string",
              "name": "title",
              "type": "string"
            },
            {
              "internalType": "string",
              "name": "description",
              "type": "string"
            },
            {
              "internalType": "string",
              "name": "metadataURI",
              "type": "string"
            },
            {
              "internalType": "enum IQuestBoard.QuestType",
              "name": "questType",
              "type": "uint8"
            },
            {
              "internalType": "enum IQuestBoard.QuestStatus",
              "name": "status",
              "type": "uint8"
            },
            {
              "internalType": "uint256",
              "name": "bountyAmount",
              "type": "uint256"
            },
            {
              "internalType": "address",
              "name": "bountyToken",
              "type": "address"
            },
            {
              "internalType": "uint256",
              "name": "maxParticipants",
              "type": "uint256"
            },
            {
              "internalType": "uint256",
              "name": "currentParticipants",
              "type": "uint256"
            },
            {
              "internalType": "uint256",
              "name": "maxCollaborators",
              "type": "uint256"
            },
            {
              "internalType": "uint256",
              "name": "submissionDeadline",
              "type": "uint256"
            },
            {
              "internalType": "uint256",
              "name": "reviewDeadline",
              "type": "uint256"
            },
            {
              "internalType": "uint256",
              "name": "createdAt",
              "type": "uint256"
            },
            {
              "internalType": "uint256",
              "name": "updatedAt",
              "type": "uint256"
            },
            {
              "internalType": "bool",
              "name": "requiresApproval",
              "type": "bool"
            },
            {
              "internalType": "string[]",
              "name": "tags",
              "type": "string[]"
            }
          ],
          "internalType": "struct IQuestBoard.Quest",
          "name": "",
          "type": "tuple"
        }
      ],
      "stateMutability": "view",
      "type": "function"
    },
    {
      "inputs": [
        {
          "internalType": "string",
          "name": "externalId",
          "type": "string"
        }
      ],
      "name": "getQuestByExternalId",
      "outputs": [
        {
          "components": [
            {
              "internalType": "uint256",
              "name": "id",
              "type": "uint256"
            },
            {
              "internalType": "string",
              "name": "externalId",
              "type": "string"
            },
            {
              "internalType": "address",
              "name": "creator",
              "type": "address"
            },
            {
              "internalType": "string",
              "name": "title",
              "type": "string"
            },
            {
              "internalType": "string",
              "name": "description",
              "type": "string"
            },
            {
              "internalType": "string",
              "name": "metadataURI",
              "type": "string"
            },
            {
              "internalType": "enum IQuestBoard.QuestType",
              "name": "questType",
              "type": "uint8"
            },
            {
              "internalType": "enum IQuestBoard.QuestStatus",
              "name": "status",
              "type": "uint8"
            },
            {
              "internalType": "uint256",
              "name": "bountyAmount",
              "type": "uint256"
            },
            {
              "internalType": "address",
              "name": "bountyToken",
              "type": "address"
            },
            {
              "internalType": "uint256",
              "name": "maxParticipants",
              "type": "uint256"
            },
            {
              "internalType": "uint256",
              "name": "currentParticipants",
              "type": "uint256"
            },
            {
              "internalType": "uint256",
              "name": "maxCollaborators",
              "type": "uint256"
            },
            {
              "internalType": "uint256",
              "name": "submissionDeadline",
              "type": "uint256"
            },
            {
              "internalType": "uint256",
              "name": "reviewDeadline",
              "type": "uint256"
            },
            {
              "internalType": "uint256",
              "name": "createdAt",
              "type": "uint256"
            },
            {
              "internalType": "uint256",
              "name": "updatedAt",
              "type": "uint256"
            },
            {
              "internalType": "bool",
              "name": "requiresApproval",
              "type": "bool"
            },
            {
              "internalType": "string[]",
              "name": "tags",
              "type": "string[]"
            }
          ],
          "internalType": "struct IQuestBoard.Quest",
          "name": "",
          "type": "tuple"
        }
      ],
      "stateMutability": "view",
      "type": "function"
    },
    {
      "inputs": [
        {
          "internalType": "string",
          "name": "externalId",
          "type": "string"
        }
      ],
      "name": "getQuestIdByExternalId",
      "outputs": [
        {
          "internalType": "uint256",
          "name": "",
          "type": "uint256"
        }
      ],
      "stateMutability": "view",
      "type": "function"
    },
    {
      "inputs": [
        {
          "internalType": "uint256",
          "name": "questId",
          "type": "uint256"
        }
      ],
      "name": "getQuestParticipants",
      "outputs": [
        {
          "internalType": "address[]",
          "name": "",
          "type": "address[]"
        }
      ],
      "stateMutability": "view",
      "type": "function"
    },
    {
      "inputs": [
        {
          "internalType": "uint256",
          "name": "questId",
          "type": "uint256"
        }
      ],
      "name": "getQuestRequirements",
      "outputs": [
        {
          "components": [
            {
              "internalType": "string[]",
              "name": "skillsRequired",
              "type": "string[]"
            },
            {
              "internalType": "uint256",
              "name": "minReputation",
              "type": "uint256"
            },
            {
              "internalType": "bool",
              "name": "kycRequired",
              "type": "bool"
            },
            {
              "internalType": "string[]",
              "name": "allowedFileTypes",
              "type": "string[]"
            },
            {
              "internalType": "uint256",
              "name": "maxFileSize",
              "type": "uint256"
            }
          ],
          "internalType": "struct IQuestBoard.QuestRequirements",
          "name": "",
          "type": "tuple"
        }
      ],
      "stateMutability": "view",
      "type": "function"
    },
    {
      "inputs": [
        {
          "internalType": "address",
          "name": "creator",
          "type": "address"
        }
      ],
      "name": "getQuestsByCreator",
      "outputs": [
        {
          "internalType": "uint256[]",
          "name": "",
          "type": "uint256[]"
        }
      ],
      "stateMutability": "view",
      "type": "function"
    },
    {
      "inputs": [
        {
          "internalType": "string",
          "name": "tag",
          "type": "string"
        }
      ],
      "name": "getQuestsByTag",
      "outputs": [
        {
          "internalType": "uint256[]",
          "name": "",
          "type": "uint256[]"
        }
      ],
      "stateMutability": "view",
      "type": "function"
    },
    {
      "inputs": [
        {
          "internalType": "bytes32",
          "name": "role",
          "type": "bytes32"
        }
      ],
      "name": "getRoleAdmin",
      "outputs": [
        {
          "internalType": "bytes32",
          "name": "",
          "type": "bytes32"
        }
      ],
      "stateMutability": "view",
      "type": "function"
    },
    {
      "inputs": [],
      "name": "getTotalQuests",
      "outputs": [
        {
          "internalType": "uint256",
          "name": "",
          "type": "uint256"
        }
      ],
      "stateMutability": "view",
      "type": "function"
    },
    {
      "inputs": [
        {
          "internalType": "bytes32",
          "name": "role",
          "type": "bytes32"
        },
        {
          "internalType": "address",
          "name": "account",
          "type": "address"
        }
      ],
      "name": "grantRole",
      "outputs": [],
      "stateMutability": "nonpayable",
      "type": "function"
    },
    {
      "inputs": [
        {
          "internalType": "bytes32",
          "name": "role",
          "type": "bytes32"
        },
        {
          "internalType": "address",
          "name": "account",
          "type": "address"
        }
      ],
      "name": "hasRole",
      "outputs": [
        {
          "internalType": "bool",
          "name": "",
          "type": "bool"
        }
      ],
      "stateMutability": "view",
      "type": "function"
    },
    {
      "inputs": [
        {
          "internalType": "uint256",
          "name": "questId",
          "type": "uint256"
        },
        {
          "internalType": "address",
          "name": "user",
          "type": "address"
        }
      ],
      "name": "isParticipant",
      "outputs": [
        {
          "internalType": "bool",
          "name": "",
          "type": "bool"
        }
      ],
      "stateMutability": "view",
      "type": "function"
    },
    {
      "inputs": [
        {
          "internalType": "uint256",
          "name": "questId",
          "type": "uint256"
        }
      ],
      "name": "joinQuest",
      "outputs": [],
      "stateMutability": "nonpayable",
      "type": "function"
    },
    {
      "inputs": [
        {
          "internalType": "uint256",
          "name": "questId",
          "type": "uint256"
        }
      ],
      "name": "leaveQuest",
      "outputs": [],
      "stateMutability": "nonpayable",
      "type": "function"
    },
    {
      "inputs": [],
      "name": "pause",
      "outputs": [],
      "stateMutability": "nonpayable",
      "type": "function"
    },
    {
      "inputs": [
        {
          "internalType": "uint256",
          "name": "questId",
          "type": "uint256"
        }
      ],
      "name": "pauseQuest",
      "outputs": [],
      "stateMutability": "nonpayable",
      "type": "function"
    },
    {
      "inputs": [],
      "name": "paused",
      "outputs": [
        {
          "internalType": "bool",
          "name": "",
          "type": "bool"
        }
      ],
      "stateMutability": "view",
      "type": "function"
    },
    {
      "inputs": [
        {
          "internalType": "uint256",
          "name": "questId",
          "type": "uint256"
        },
        {
          "internalType": "address",
          "name": "participant",
          "type": "address"
        }
      ],
      "name": "rejectParticipant",
      "outputs": [],
      "stateMutability": "nonpayable",
      "type": "function"
    },
    {
      "inputs": [
        {
          "internalType": "bytes32",
          "name": "role",
          "type": "bytes32"
        },
        {
          "internalType": "address",
          "name": "account",
          "type": "address"
        }
      ],
      "name": "renounceRole",
      "outputs": [],
      "stateMutability": "nonpayable",
      "type": "function"
    },
    {
      "inputs": [
        {
          "internalType": "uint256",
          "name": "questId",
          "type": "uint256"
        }
      ],
      "name": "resumeQuest",
      "outputs": [],
      "stateMutability": "nonpayable",
      "type": "function"
    },
    {
      "inputs": [
        {
          "internalType": "bytes32",
          "name": "role",
          "type": "bytes32"
        },
        {
          "internalType": "address",
          "name": "account",
          "type": "address"
        }
      ],
      "name": "revokeRole",
      "outputs": [],
      "stateMutability": "nonpayable",
      "type": "function"
    },
    {
      "inputs": [],
      "name": "rewardManager",
      "outputs": [
        {
          "internalType": "contract IRewardManager",
          "name": "",
          "type": "address"
        }
      ],
      "stateMutability": "view",
      "type": "function"
    },
    {
      "inputs": [
        {
          "internalType": "uint256",
          "name": "feePercentage",
          "type": "uint256"
        }
      ],
      "name": "setPlatformFee",
      "outputs": [],
      "stateMutability": "nonpayable",
      "type": "function"
    },
    {
      "inputs": [
        {
          "internalType": "address",
          "name": "recipient",
          "type": "address"
        }
      ],
      "name": "setPlatformFeeRecipient",
      "outputs": [],
      "stateMutability": "nonpayable",
      "type": "function"
    },
    {
      "inputs": [
        {
          "internalType": "bytes4",
          "name": "interfaceId",
          "type": "bytes4"
        }
      ],
      "name": "supportsInterface",
      "outputs": [
        {
          "internalType": "bool",
          "name": "",
          "type": "bool"
        }
      ],
      "stateMutability": "view",
      "type": "function"
    },
    {
      "inputs": [],
      "name": "unpause",
      "outputs": [],
      "stateMutability": "nonpayable",
      "type": "function"
    },
    {
      "inputs": [
        {
          "internalType": "uint256",
          "name": "questId",
          "type": "uint256"
        },
        {
          "internalType": "string",
          "name": "title",
          "type": "string"
        },
        {
          "internalType": "string",
          "name": "description",
          "type": "string"
        },
        {
          "internalType": "string",
          "name": "metadataURI",
          "type": "string"
        }
      ],
      "name": "updateQuest",
      "outputs": [],
      "stateMutability": "nonpayable",
      "type": "function"
    },
    {
      "inputs": [
        {
          "internalType": "uint256",
          "name": "questId",
          "type": "uint256"
        },
        {
          "internalType": "enum IQuestBoard.QuestStatus",
          "name": "status",
          "type": "uint8"
        }
      ],
      "name": "updateQuestStatus",
      "outputs": [],
      "stateMutability": "nonpayable",
      "type": "function"
    },
    {
      "inputs": [],
      "name": "userProfile",
      "outputs": [
        {
          "internalType": "contract IUserProfile",
          "name": "",
          "type": "address"
        }
      ],
      "stateMutability": "view",
      "type": "function"
    }
  ],
  "bytecode": "0x6080346101b157601f6145bf38819003918201601f19168301916001600160401b038311848410176101b6578084926060946040528339810103126101b157610047816101cc565b906100606040610059602084016101cc565b92016101cc565b600180556002805460ff1916905560fa600d5533600090815260008051602061459f833981519152602052604090205490929060ff1615610171575b33600090815260008051602061457f833981519152602052604090205460ff161561010f575b600f80546001600160a01b03199081166001600160a01b039384161790915560108054821693831693909317909255600e8054909216921691909117905560405161437e90816101e18239f35b33600081815260008051602061457f83398151915260205260408120805460ff1916600117905581907fa49807205ce4d355092ef5a8a18f56e8913cf4a201fbe287825b095693c217759060008051602061455f8339815191529080a46100c2565b33600081815260008051602061459f83398151915260205260408120805460ff19166001179055819060008051602061455f8339815191528180a461009c565b600080fd5b634e487b7160e01b600052604160045260246000fd5b51906001600160a01b03821682036101b15756fe60c080604052600436101561001357600080fd5b600060a05260a0513560e01c90816301ffc9a7146132b857508063029a8c58146131815780630b385847146130715780630f4ef8a61461304757806312e8e2c314612fb05780631871e24314612efd578063248a9ca314612ed05780632a5de35014612ea65780632f2ff15d14612dd357806336568abe14612d415780633f4ba83a14612ca857806349f86f3414612c6d5780635c975abb14612c495780635e2dd16d14612b3757806368ef16bc146129a25780637122ff311461276457806373cd25a01461266e578063758d9b891461260057806375b238fc146125c457806378ff2bda14612220578063797669c9146121e45780637a175f40146121205780637bfc5956146120725780637fc573d21461205357806381d6b0d814611fd757806382327a5814611dbc5780638456cb5914611d5d578063888db66014611c4a57806391d1485414611bfa57806395ccea6714611b705780639d92cb8714611769578063a217fddf1461174b578063b99abb5e14611669578063bf8d8be214610377578063cbadd5c31461031b578063cd703385146102bb578063d547741f146102705763f67c3b6a146101c757600080fd5b3461026a57602036600319011261026a576004356001600160401b03811161026a576101f96020913690600401613593565b6040519291839190819083378101600981520301902060405190816020825491828152019160a05152602060a051209060a0515b818110610254576102508561024481870382613632565b6040519182918261330b565b0390f35b825484526020909301926001928301920161022d565b60a05180fd5b3461026a57604036600319011261026a576102b560043561028f613360565b906102b06102ab82600052600060205260016040600020015490565b613dd0565b613e0e565b60a05180f35b3461026a57602036600319011261026a576004358015158061030f575b6102e19061366a565b60a05152600b6020526102506102fb604060a051206137dd565b604051918291602083526020830190613399565b50600c548111156102d8565b3461026a57602036600319011261026a576004356001600160401b03811161026a57602061034e81923690600401613593565b91908260405193849283378101600a8152030190205461036f8115156138f1565b604051908152f35b6101c036600319011261026a576004356001600160401b03811161026a576103a3903690600401613593565b6024356001600160401b03811161026a576103c2903690600401613593565b6080526044356001600160401b03811161026a576103e4903690600401613593565b6064356001600160401b03811161026a57610403903690600401613593565b6003608435101561026a5760c435936001600160a01b038516850361026a576101643593841515850361026a576001600160401b03610184351161026a573660236101843501121561026a576001600160401b0361018435600401351161026a57366024610184356004013560051b6101843501011161026a576001600160401b036101a4351161026a5760a06101a4353603600319011261026a576002600154146116245760026001556104b6613f59565b87156115df57604051888a82376020818a8101600a8152030190205461159a576080511561155d574261012435111561151857610124356101443511156114d35760e4351561148e57600f5460405163a787c80b60e01b815233600482015290602090829060249082906001600160a01b03165afa90811561123a5760a0519161145f575b501561141a5761054c600c546135c0565b9788600c5588604051828c8237602081848101600a815203019020558860a05152600b602052604060a051206001600160401b038211610d8d5761059a8261059483546137a3565b836139fd565b60a05182601f81116001146113ae5760a0516105ca92826113a3575b508160011b916000199060031b1c19161790565b90555b60a4356111a3575b6040516105e1816135e5565b8981526105ef36838d613a5d565b6020820152336040820152610607366080518b613a5d565b6060820152610617368486613a5d565b6080820152610627368688613a5d565b60a082015261063b60843560c08301613881565b600160e082015260a4356101008201526001600160a01b03881661012082015260e43561014082015260a05161016082015261010435610180820152610124356101a0820152610144356101c0820152426101e082018190526102008201528615156102208201526106b36004610184350135613653565b6106c06040519182613632565b6101843560048101358252602401602082015b6024610184356004013560051b610184350101821061115f5750506102408201528960a051526003602052604060a051208151815560208201518051906001600160401b038211610d8d576107388261072f60018601546137a3565b600186016139fd565b6020906001601f8411146110eb5791809161076b9360a05192610f88575b50508160011b916000199060031b1c19161790565b60018201555b60408201516002820180546001600160a01b0319166001600160a01b039290921691909117905560608201518051906001600160401b038211610d8d576107c8826107bf60038601546137a3565b600386016139fd565b6020906001601f841114611077579180916107fa9360a05192610f885750508160011b916000199060031b1c19161790565b60038201555b60808201518051906001600160401b038211610d8d576108308261082760048601546137a3565b600486016139fd565b6020906001601f841114611003579180916108629360a05192610f885750508160011b916000199060031b1c19161790565b60048201555b60a08201518051906001600160401b038211610d8d576108988261088f60058601546137a3565b600586016139fd565b6020906001601f841114610f93579180916108ca9360a05192610f885750508160011b916000199060031b1c19161790565b60058201555b60c08201516003811015610f705760a0515060ff8019600684015416911617600682015560e08201516005811015610f705781610915601192600661024095016136ed565b61010084015160078201556101208401516008820180546001600160a01b039092166001600160a01b03199092169190911790556101408401516009820155610160840151600a820155610180840151600b8201556101a0840151600c8201556101c0840151600d8201556101e0840151600e820155610200840151600f82015561022084015160108201805460ff191691151560ff169190911790550191015160208151916109c58385613a94565b019160a05152602060a051209160a051905b828210610e8657505050508860a051526004602052604060a05120610a086101a4356004016101a435600401613b2c565b610a128184613a94565b60a08051849052516020812092805b838310610da55750505050506101a4356024810135600183015560440135801515900361026a57610a6860446101a4350135600283019060ff801983541691151516179055565b610a7e60646101a435016101a435600401613b2c565b610a8b8160038501613a94565b60a08051600385019052516020812092805b838310610c9b575050505050600460846101a43501359101553360a051526008602052610acf89604060a05120613bc1565b60a0515b6101843560040135811015610b2557600190610b1f8b6020610b0561018435600586901b810160249081019101613b61565b919082604051938492833781016009815203019020613bc1565b01610ad3565b507f490d4345cb1715bc403f637c2764b0e6e2a7892c3dab0d28db70acc19af664d694610c1594610b996101a09a99958c9995610b8a60209f96610ba797816040519283928337810160a05181520390209c6040519e8f818152019060805190613947565b918f8e90818503910152613947565b918a830360408c0152613947565b91610bb7606089016084356133be565b60a43560808901526001600160a01b031660a088015260e43560c08801526101043560e08801526101243561010088015261014435610120880152151561014087015285810361016087015261018435600481013590602401613bf6565b84810361018086015293610c7b610c43610c3560046101a4350180613c83565b60a0895260a0890191613bf6565b6101a4356024810135888b0152604481013515156040890152610c6d906064810190600401613c83565b9088830360608a0152613bf6565b94608060846101a43501359101528033950390a460018055604051908152f35b610ca58183613b61565b906001600160401b038211610d8d57610cc882610cc289546137a3565b896139fd565b60a05190601f8311600114610d1c5792610d028360019594602094879660a05192610d115750508160011b916000199060031b1c19161790565b88555b01950192019193610a9d565b013590503880610756565b601f198316918860a05152602060a051209260a0515b818110610d755750936020936001969387969383889510610d5b575b505050811b018855610d05565b0135600019600384901b60f8161c19169055388080610d4e565b91936020600181928787013581550195019201610d32565b634e487b7160e01b60a051526041600452602460a051fd5b610daf8183613b61565b906001600160401b038211610d8d57610dcc82610cc289546137a3565b60a05190601f8311600114610e155792610e068360019594602094879660a05192610d115750508160011b916000199060031b1c19161790565b88555b01950192019193610a21565b601f198316918860a05152602060a051209260a0515b818110610e6e5750936020936001969387969383889510610e54575b505050811b018855610e09565b0135600019600384901b60f8161c19169055388080610e47565b91936020600181928787013581550195019201610e2b565b80518051906001600160401b038211610d8d57610ead82610ea788546137a3565b886139fd565b6020906001601f841114610f005792610ee68360019594602094879660a05192610ef55750508160011b916000199060031b1c19161790565b87555b019401910190926109d7565b015190503880610756565b90601f198316918760a051528160a051209260a0515b818110610f585750936020936001969387969383889510610f3f575b505050811b018755610ee9565b015160001960f88460031b161c19169055388080610f32565b92936020600181928786015181550195019301610f16565b634e487b7160e01b60a051526021600452602460a051fd5b015190508f80610756565b90601f198316916005850160a051528160a051209260a0515b818110610feb5750908460019594939210610fd2575b505050811b0160058201556108d0565b015160001960f88460031b161c191690558e8080610fc2565b92936020600181928786015181550195019301610fac565b91906004840160a051528060a051209060a051935b601f198416851061105c576001945083601f19811610611043575b505050811b016004820155610868565b015160001960f88460031b161c191690558e8080611033565b81810151835560209485019460019093019290910190611018565b91906003840160a051528060a051209060a051935b601f19841685106110d0576001945083601f198116106110b7575b505050811b016003820155610800565b015160001960f88460031b161c191690558e80806110a7565b8181015183556020948501946001909301929091019061108c565b91906001840160a051528060a051209060a051935b601f1984168510611144576001945083601f1981161061112b575b505050811b016001820155610771565b015160001960f88460031b161c191690558e808061111b565b81810151835560209485019460019093019290910190611100565b6001600160401b0382351161026a57813561018435013660438201121561026a5760209161119883923690604460248201359101613a5d565b8152019101906106d3565b6001600160a01b0387166112835760a4353403611247576010546001600160a01b0316803b1561026a5760405163b9e1305960e01b815260a051600482018c905260a435602483018190526001600160a01b038b16604484015233606484015291929091839160849183915af1801561123a57611221575b506105d5565b60a05161122d91613632565b60a05161026a578a61121b565b6040513d60a051823e3d90fd5b60405162461bcd60e51b8152602060048201526014602482015273125b98dbdc9c9958dd0811551208185b5bdd5b9d60621b6044820152606490fd5b34611352576112cd6040516323b872dd60e01b602082015233602482015230604482015260a4356064820152606481526112be608482613632565b6001600160a01b038916613f9d565b6010546112eb9060a435906001600160a01b03908116908a16613f19565b6010546001600160a01b0316803b1561026a5760405163b9e1305960e01b815260a08051600483018d905260a43560248401526001600160a01b038b166044840152336064840152905191929091839160849183915af1801561123a5761122157506105d5565b60405162461bcd60e51b815260206004820152602360248201527f455448206e6f7420616363657074656420666f7220746f6b656e20626f756e7460448201526269657360e81b6064820152608490fd5b90508d01358e6105b6565b508160a05152602060a051209060a0515b8d601f198616821061140257505083601f198116106113e8575b5050600182811b0190556105cd565b8c0135600019600385901b60f8161c191690558b806113d9565b600183946020939484930135815501930191016113bf565b60405162461bcd60e51b815260206004820152601b60248201527f43726561746f72206d757374206861766520612070726f66696c6500000000006044820152606490fd5b611481915060203d602011611487575b6114798183613632565b81019061392f565b8a61053b565b503d61146f565b60405162461bcd60e51b815260206004820152601c60248201527f4d6178207061727469636970616e7473206d757374206265203e2030000000006044820152606490fd5b60405162461bcd60e51b815260206004820152601760248201527f496e76616c69642072657669657720646561646c696e650000000000000000006044820152606490fd5b60405162461bcd60e51b815260206004820152601b60248201527f496e76616c6964207375626d697373696f6e20646561646c696e6500000000006044820152606490fd5b60405162461bcd60e51b81526020600482015260156024820152745469746c652063616e6e6f7420626520656d70747960581b6044820152606490fd5b60405162461bcd60e51b815260206004820152601a60248201527f45787465726e616c20494420616c7265616479206578697374730000000000006044820152606490fd5b60405162461bcd60e51b815260206004820152601b60248201527f45787465726e616c2049442063616e6e6f7420626520656d70747900000000006044820152606490fd5b60405162461bcd60e51b815260206004820152601f60248201527f5265656e7472616e637947756172643a207265656e7472616e742063616c6c006044820152606490fd5b3461026a57602036600319011261026a576004358015158061173f575b61168f9061366a565b60a051526005602052604060a051206040518060208354918281520190819360a05152602060a051209060a0515b81811061172057505050816116d3910382613632565b6040519182916020830190602084525180915260408301919060a0515b8181106116fe575050500390f35b82516001600160a01b03168452859450602093840193909201916001016116f0565b82546001600160a01b03168452602090930192600192830192016116bd565b50600c54811115611686565b3461026a5760a05136600319011261026a57602060405160a0518152f35b3461026a57608036600319011261026a576004356024356001600160401b03811161026a5761179c903690600401613593565b906044356001600160401b03811161026a576117bc903690600401613593565b906064356001600160401b03811161026a576117dc903690600401613593565b91909286151580611b64575b6117f19061366a565b8660a05152600360205261181760018060a01b036002604060a0512001541633146136a9565b8660a051526003602052604060a0512094600686019660ff885460081c166005811015610f70578015908115611b59575b5015611b065760038701916001600160401b038211610d8d576118758261186f85546137a3565b856139fd565b60a05190601f8311600114611a9b579180916118a89360a05192611a905750508160011b916000199060031b1c19161790565b90555b60048501916001600160401b038211610d8d576118cc8261186f85546137a3565b60a05190601f8311600114611a25579180916118ff9360a05192611a1a5750508160011b916000199060031b1c19161790565b90555b60058301916001600160401b038211610d8d576119238261186f85546137a3565b60a05190601f8311600114611999579261196c8360008051602061432983398151915297946020979460ff9760a0519261198e5750508160011b916000199060031b1c19161790565b90555b600f429101555460081c1661198760405180926133e1565ba260a05180f35b013590508a80610756565b601f198316918460a05152602060a051209260a0515b818110611a025750936020969360ff9693600193836000805160206143298339815191529b98106119e8575b505050811b01905561196f565b0135600019600384901b60f8161c191690558980806119db565b919360206001819287870135815501950192016119af565b013590508980610756565b601f198316918460a05152602060a051209260a0515b818110611a785750908460019594939210611a5e575b505050811b019055611902565b0135600019600384901b60f8161c19169055888080611a51565b91936020600181928787013581550195019201611a3b565b013590508b80610756565b601f198316918460a05152602060a051209260a0515b818110611aee5750908460019594939210611ad4575b505050811b0190556118ab565b0135600019600384901b60f8161c191690558a8080611ac7565b91936020600181928787013581550195019201611ab1565b60405162461bcd60e51b815260206004820152602560248201527f43616e6e6f742075706461746520717565737420696e2063757272656e742073604482015264746174757360d81b6064820152608490fd5b60011490508a611848565b50600c548711156117e8565b3461026a57604036600319011261026a57611b89613345565b60243590611b95613cb7565b6001600160a01b031680611bdc5750600e5460a05191906001600160a01b03168115611bd2575b60a05192839283928392f11561123a5760a05180f35b6108fc9250611bbc565b600e54611bf592916001600160a01b0390911690613f19565b6102b5565b3461026a57604036600319011261026a57611c13613360565b60043560a0515260a051602052604060a051209060018060a01b0316600052602052602060ff604060002054166040519015158152f35b3461026a57602036600319011261026a57600435604051611c6a81613617565b6060815260a051602082015260a0516040820152606080820152608060a05191015280151580611d51575b611c9e9061366a565b60a051526004602052611d25604060a0512060405190611cbd82613617565b611cc681613899565b8252611d4660018201546020840190815260ff600284015416926040850193151584526004611cf760038301613899565b916060870192835201549360808601948552604051968796602088525160a0602089015260c08801906133ee565b92516040870152511515606086015251848203601f190160808601526133ee565b905160a08301520390f35b50600c54811115611c95565b3461026a5760a05136600319011261026a57611d77613cb7565b611d7f613f59565b600160ff1960025416176002557f62e78cea01bee320cd4e420270b5ea74000d11b0c9f74754ebdbfc544b05a2586020604051338152a160a05180f35b3461026a57602036600319011261026a5760043580151580611fcb575b611de29061366a565b8060a051526006602052604060a0512060018060a01b03331660005260205260ff6040600020541615611f92578060a051526005602052604060a0512060a0515b81549081811015611f8a57611e388184613b93565b905460039190911b1c6001600160a01b03163314611e5a576001915001611e23565b6000198201918211611f7257611e8f611e76611eb39385613b93565b905460039190911b1c6001600160a01b03169184613b93565b81546001600160a01b0393841660039290921b91821b9390911b1916919091179055565b80548015611f5a576000190190611eca8282613b93565b81549060018060a01b039060031b1b19169055555b8060a051526006602052604060a0512060018060a01b033316600052602052604060002060ff1981541690558060a051526003602052600a604060a0512001611f288154613f0c565b905533907f30ebfca8d8c33a64628fc8395fa0f6c5ab0ed13bd4c8cc489ccf5c73c40e6b0d60a05160a051a360a05180f35b634e487b7160e01b60a051526031600452602460a051fd5b634e487b7160e01b60a051526011600452602460a051fd5b505050611edf565b60405162461bcd60e51b8152602060048201526011602482015270139bdd0818481c185c9d1a58da5c185b9d607a1b6044820152606490fd5b50600c54811115611dd9565b3461026a57602036600319011261026a576001600160a01b03611ff8613345565b1660a051526008602052604060a0512060405190816020825491828152019160a05152602060a051209060a0515b81811061203d576102508561024481870382613632565b8254845260209093019260019283019201612026565b3461026a5760a05136600319011261026a576020600c54604051908152f35b3461026a57602036600319011261026a5760043580151580612114575b6120989061366a565b8060a0515260036020526120be60018060a01b036002604060a0512001541633146136a9565b60a080518290526003602081815282516040808220600601805461ff00191661020017905590859052918152915181902042600f919091015551600281526000805160206143298339815191529190a260a05180f35b50600c5481111561208f565b3461026a57604036600319011261026a5760043561213c613360565b90801515806121d8575b61214f9061366a565b8060a05152600360205261217560018060a01b036002604060a0512001541633146136a9565b8060a051526007602052604060a0512060018060a01b0383166000526020526121a560ff60406000205416613968565b60a051526007602052604060a051209060018060a01b0316600052602052604060002060ff19815416905560a05160a051f35b50600c54811115612146565b3461026a5760a05136600319011261026a5760206040517f71f3d55856e4058ed06ee057d79ada615f65cdf5f9ee88181b914225088f834f8152f35b3461026a57602036600319011261026a57600435801515806125b8575b6122469061366a565b8060a05152600360205260ff6006604060a05120015460081c166005811015610f7057600103612580578060a051526003602052604060a051208160a051526006602052604060a0512060018060a01b03331660005260205260ff60406000205416612543576122bf600a8201546009830154116139aa565b600c8101544210156124fe57600f5460405163a787c80b60e01b81523360048201526001600160a01b0390911690602081602481855afa90811561123a5760a051916124df575b50156124a4578260a051526004602052604060a051209060405161232981613617565b61233283613899565b8152608060046001850154946020840195865260ff6002820154161515604085015261236060038201613899565b6060850152015491015281516123ee575b50506010015460ff16156123df578060a051526007602052604060a0512060018060a01b0333166000526020526040600020600160ff198254161790555b33907f7dd8cb04159701bc1976c246434d7d96812782e7489e6c5c34db49a388fe9e8060a05160a051a360a05180f35b6123e93382613e90565b6123af565b9060206024926040519384809263baccbfdb60e01b82523360048301525afa91821561123a5760a05192612470575b50511161242b578280612371565b60405162461bcd60e51b815260206004820152601760248201527f496e73756666696369656e742072657075746174696f6e0000000000000000006044820152606490fd5b9091506020813d60201161249c575b8161248c60209383613632565b8101031261026a5751908461241d565b3d915061247f565b60405162461bcd60e51b81526020600482015260136024820152724d757374206861766520612070726f66696c6560681b6044820152606490fd5b6124f8915060203d602011611487576114798183613632565b84612306565b60405162461bcd60e51b815260206004820152601a60248201527f5375626d697373696f6e20646561646c696e65207061737365640000000000006044820152606490fd5b60405162461bcd60e51b8152602060048201526015602482015274105b1c9958591e4818481c185c9d1a58da5c185b9d605a1b6044820152606490fd5b60405162461bcd60e51b815260206004820152601060248201526f5175657374206e6f742061637469766560801b6044820152606490fd5b50600c5481111561223d565b3461026a5760a05136600319011261026a5760206040517fa49807205ce4d355092ef5a8a18f56e8913cf4a201fbe287825b095693c217758152f35b3461026a57604036600319011261026a5760043561261c613360565b9080151580612662575b61262f9061366a565b60a051526006602052604060a051209060018060a01b0316600052602052602060ff604060002054166040519015158152f35b50600c54811115612626565b3461026a57604036600319011261026a576102b560043561268d613360565b9080151580612758575b6126a09061366a565b8060a0515260036020526126c660018060a01b036002604060a0512001541633146136a9565b8060a051526007602052604060a0512060018060a01b0383166000526020526126f660ff60406000205416613968565b8060a051526003602052612727600a604060a0512001548260a0515260036020526009604060a051200154116139aa565b8060a051526007602052604060a0512060018060a01b038316600052602052604060002060ff198154169055613e90565b50600c54811115612697565b3461026a57604036600319011261026a576004356024356001600160401b03811161026a57612797903690600401613593565b9082151580612996575b6127aa9061366a565b8260a0515260036020526127d060018060a01b036002604060a0512001541633146136a9565b8260a051526003602052604060a05120600681019060ff825460081c166005811015610f70576001811490811561298b575b501561295057815461ff0019166104001790915542600f820155600701541515806128ed575b61286f575b7f557465cc43bd23a6456dc4c4d969b80f05e9e8bc76f95781ff4d5a4a904d4fd191612866604051928392602084526020840191613947565b0390a260a05180f35b6010546001600160a01b031691823b1561026a576040519263162c7ca760e21b84528460048501528360248160a0519360a051905af192831561123a577f557465cc43bd23a6456dc4c4d969b80f05e9e8bc76f95781ff4d5a4a904d4fd1936128db575b50915061282d565b60a0516128e791613632565b846128d3565b506010546040516323f22a1d60e21b81526004810185905290602090829060249082906001600160a01b03165afa90811561123a5760a05191612931575b50612828565b61294a915060203d602011611487576114798183613632565b8461292b565b60405162461bcd60e51b815260206004820152601360248201527210d85b9b9bdd0818d85b98d95b081c5d595cdd606a1b6044820152606490fd5b600214905086612802565b50600c548311156127a1565b3461026a57602036600319011261026a576004356001600160401b03811161026a576129d46020913690600401613593565b91906129de61370c565b508260405193849283378101600a815203019020546129fe8115156138f1565b60a051526003602052610250604060a05120612b25601160405192612a22846135e5565b80548452612a32600182016137dd565b602085015260028101546001600160a01b03166040850152612a56600382016137dd565b6060850152612a67600482016137dd565b6080850152612a78600582016137dd565b60a0850152612aa360ff6006830154612a9682821660c08901613881565b60081c1660e0860161388d565b600781015461010085015260088101546001600160a01b03166101208501526009810154610140850152600a810154610160850152600b810154610180850152600c8101546101a0850152600d8101546101c0850152600e8101546101e0850152600f810154610200850152601081015460ff16151561022085015201613899565b61024082015260405191829182613447565b3461026a57604036600319011261026a57600435602435600581101561026a5781151580612c3d575b612b699061366a565b8160a051526003602052612b8f60018060a01b036002604060a0512001541633146136a9565b8160a051526003602052604060a0512090600682019060ff825460081c166005811015610f705760038114159081612c31575b5015612bf75760008051602061432983398151915292612be4826020946136ed565b600f4291015561198760405180926133e1565b60405162461bcd60e51b8152602060048201526012602482015271145d595cdd081a5cc8199a5b985b1a5e995960721b6044820152606490fd5b60041415905085612bc2565b50600c54821115612b60565b3461026a5760a05136600319011261026a57602060ff600254166040519015158152f35b3461026a57602036600319011261026a57600435612c8961370c565b5080151580612c9c575b6129fe9061366a565b50600c54811115612c93565b3461026a5760a05136600319011261026a57612cc2613cb7565b60025460ff811615612d055760ff19166002557f5db9ee0a495bf2e6ff9c91a7834c1ba4fdd244a5e8aa4e537bd38aeae4b073aa6020604051338152a160a05180f35b60405162461bcd60e51b815260206004820152601460248201527314185d5cd8589b194e881b9bdd081c185d5cd95960621b6044820152606490fd5b3461026a57604036600319011261026a57612d5a613360565b336001600160a01b03821603612d76576102b590600435613e0e565b60405162461bcd60e51b815260206004820152602f60248201527f416363657373436f6e74726f6c3a2063616e206f6e6c792072656e6f756e636560448201526e103937b632b9903337b91039b2b63360891b6064820152608490fd5b3461026a57604036600319011261026a57600435612def613360565b90612e0b6102ab82600052600060205260016040600020015490565b60a080518290528051602081815260408083206001600160a01b0387169093529190529051205460ff1615612e405760a05180f35b60a080518290528051602081815260408083206001600160a01b0396909616928390529490529051928320805460ff1916600117905533929091907f2f8788117e7eff1d82e926ec794901d17c78024a50270940304540a733656f0d9080a480806102b5565b3461026a5760a05136600319011261026a57600f546040516001600160a01b039091168152602090f35b3461026a57602036600319011261026a57602061036f600435600052600060205260016040600020015490565b3461026a57602036600319011261026a57612f16613345565b612f1e613cb7565b6001600160a01b03168015612f77576020817fba887708e7d4436dd36b62187bdced03e0b9abe66caf392a66dd84386641b209926bffffffffffffffffffffffff60a01b600e541617600e55604051908152a160a05180f35b60405162461bcd60e51b8152602060048201526011602482015270125b9d985b1a59081c9958da5c1a595b9d607a1b6044820152606490fd5b3461026a57602036600319011261026a57600435612fcc613cb7565b6103e8811161300a576020817f45610d581145924dd7090a5017e5f2b1d6f42213bb2e95707ff86846bbfcb1ca92600d55604051908152a160a05180f35b60405162461bcd60e51b81526020600482015260156024820152744665652063616e6e6f74206578636565642031302560581b6044820152606490fd5b3461026a5760a05136600319011261026a576010546040516001600160a01b039091168152602090f35b3461026a57602036600319011261026a5760043580151580613175575b6130979061366a565b8060a0515260036020526130bd60018060a01b036002604060a0512001541633146136a9565b8060a05152600360205260ff6006604060a05120015460081c166005811015610f705760020361313d5760a080518290526003602081815282516040808220600601805461ff00191661010017905590859052918152915181902042600f919091015551600181526000805160206143298339815191529190a260a05180f35b60405162461bcd60e51b815260206004820152601060248201526f145d595cdd081b9bdd081c185d5cd95960821b6044820152606490fd5b50600c5481111561308e565b3461026a5760a05136600319011261026a5760a051600c549060015b8281111561326a57506131af81613653565b906131bd6040519283613632565b8082526131cc601f1991613653565b0136602083013760a0519160015b818111156131f05760405180610250858261330b565b8060a05152600360205260ff6006604060a05120015460081c166005811015610f7057600114613229575b613224906135c0565b6131da565b9282518110156132525761324a818560206132249460051b870101526135c0565b93905061321b565b634e487b7160e01b60a051526032600452602460a051fd5b8060a05152600360205260ff6006604060a05120015460081c166005811015610f70576001146132a3575b61329e906135c0565b61319d565b906132b061329e916135c0565b919050613295565b3461026a57602036600319011261026a576004359063ffffffff60e01b821680920361026a57602091637965db0b60e01b81149081156132fa575b5015158152f35b6301ffc9a760e01b149050836132f3565b602060408183019282815284518094520192019060005b81811061332f5750505090565b8251845260209384019390920191600101613322565b600435906001600160a01b038216820361335b57565b600080fd5b602435906001600160a01b038216820361335b57565b60005b8381106133895750506000910152565b8181015183820152602001613379565b906020916133b281518092818552858086019101613376565b601f01601f1916010190565b9060038210156133cb5752565b634e487b7160e01b600052602160045260246000fd5b9060058210156133cb5752565b9080602083519182815201916020808360051b8301019401926000915b83831061341a57505050505090565b9091929394602080613438600193601f198682030187528951613399565b9701930193019193929061340b565b906135909160208152815160208201526102406134d56134bf6134a961347e60208701516102606040880152610280870190613399565b60408701516001600160a01b0316606087810191909152870151868203601f19016080880152613399565b6080860151858203601f190160a0870152613399565b60a0850151848203601f190160c0860152613399565b926134e860c082015160e08501906133be565b6134fb60e08201516101008501906133e1565b61010081015161012084015260018060a01b03610120820151166101408401526101408101516101608401526101608101516101808401526101808101516101a08401526101a08101516101c08401526101c08101516101e08401526101e0810151610200840152610200810151610220840152610220810151151582840152015190610260601f19828503019101526133ee565b90565b9181601f8401121561335b578235916001600160401b03831161335b576020838186019501011161335b57565b60001981146135cf5760010190565b634e487b7160e01b600052601160045260246000fd5b61026081019081106001600160401b0382111761360157604052565b634e487b7160e01b600052604160045260246000fd5b60a081019081106001600160401b0382111761360157604052565b90601f801991011681019081106001600160401b0382111761360157604052565b6001600160401b0381116136015760051b60200190565b1561367157565b60405162461bcd60e51b815260206004820152601060248201526f125b9d985b1a59081c5d595cdd08125160821b6044820152606490fd5b156136b057565b60405162461bcd60e51b81526020600482015260156024820152742737ba103a34329038bab2b9ba1031b932b0ba37b960591b6044820152606490fd5b9060058110156133cb5761ff0082549160081b169061ff001916179055565b60405190613719826135e5565b606061024083600081528260208201526000604082015282808201528260808201528260a0820152600060c0820152600060e08201526000610100820152600061012082015260006101408201526000610160820152600061018082015260006101a082015260006101c082015260006101e0820152600061020082015260006102208201520152565b90600182811c921680156137d3575b60208310146137bd57565b634e487b7160e01b600052602260045260246000fd5b91607f16916137b2565b90604051918260008254926137f1846137a3565b808452936001811690811561385f5750600114613818575b5061381692500383613632565b565b90506000929192526020600020906000915b8183106138435750509060206138169282010138613809565b602091935080600191548385890101520191019091849261382a565b90506020925061381694915060ff191682840152151560051b82010138613809565b60038210156133cb5752565b60058210156133cb5752565b9081546138a581613653565b926138b36040519485613632565b818452602084019060005260206000206000915b8383106138d45750505050565b6001602081926138e3856137dd565b8152019201920191906138c7565b156138f857565b60405162461bcd60e51b815260206004820152600f60248201526e145d595cdd081b9bdd08199bdd5b99608a1b6044820152606490fd5b9081602091031261335b5751801515810361335b5790565b908060209392818452848401376000828201840152601f01601f1916010190565b1561396f57565b60405162461bcd60e51b8152602060048201526013602482015272139bc81c195b991a5b99c8185c1c1c9bdd985b606a1b6044820152606490fd5b156139b157565b60405162461bcd60e51b815260206004820152600d60248201526c145d595cdd081a5cc8199d5b1b609a1b6044820152606490fd5b8181106139f1575050565b600081556001016139e6565b9190601f8111613a0c57505050565b613816926000526020600020906020601f840160051c83019310613a38575b601f0160051c01906139e6565b9091508190613a2b565b6001600160401b03811161360157601f01601f191660200190565b929192613a6982613a42565b91613a776040519384613632565b82948184528183011161335b578281602093846000960137010152565b90600160401b811161360157815491818155828210613ab257505050565b600052602060002091820191015b818110613acb575050565b80613ad8600192546137a3565b80613ae5575b5001613ac0565b601f81118314613afb5750600081555b38613ade565b613b19908260005283601f6020600020920160051c820191016139e6565b8060005260006020812081835555613af5565b903590601e198136030182121561335b57018035906001600160401b03821161335b57602001918160051b3603831361335b57565b903590601e198136030182121561335b57018035906001600160401b03821161335b5760200191813603831361335b57565b8054821015613bab5760005260206000200190600090565b634e487b7160e01b600052603260045260246000fd5b8054600160401b81101561360157613bde91600182018155613b93565b819291549060031b91821b91600019901b1916179055565b90602083828152019060208160051b85010193836000915b838310613c1e5750505050505090565b909192939495601f198282030186526000873590601e1985360301821215613c805750830190602082359201916001600160401b03811161335b57803603831361335b57613c726020928392600195613947565b980196019493019190613c0e565b80fd5b9035601e198236030181121561335b5701602081359101916001600160401b03821161335b578160051b3603831361335b57565b3360009081527f7d7ffb7a348e1c6a02869081a26547b49160dd3df72d1d75a570eb9b698292ec602052604090205460ff1615613cf057565b613dcc613cfc336140c1565b613dac6011613d2a7fa49807205ce4d355092ef5a8a18f56e8913cf4a201fbe287825b095693c217756141ed565b9260376040519485927f416363657373436f6e74726f6c3a206163636f756e74200000000000000000006020850152613d6c8151809260208688019101613376565b83017001034b99036b4b9b9b4b733903937b6329607d1b83820152613d9b825180936020604885019101613376565b01010301601f198101835282613632565b60405162461bcd60e51b8152602060048201529182916024830190613399565b0390fd5b60008181526020818152604080832033845290915290205460ff1615613df35750565b613dcc90613dac6011613d2a613e08336140c1565b936141ed565b6000818152602081815260408083206001600160a01b038616845290915290205460ff16613e3a575050565b6000818152602081815260408083206001600160a01b0395909516808452949091528120805460ff19169055339291907ff6391f5c32d9c69d2a47ea670b442974b53935d1edc7fd64eb21e047a839171b9080a4565b9081600052600560205260406000208054600160401b81101561360157611e8f81613ec19360018694018155613b93565b81600052600660205260406000209060018060a01b03166000526020526040600020600160ff198254161790556000526003602052600a604060002001613f0881546135c0565b9055565b80156135cf576000190190565b60405163a9059cbb60e01b60208201526001600160a01b03909216602483015260448083019390935291815261381691613f54606483613632565b613f9d565b60ff60025416613f6557565b60405162461bcd60e51b815260206004820152601060248201526f14185d5cd8589b194e881c185d5cd95960821b6044820152606490fd5b604080519092614021926001600160a01b0316906000908190613fc08786613632565b602085527f5361666545524332303a206c6f772d6c6576656c2063616c6c206661696c6564602086015260208151910182855af13d156140a8573d9161400583613a42565b9261401287519485613632565b83523d6000602085013e61428f565b805190811591821561408e575b5050156140385750565b5162461bcd60e51b815260206004820152602a60248201527f5361666545524332303a204552433230206f7065726174696f6e20646964206e6044820152691bdd081cdd58d8d9595960b21b6064820152608490fd5b6140a1925060208091830101910161392f565b388061402e565b60609161428f565b908151811015613bab570160200190565b6000906140ce602a613a42565b916140dc6040519384613632565b602a83526140ea602a613a42565b6020840190601f19013682378351156141d957603090538251600110156141c5576078602184015350602960005b6001821161416d5750506141295790565b606460405162461bcd60e51b815260206004820152602060248201527f537472696e67733a20686578206c656e67746820696e73756666696369656e746044820152fd5b9091600f811660108110156141b1576141ab91906f181899199a1a9b1b9c1cb0b131b232b360811b901a6141a185876140b0565b5360041c92613f0c565b90614118565b634e487b7160e01b83526032600452602483fd5b634e487b7160e01b81526032600452602490fd5b634e487b7160e01b82526032600452602482fd5b6000906141fa6042613a42565b916142086040519384613632565b604283526142166042613a42565b6020840190601f19013682378351156141d957603090538251600110156141c5576078602184015350604160005b600182116142555750506141295790565b9091600f811660108110156141b15761428991906f181899199a1a9b1b9c1cb0b131b232b360811b901a6141a185876140b0565b90614244565b919290156142f157508151156142a3575090565b3b156142ac5790565b60405162461bcd60e51b815260206004820152601d60248201527f416464726573733a2063616c6c20746f206e6f6e2d636f6e74726163740000006044820152606490fd5b8251909150156143045750805190602001fd5b60405162461bcd60e51b815260206004820152908190613dcc90602483019061339956fea780ec3d294dc3ef34c85968ec4fbd947384f2a389ca11cabef81869e40cd1d2a2646970667358221220c6abf614c5330c6c5b5cbdb681d1a4af96eb682659a51e0273bfc84a3e19562864736f6c634300081c00332f8788117e7eff1d82e926ec794901d17c78024a50270940304540a733656f0d7d7ffb7a348e1c6a02869081a26547b49160dd3df72d1d75a570eb9b698292ecad3228b676f7d3cd4284a5443f17f1962b36e491b30a40b2405849e597ba5fb5",
  "linkReferences": {},
  "deployedLinkReferences": {}
}