{
  "_format": "hh-sol-artifact-1",
  "contractName": "RewardManager",
  "sourceName": "contracts/RewardManager.sol",
  "abi": [
    {
      "inputs": [
        {
          "internalType": "address",
          "name": "platformFeeRecipient_",
          "type": "address"
        }
      ],
      "stateMutability": "nonpayable",
      "type": "constructor"
    },
    {
      "anonymous": false,
      "inputs": [
        {
          "indexed": true,
          "internalType": "uint256",
          "name": "questId",
          "type": "uint256"
        },
        {
          "indexed": true,
          "internalType": "address",
          "name": "creator",
          "type": "address"
        },
        {
          "indexed": false,
          "internalType": "uint256",
          "name": "amount",
          "type": "uint256"
        },
        {
          "indexed": false,
          "internalType": "address",
          "name": "token",
          "type": "address"
        }
      ],
      "name": "BountyEscrowed",
      "type": "event"
    },
    {
      "anonymous": false,
      "inputs": [
        {
          "indexed": true,
          "internalType": "uint256",
          "name": "questId",
          "type": "uint256"
        },
        {
          "indexed": true,
          "internalType": "address",
          "name": "creator",
          "type": "address"
        },
        {
          "indexed": false,
          "internalType": "uint256",
          "name": "amount",
          "type": "uint256"
        }
      ],
      "name": "BountyRefunded",
      "type": "event"
    },
    {
      "anonymous": false,
      "inputs": [
        {
          "indexed": true,
          "internalType": "address",
          "name": "token",
          "type": "address"
        },
        {
          "indexed": false,
          "internalType": "uint256",
          "name": "amount",
          "type": "uint256"
        },
        {
          "indexed": true,
          "internalType": "address",
          "name": "recipient",
          "type": "address"
        }
      ],
      "name": "EmergencyWithdraw",
      "type": "event"
    },
    {
      "anonymous": false,
      "inputs": [
        {
          "indexed": false,
          "internalType": "address",
          "name": "account",
          "type": "address"
        }
      ],
      "name": "Paused",
      "type": "event"
    },
    {
      "anonymous": false,
      "inputs": [
        {
          "indexed": true,
          "internalType": "uint256",
          "name": "questId",
          "type": "uint256"
        },
        {
          "components": [
            {
              "internalType": "address",
              "name": "recipient",
              "type": "address"
            },
            {
              "internalType": "uint256",
              "name": "percentage",
              "type": "uint256"
            },
            {
              "internalType": "string",
              "name": "role",
              "type": "string"
            }
          ],
          "indexed": false,
          "internalType": "struct IRewardManager.PaymentSplit[]",
          "name": "splits",
          "type": "tuple[]"
        }
      ],
      "name": "PaymentSplitUpdated",
      "type": "event"
    },
    {
      "anonymous": false,
      "inputs": [
        {
          "indexed": true,
          "internalType": "uint256",
          "name": "rewardId",
          "type": "uint256"
        },
        {
          "indexed": true,
          "internalType": "uint256",
          "name": "questId",
          "type": "uint256"
        },
        {
          "indexed": true,
          "internalType": "address",
          "name": "recipient",
          "type": "address"
        },
        {
          "indexed": false,
          "internalType": "uint256",
          "name": "amount",
          "type": "uint256"
        },
        {
          "indexed": false,
          "internalType": "address",
          "name": "token",
          "type": "address"
        },
        {
          "indexed": false,
          "internalType": "enum IRewardManager.RewardType",
          "name": "rewardType",
          "type": "uint8"
        }
      ],
      "name": "RewardDistributed",
      "type": "event"
    },
    {
      "anonymous": false,
      "inputs": [
        {
          "indexed": true,
          "internalType": "bytes32",
          "name": "role",
          "type": "bytes32"
        },
        {
          "indexed": true,
          "internalType": "bytes32",
          "name": "previousAdminRole",
          "type": "bytes32"
        },
        {
          "indexed": true,
          "internalType": "bytes32",
          "name": "newAdminRole",
          "type": "bytes32"
        }
      ],
      "name": "RoleAdminChanged",
      "type": "event"
    },
    {
      "anonymous": false,
      "inputs": [
        {
          "indexed": true,
          "internalType": "bytes32",
          "name": "role",
          "type": "bytes32"
        },
        {
          "indexed": true,
          "internalType": "address",
          "name": "account",
          "type": "address"
        },
        {
          "indexed": true,
          "internalType": "address",
          "name": "sender",
          "type": "address"
        }
      ],
      "name": "RoleGranted",
      "type": "event"
    },
    {
      "anonymous": false,
      "inputs": [
        {
          "indexed": true,
          "internalType": "bytes32",
          "name": "role",
          "type": "bytes32"
        },
        {
          "indexed": true,
          "internalType": "address",
          "name": "account",
          "type": "address"
        },
        {
          "indexed": true,
          "internalType": "address",
          "name": "sender",
          "type": "address"
        }
      ],
      "name": "RoleRevoked",
      "type": "event"
    },
    {
      "anonymous": false,
      "inputs": [
        {
          "indexed": false,
          "internalType": "address",
          "name": "account",
          "type": "address"
        }
      ],
      "name": "Unpaused",
      "type": "event"
    },
    {
      "inputs": [],
      "name": "ADMIN_ROLE",
      "outputs": [
        {
          "internalType": "bytes32",
          "name": "",
          "type": "bytes32"
        }
      ],
      "stateMutability": "view",
      "type": "function"
    },
    {
      "inputs": [],
      "name": "DEFAULT_ADMIN_ROLE",
      "outputs": [
        {
          "internalType": "bytes32",
          "name": "",
          "type": "bytes32"
        }
      ],
      "stateMutability": "view",
      "type": "function"
    },
    {
      "inputs": [],
      "name": "QUEST_BOARD_ROLE",
      "outputs": [
        {
          "internalType": "bytes32",
          "name": "",
          "type": "bytes32"
        }
      ],
      "stateMutability": "view",
      "type": "function"
    },
    {
      "inputs": [
        {
          "internalType": "uint256[]",
          "name": "rewardIds",
          "type": "uint256[]"
        }
      ],
      "name": "batchProcessRewards",
      "outputs": [],
      "stateMutability": "nonpayable",
      "type": "function"
    },
    {
      "inputs": [
        {
          "internalType": "uint256",
          "name": "questId",
          "type": "uint256"
        }
      ],
      "name": "canRefundBounty",
      "outputs": [
        {
          "internalType": "bool",
          "name": "",
          "type": "bool"
        }
      ],
      "stateMutability": "view",
      "type": "function"
    },
    {
      "inputs": [
        {
          "internalType": "uint256",
          "name": "questId",
          "type": "uint256"
        },
        {
          "internalType": "address",
          "name": "recipient",
          "type": "address"
        },
        {
          "internalType": "uint256",
          "name": "amount",
          "type": "uint256"
        },
        {
          "internalType": "address",
          "name": "token",
          "type": "address"
        },
        {
          "internalType": "enum IRewardManager.RewardType",
          "name": "rewardType",
          "type": "uint8"
        },
        {
          "internalType": "string",
          "name": "description",
          "type": "string"
        },
        {
          "internalType": "uint256",
          "name": "submissionId",
          "type": "uint256"
        }
      ],
      "name": "createReward",
      "outputs": [
        {
          "internalType": "uint256",
          "name": "rewardId",
          "type": "uint256"
        }
      ],
      "stateMutability": "nonpayable",
      "type": "function"
    },
    {
      "inputs": [
        {
          "internalType": "uint256",
          "name": "questId",
          "type": "uint256"
        },
        {
          "internalType": "address[]",
          "name": "winners",
          "type": "address[]"
        },
        {
          "internalType": "uint256[]",
          "name": "amounts",
          "type": "uint256[]"
        }
      ],
      "name": "distributeBounty",
      "outputs": [],
      "stateMutability": "nonpayable",
      "type": "function"
    },
    {
      "inputs": [
        {
          "internalType": "uint256",
          "name": "questId",
          "type": "uint256"
        },
        {
          "internalType": "uint256",
          "name": "teamId",
          "type": "uint256"
        },
        {
          "internalType": "uint256",
          "name": "totalAmount",
          "type": "uint256"
        },
        {
          "internalType": "address",
          "name": "token",
          "type": "address"
        },
        {
          "components": [
            {
              "internalType": "address",
              "name": "recipient",
              "type": "address"
            },
            {
              "internalType": "uint256",
              "name": "percentage",
              "type": "uint256"
            },
            {
              "internalType": "string",
              "name": "role",
              "type": "string"
            }
          ],
          "internalType": "struct IRewardManager.PaymentSplit[]",
          "name": "customSplits",
          "type": "tuple[]"
        }
      ],
      "name": "distributeTeamReward",
      "outputs": [],
      "stateMutability": "nonpayable",
      "type": "function"
    },
    {
      "inputs": [],
      "name": "emergencyPause",
      "outputs": [],
      "stateMutability": "nonpayable",
      "type": "function"
    },
    {
      "inputs": [],
      "name": "emergencyUnpause",
      "outputs": [],
      "stateMutability": "nonpayable",
      "type": "function"
    },
    {
      "inputs": [
        {
          "internalType": "address",
          "name": "token",
          "type": "address"
        },
        {
          "internalType": "uint256",
          "name": "amount",
          "type": "uint256"
        }
      ],
      "name": "emergencyWithdraw",
      "outputs": [],
      "stateMutability": "nonpayable",
      "type": "function"
    },
    {
      "inputs": [
        {
          "internalType": "uint256",
          "name": "questId",
          "type": "uint256"
        },
        {
          "internalType": "uint256",
          "name": "amount",
          "type": "uint256"
        },
        {
          "internalType": "address",
          "name": "token",
          "type": "address"
        },
        {
          "internalType": "address",
          "name": "creator",
          "type": "address"
        }
      ],
      "name": "escrowBounty",
      "outputs": [],
      "stateMutability": "payable",
      "type": "function"
    },
    {
      "inputs": [],
      "name": "getDefaultPaymentSplits",
      "outputs": [
        {
          "components": [
            {
              "internalType": "address",
              "name": "recipient",
              "type": "address"
            },
            {
              "internalType": "uint256",
              "name": "percentage",
              "type": "uint256"
            },
            {
              "internalType": "string",
              "name": "role",
              "type": "string"
            }
          ],
          "internalType": "struct IRewardManager.PaymentSplit[]",
          "name": "",
          "type": "tuple[]"
        }
      ],
      "stateMutability": "view",
      "type": "function"
    },
    {
      "inputs": [
        {
          "internalType": "address",
          "name": "user",
          "type": "address"
        }
      ],
      "name": "getPendingRewards",
      "outputs": [
        {
          "internalType": "uint256[]",
          "name": "",
          "type": "uint256[]"
        }
      ],
      "stateMutability": "view",
      "type": "function"
    },
    {
      "inputs": [
        {
          "internalType": "uint256",
          "name": "questId",
          "type": "uint256"
        }
      ],
      "name": "getQuestBounty",
      "outputs": [
        {
          "components": [
            {
              "internalType": "uint256",
              "name": "questId",
              "type": "uint256"
            },
            {
              "internalType": "uint256",
              "name": "totalAmount",
              "type": "uint256"
            },
            {
              "internalType": "address",
              "name": "token",
              "type": "address"
            },
            {
              "internalType": "address",
              "name": "creator",
              "type": "address"
            },
            {
              "internalType": "uint256",
              "name": "escrowedAt",
              "type": "uint256"
            },
            {
              "components": [
                {
                  "internalType": "address",
                  "name": "recipient",
                  "type": "address"
                },
                {
                  "internalType": "uint256",
                  "name": "percentage",
                  "type": "uint256"
                },
                {
                  "internalType": "string",
                  "name": "role",
                  "type": "string"
                }
              ],
              "internalType": "struct IRewardManager.PaymentSplit[]",
              "name": "splits",
              "type": "tuple[]"
            },
            {
              "internalType": "bool",
              "name": "isEscrowed",
              "type": "bool"
            },
            {
              "internalType": "bool",
              "name": "isDistributed",
              "type": "bool"
            }
          ],
          "internalType": "struct IRewardManager.QuestBounty",
          "name": "",
          "type": "tuple"
        }
      ],
      "stateMutability": "view",
      "type": "function"
    },
    {
      "inputs": [
        {
          "internalType": "uint256",
          "name": "questId",
          "type": "uint256"
        }
      ],
      "name": "getQuestRewards",
      "outputs": [
        {
          "internalType": "uint256[]",
          "name": "",
          "type": "uint256[]"
        }
      ],
      "stateMutability": "view",
      "type": "function"
    },
    {
      "inputs": [
        {
          "internalType": "uint256",
          "name": "rewardId",
          "type": "uint256"
        }
      ],
      "name": "getReward",
      "outputs": [
        {
          "components": [
            {
              "internalType": "uint256",
              "name": "id",
              "type": "uint256"
            },
            {
              "internalType": "uint256",
              "name": "questId",
              "type": "uint256"
            },
            {
              "internalType": "address",
              "name": "recipient",
              "type": "address"
            },
            {
              "internalType": "uint256",
              "name": "amount",
              "type": "uint256"
            },
            {
              "internalType": "address",
              "name": "token",
              "type": "address"
            },
            {
              "internalType": "enum IRewardManager.RewardType",
              "name": "rewardType",
              "type": "uint8"
            },
            {
              "internalType": "enum IRewardManager.PaymentStatus",
              "name": "status",
              "type": "uint8"
            },
            {
              "internalType": "uint256",
              "name": "createdAt",
              "type": "uint256"
            },
            {
              "internalType": "uint256",
              "name": "paidAt",
              "type": "uint256"
            },
            {
              "internalType": "string",
              "name": "description",
              "type": "string"
            },
            {
              "internalType": "uint256",
              "name": "submissionId",
              "type": "uint256"
            }
          ],
          "internalType": "struct IRewardManager.Reward",
          "name": "",
          "type": "tuple"
        }
      ],
      "stateMutability": "view",
      "type": "function"
    },
    {
      "inputs": [
        {
          "internalType": "bytes32",
          "name": "role",
          "type": "bytes32"
        }
      ],
      "name": "getRoleAdmin",
      "outputs": [
        {
          "internalType": "bytes32",
          "name": "",
          "type": "bytes32"
        }
      ],
      "stateMutability": "view",
      "type": "function"
    },
    {
      "inputs": [
        {
          "internalType": "address",
          "name": "token",
          "type": "address"
        }
      ],
      "name": "getTotalEscrowedAmount",
      "outputs": [
        {
          "internalType": "uint256",
          "name": "",
          "type": "uint256"
        }
      ],
      "stateMutability": "view",
      "type": "function"
    },
    {
      "inputs": [
        {
          "internalType": "address",
          "name": "token",
          "type": "address"
        }
      ],
      "name": "getTotalRewardsDistributed",
      "outputs": [
        {
          "internalType": "uint256",
          "name": "",
          "type": "uint256"
        }
      ],
      "stateMutability": "view",
      "type": "function"
    },
    {
      "inputs": [
        {
          "internalType": "address",
          "name": "user",
          "type": "address"
        }
      ],
      "name": "getUserRewards",
      "outputs": [
        {
          "internalType": "uint256[]",
          "name": "",
          "type": "uint256[]"
        }
      ],
      "stateMutability": "view",
      "type": "function"
    },
    {
      "inputs": [
        {
          "internalType": "address",
          "name": "user",
          "type": "address"
        },
        {
          "internalType": "address",
          "name": "token",
          "type": "address"
        }
      ],
      "name": "getUserTotalEarnings",
      "outputs": [
        {
          "internalType": "uint256",
          "name": "",
          "type": "uint256"
        }
      ],
      "stateMutability": "view",
      "type": "function"
    },
    {
      "inputs": [
        {
          "internalType": "address",
          "name": "questBoard",
          "type": "address"
        }
      ],
      "name": "grantQuestBoardRole",
      "outputs": [],
      "stateMutability": "nonpayable",
      "type": "function"
    },
    {
      "inputs": [
        {
          "internalType": "bytes32",
          "name": "role",
          "type": "bytes32"
        },
        {
          "internalType": "address",
          "name": "account",
          "type": "address"
        }
      ],
      "name": "grantRole",
      "outputs": [],
      "stateMutability": "nonpayable",
      "type": "function"
    },
    {
      "inputs": [
        {
          "internalType": "bytes32",
          "name": "role",
          "type": "bytes32"
        },
        {
          "internalType": "address",
          "name": "account",
          "type": "address"
        }
      ],
      "name": "hasRole",
      "outputs": [
        {
          "internalType": "bool",
          "name": "",
          "type": "bool"
        }
      ],
      "stateMutability": "view",
      "type": "function"
    },
    {
      "inputs": [
        {
          "internalType": "uint256",
          "name": "questId",
          "type": "uint256"
        }
      ],
      "name": "isQuestBountyEscrowed",
      "outputs": [
        {
          "internalType": "bool",
          "name": "",
          "type": "bool"
        }
      ],
      "stateMutability": "view",
      "type": "function"
    },
    {
      "inputs": [],
      "name": "paused",
      "outputs": [
        {
          "internalType": "bool",
          "name": "",
          "type": "bool"
        }
      ],
      "stateMutability": "view",
      "type": "function"
    },
    {
      "inputs": [
        {
          "internalType": "uint256",
          "name": "rewardId",
          "type": "uint256"
        }
      ],
      "name": "processReward",
      "outputs": [],
      "stateMutability": "nonpayable",
      "type": "function"
    },
    {
      "inputs": [
        {
          "internalType": "uint256",
          "name": "questId",
          "type": "uint256"
        }
      ],
      "name": "refundBounty",
      "outputs": [],
      "stateMutability": "nonpayable",
      "type": "function"
    },
    {
      "inputs": [
        {
          "internalType": "bytes32",
          "name": "role",
          "type": "bytes32"
        },
        {
          "internalType": "address",
          "name": "account",
          "type": "address"
        }
      ],
      "name": "renounceRole",
      "outputs": [],
      "stateMutability": "nonpayable",
      "type": "function"
    },
    {
      "inputs": [
        {
          "internalType": "bytes32",
          "name": "role",
          "type": "bytes32"
        },
        {
          "internalType": "address",
          "name": "account",
          "type": "address"
        }
      ],
      "name": "revokeRole",
      "outputs": [],
      "stateMutability": "nonpayable",
      "type": "function"
    },
    {
      "inputs": [
        {
          "internalType": "bytes4",
          "name": "interfaceId",
          "type": "bytes4"
        }
      ],
      "name": "supportsInterface",
      "outputs": [
        {
          "internalType": "bool",
          "name": "",
          "type": "bool"
        }
      ],
      "stateMutability": "view",
      "type": "function"
    },
    {
      "inputs": [
        {
          "internalType": "uint256",
          "name": "questId",
          "type": "uint256"
        },
        {
          "components": [
            {
              "internalType": "address",
              "name": "recipient",
              "type": "address"
            },
            {
              "internalType": "uint256",
              "name": "percentage",
              "type": "uint256"
            },
            {
              "internalType": "string",
              "name": "role",
              "type": "string"
            }
          ],
          "internalType": "struct IRewardManager.PaymentSplit[]",
          "name": "splits",
          "type": "tuple[]"
        }
      ],
      "name": "updatePaymentSplits",
      "outputs": [],
      "stateMutability": "nonpayable",
      "type": "function"
    }
  ],
  "bytecode": "0x60803461017557601f61334138819003918201601f19168301916001600160401b0383118484101761017a5780849260209460405283398101031261017557516001600160a01b0381169081900361017557600180556002805460ff1916905560fa600955336000908152600080516020613321833981519152602052604090205460ff1615610135575b336000908152600080516020613301833981519152602052604090205460ff16156100d3575b600a80546001600160a01b03191691909117905560405161315090816101918239f35b33600081815260008051602061330183398151915260205260408120805460ff1916600117905581907fa49807205ce4d355092ef5a8a18f56e8913cf4a201fbe287825b095693c21775906000805160206132e18339815191529080a46100b0565b33600081815260008051602061332183398151915260205260408120805460ff1916600117905581906000805160206132e18339815191528180a461008a565b600080fd5b634e487b7160e01b600052604160045260246000fdfe6080604052600436101561001257600080fd5b60003560e01c80630182ba9a1461224057806301ffc9a7146121ea578063078b0fb714612173578063120a2ce41461200257806313d7880314611e1f5780631c4b774b14611c6757806323107e1314610187578063248a9ca314611c3a5780632f2ff15d14611b7e57806336568abe14611aec57806337c8eb2f14611a905780634626716414611a605780634a4e3bd5146119cc57806351858e271461193957806353856f751461167857806358b1f29c1461140e5780635c975abb146113eb57806363c1660b1461139a57806372a43292146112de57806375b238fc146112a35780638fc8a8741461126f57806391d14854146112225780639372cc8a14610bb157806395ccea6714610af1578063a007c20914610a7c578063a217fddf14610a60578063b9e130591461067a578063d44f7b371461055b578063d547741f14610514578063de462189146104d9578063efaa2c8614610315578063f6ed20171461018c5763f934a7f71461018757600080fd5b61258d565b34610310576020366003190112610310576001600160a01b036101ad6122f0565b16600052600560205260406000206040518082602082945493848152019060005260206000209260005b8181106102f75750506101ec92500382612383565b600090815b8151811015610247576102048183612849565b51600052600460205260ff60046040600020015460a81c1661022581612525565b15610233575b6001016101f1565b9161023f600191612aae565b92905061022b565b50610251826123a4565b9161025f6040519384612383565b80835261026e601f19916123a4565b013660208401376000805b82518110156102e55761028c8184612849565b51600052600460205260ff60046040600020015460a81c166102ad81612525565b156102bb575b600101610279565b906102dd6001916102cc8486612849565b516102d78288612849565b52612aae565b9190506102b3565b604051806102f386826124eb565b0390f35b84548352600194850194869450602090930192016101d7565b600080fd5b3461031057602036600319011261031057600060e06040516103368161234c565b828152826020820152826040820152826060820152826080820152606060a08201528260c082015201526004356000526003602052604060002060405161037c8161234c565b8154815260018201546020820190815260028301546001600160a01b039081166040840190815260038501549091166060840190815260048501546080850190815260058601805494969394929390926103d5816123a4565b936103e36040519586612383565b818552602085019060005260206000206000915b838310610494575050505090600661047e939260a0880193845201549360c087019560ff86161515875260ff60e089019660081c161515865260405198899860208a525160208a015251604089015260018060a01b03905116606088015260018060a01b0390511660808701525160a08601525161010060c08601526101208501906125b2565b9151151560e08401525115156101008301520390f35b600360206001926040516104a781612368565b848060a01b03865416815284860154838201526104c6600287016129bb565b60408201528152019201920191906103f7565b346103105760003660031901126103105760206040517f565761453a53b464c4f4c24643fe6e1f4b3b449a9d33d0cc641976b8ab74093e8152f35b3461031057604036600319011261031057610559600435610533612306565b9061055461054f82600052600060205260016040600020015490565b612da4565b612de2565b005b34610310576020366003190112610310576105746122f0565b61057c612c8b565b7f565761453a53b464c4f4c24643fe6e1f4b3b449a9d33d0cc641976b8ab74093e60009081526020527f257455b38f1ec2a98f2bae14b737bac72b29034213935c22abb06ee3c42d3554546105d090612da4565b6001600160a01b03811660009081526000805160206130fb833981519152602052604090205460ff161561060057005b6001600160a01b031660008181526000805160206130fb83398151915260205260408120805460ff191660011790553391907f565761453a53b464c4f4c24643fe6e1f4b3b449a9d33d0cc641976b8ab74093e907f2f8788117e7eff1d82e926ec794901d17c78024a50270940304540a733656f0d9080a4005b6080366003190112610310576044356001600160a01b038116906004359060243590839003610310576106ab6122da565b3360009081526000805160206130fb83398151915260205260409020549093906106d79060ff1661268a565b6106df612ae6565b8115610a1b5782600052600360205260ff600660406000200154166109d6578061097f57813403610943575b610713612a5f565b60405161071f8161234c565b848152602080820185815260408084018681526001600160a01b03998a1660608601818152426080880190815260a08801988952600160c08901818152600060e08b018181528f825260039a8b905297902099518a559651908901559251600288018054918e166001600160a01b03199283161790559051958701805496909c16951694909417909955975160048401559251805191979291906005830190600160401b831161092d578154838355808410610870575b506020019060005260206000206000915b838310610852578a8a7f04d7ccae5a302d89b4124e4ba0c236ef3bfb70babcadd7b1da27e47c6ceee97260408c8c8c8c60068d019151151560ff8019845416911617825551151561ff0082549160081b169061ff00191617905582519182526020820152a360018055005b6003602082610864600194518661285d565b019201920191906107e7565b8060030290600382040361091757836003026003810485036109175783600052602060002091820191015b8181106108a857506107d6565b8060006003925560006001820155600281016108c48154612754565b90816108d3575b50500161089b565b81601f600093116001146108eb5750555b8d806108cb565b8183526020832061090791601f0160051c81019060010161278e565b80825281602081209155556108e4565b634e487b7160e01b600052601160045260246000fd5b634e487b7160e01b600052604160045260246000fd5b60405162461bcd60e51b8152602060048201526014602482015273125b98dbdc9c9958dd0811551208185b5bdd5b9d60621b6044820152606490fd5b341561070b5760405162461bcd60e51b815260206004820152602360248201527f455448206e6f7420616363657074656420666f7220746f6b656e20626f756e7460448201526269657360e81b6064820152608490fd5b60405162461bcd60e51b815260206004820152601760248201527f426f756e747920616c726561647920657363726f7765640000000000000000006044820152606490fd5b60405162461bcd60e51b815260206004820152601d60248201527f416d6f756e74206d7573742062652067726561746572207468616e20300000006044820152606490fd5b3461031057600036600319011261031057602060405160008152f35b34610310576020366003190112610310576004356000526006602052604060002060405190816020825491828152019160005260206000209060005b818110610adb576102f385610acf81870382612383565b604051918291826124eb565b8254845260209093019260019283019201610ab8565b3461031057604036600319011261031057610b0a6122f0565b60243590610b16612c8b565b6001600160a01b031680610b945760008080808560018060a01b03600a5416828215610b8b575bf115610b7f575b600a546040519283526001600160a01b0316917faaeda929aa102e867049528ec7cd2499e3a2f8846e736ae7935f234dfbf500d990602090a3005b6040513d6000823e3d90fd5b506108fc610b3d565b600a54610bac9083906001600160a01b031683612b3c565b610b44565b34610310576060366003190112610310576004356024356001600160401b038111610310573660238201121561031057806004013590610bf0826123a4565b91610bfe6040519384612383565b8083526024602084019160051b8301019136831161031057602401905b82821061120a575050506044356001600160401b03811161031057610c4490369060040161262d565b3360009081526000805160206130fb8339815191526020526040902054610c6d9060ff1661268a565b610c75612ae6565b826000526003602052610c9260ff600660406000200154166126c7565b826000526003602052610cb360ff60066040600020015460081c1615612708565b81518151036111cc578260005260036020526040600020916000926000935b8351851015610cfa57610cf2600191610ceb8787612849565b51906129ae565b940193610cd2565b8584916001840154106111875760005b845181101561117057610d1d8184612849565b51610d2b575b600101610d0a565b610d36600854612aae565b60088190556001600160a01b03610d4d8388612849565b511690610d5a8386612849565b51600287018054604051919284916001600160a01b031690610d7b84612330565b8284526020840191898352604085019788526060850191825260808501908152610e9560a08601916000835260c087016002815260e088019342855261010089019542875260409c8d98895199610dd2818c612383565b60138b5272145d595cdd08189bdd5b9d1e481c995dd85c99606a1b6020808d01919091526101208e019b8c5260006101408f018181529d8152600491829052919091209c518d55905160018d0155905160028c0180546001600160a01b039283166001600160a01b031991821617909155925160038d01559451908b01805491909516911617835551610e6481612525565b610e6d81612525565b825460ff60a01b191660a09190911b60ff60a01b161782555190610e9082612525565b61298a565b51600585015551600684015551805160078401916001600160401b03821161092d57610ec18354612754565b601f8111611133575b50602090601f83116001146110c8579180610f019260089695946000926110bd575b50508160011b916000199060031b1c19161790565b90555b519101556001600160a01b03610f1a858a612849565b51166000526005602052610f318284600020612abd565b846000526006602052610f478284600020612abd565b610f518487612849565b516001600160a01b03610f64868b612849565b511660009081526007602090815285822084546001600160a01b03168352905284902080549091610f94916129ae565b9055805485906001600160a01b0316878a82611065576000935083925082915081906001600160a01b0390610fca908a90612849565b5116610fd6898c612849565b519082821561105c575bf1156110515760019392917f06f5deb57144da4292f170fc0b7c4ff1481608666c154ed0360764eb11a0e807606087935b60008c611024898b8060a01b0392612849565b511696611031898d612849565b51928a8060a01b0390541681519384526020840152820152a49050610d23565b82513d6000823e3d90fd5b506108fc610fe0565b936110b87f06f5deb57144da4292f170fc0b7c4ff1481608666c154ed0360764eb11a0e807936060936110b18b809b9a98996110a960019e8f8060a01b0392612849565b511692612849565b5191612b3c565b611011565b015190508f80610eec565b90601f1983169184600052816000209260005b81811061111b575091600193918560089897969410611102575b505050811b019055610f04565b015160001960f88460031b161c191690558e80806110f5565b929360206001819287860151815501950193016110db565b61116090846000526020600020601f850160051c81019160208610611166575b601f0160051c019061278e565b8d610eca565b9091508190611153565b60068401805461ff00191661010017905560018055005b60405162461bcd60e51b815260206004820152601b60248201527f446973747269627574696f6e206578636565647320626f756e747900000000006044820152606490fd5b60405162461bcd60e51b8152602060048201526016602482015275082e4e4c2f2e640d8cadccee8d040dad2e6dac2e8c6d60531b6044820152606490fd5b602080916112178461231c565b815201910190610c1b565b346103105760403660031901126103105761123b612306565b600435600052600060205260406000209060018060a01b0316600052602052602060ff604060002054166040519015158152f35b34610310576020366003190112610310576004356000526003602052602060ff600660406000200154166040519015158152f35b346103105760003660031901126103105760206040517fa49807205ce4d355092ef5a8a18f56e8913cf4a201fbe287825b095693c217758152f35b34610310576020366003190112610310576004356001600160401b0381116103105761130e90369060040161262d565b3360009081526000805160206130fb83398151915260205260409020546113379060ff1661268a565b60005b81518110156105595761134d8183612849565b5190303b1561031057604051916313d7880360e01b8352600483015260008260248183305af1918215610b7f57600192611389575b500161133a565b600061139491612383565b83611382565b34610310576040366003190112610310576113b36122f0565b6113bb612306565b6001600160a01b039182166000908152600760209081526040808320949093168252928352819020549051908152f35b3461031057600036600319011261031057602060ff600254166040519015158152f35b34610310576020366003190112610310573360009081526000805160206130fb83398151915260205260409020546004359061144c9060ff1661268a565b611454612ae6565b80600052600360205261147160ff600660406000200154166126c7565b80600052600360205261149260ff60066040600020015460081c1615612708565b806000526003602052604060002090604051916114ae8361234c565b805483526001810154926020810193845260018060a01b03600283015416906040810191825260018060a01b03600384015416926060820193845260048101546080830152600581018054611502816123a4565b916115106040519384612383565b818352602083019060005260206000206000915b8383106116335750505050600660e09260ff9260a08601520154818116151560c085015260081c1615159101528260005260036020526000600660408220828155826001820155826002820155826003820155826004820155611589600582016127a5565b0155516001600160a01b0316806115fc5750600080808086518181156115f3575b3390f115610b7f5760207ff1ed347f033f54c0d6f1589c933d81b4256cf2f72a785106e3653a565f7433a2915b5193516040519081526001600160a01b0390941693a360018055005b506108fc6115aa565b7ff1ed347f033f54c0d6f1589c933d81b4256cf2f72a785106e3653a565f7433a29161162e6020928651903390612b3c565b6115d7565b6003602060019260405161164681612368565b848060a01b0386541681528486015483820152611665600287016129bb565b6040820152815201920192019190611524565b346103105760e036600319011261031057600435611694612306565b9061169d6122da565b906084359160058310156103105760a4356001600160401b038111610310576116ca9036906004016123d6565b3360009081526000805160206130fb83398151915260205260409020549094906116f69060ff1661268a565b611701600854612aae565b93846008556040519161171383612330565b858352602083018581526001600160a01b0391821660408501818152604435606087019081529690931660808601908152909591936117ed919060a087019061175b81612525565b8152600060c088018181524260e08a019081526101008a018381526101208b019e8f5260c4356101408c019081528e85526004602081905260409095209b518c55995160018c0155975160028b0180546001600160a01b039283166001600160a01b031991821617909155975160038c01559451928a01805493909516929096169190911783559051610e6481612525565b5160058401555160068301556007820195519586516001600160401b03811161092d5760209761181d8354612754565b601f8111611909575b508890601f831160011461189f57918061185b9260089695946000926118945750508160011b916000199060031b1c19161790565b90555b5191015560005260058352611877826040600020612abd565b6000526006825261188c816040600020612abd565b604051908152f35b015190508b80610eec565b90601f1983169184600052816000209260005b8181106118f25750916001939185600898979694106118d9575b505050811b01905561185e565b015160001960f88460031b161c191690558a80806118cc565b92938c6001819287860151815501950193016118b2565b61193390846000528a600020601f850160051c8101918c861061116657601f0160051c019061278e565b89611826565b3461031057600036600319011261031057611952612c8b565b60025460ff81166119945760019060ff1916176002557f62e78cea01bee320cd4e420270b5ea74000d11b0c9f74754ebdbfc544b05a2586020604051338152a1005b60405162461bcd60e51b815260206004820152601060248201526f14185d5cd8589b194e881c185d5cd95960821b6044820152606490fd5b34610310576000366003190112610310576119e5612c8b565b60025460ff811615611a245760ff19166002557f5db9ee0a495bf2e6ff9c91a7834c1ba4fdd244a5e8aa4e537bd38aeae4b073aa6020604051338152a1005b60405162461bcd60e51b815260206004820152601460248201527314185d5cd8589b194e881b9bdd081c185d5cd95960621b6044820152606490fd5b34610310576000366003190112610310576102f3611a7c612a5f565b6040519182916020835260208301906125b2565b346103105760203660031901126103105760043580600052600360205260ff6006604060002001541680611acc575b6020906040519015158152f35b506000526003602052602060ff60066040600020015460081c1615611abf565b3461031057604036600319011261031057611b05612306565b336001600160a01b03821603611b215761055990600435612de2565b60405162461bcd60e51b815260206004820152602f60248201527f416363657373436f6e74726f6c3a2063616e206f6e6c792072656e6f756e636560448201526e103937b632b9903337b91039b2b63360891b6064820152608490fd5b3461031057604036600319011261031057600435611b9a612306565b90611bb661054f82600052600060205260016040600020015490565b6000818152602081815260408083206001600160a01b038616845290915290205460ff1615611be157005b6000818152602081815260408083206001600160a01b0395909516808452949091528120805460ff19166001179055339291907f2f8788117e7eff1d82e926ec794901d17c78024a50270940304540a733656f0d9080a4005b3461031057602036600319011261031057602061188c600435600052600060205260016040600020015490565b34610310576020366003190112610310576000610140604051611c8981612330565b8281528260208201528260408201528260608201528260808201528260a08201528260c08201528260e0820152826101008201526060610120820152015260043560005260046020526040600020604051611ce381612330565b8154815260018201546020820190815260028301546001600160a01b039081166040840190815260038501546060850190815260048601549283166080860190815293959193611e139360a08088019160ff9181901c8216611d4481612525565b835260a81c169060c0880191611d5981612525565b825260058501549260e089019384526006860154946101008a019586526008611d84600789016129bb565b976101208c019889520154986101408b01998a526040519b8c9b60208d525160208d01525160408c015260018060a01b0390511660608b01525160808a015260018060a01b0390511660a089015251611ddc81612525565b60c088015251611deb81612525565b60e0870152516101008601525161012085015251610160610140850152610180840190612568565b90516101608301520390f35b34610310576020366003190112610310573360009081526000805160206130fb833981519152602052604090205460043590611e5d9060ff1661268a565b611e65612ae6565b8060005260046020526040600020906004820190815460ff8160a81c16611e8b81612525565b611fc85760ff60a81b198116600160a81b1783556001600160a01b031680611fa45750600080808060018060a01b03600288015416600388015490828215611f9b575bf115610b7f575b7f06f5deb57144da4292f170fc0b7c4ff1481608666c154ed0360764eb11a0e8076060835493600160a91b60ff60a81b1986161781554260068701556001600387019687546002820197838060a01b038954166000526007602052604060002090848060a01b0390858060a01b031616600052602052611f5b60406000209182546129ae565b905501549454955490546040519182526001600160a01b038181166020840152969096169560a01c60ff16611f8f81612525565b6040820152a460018055005b506108fc611ece565b60028401546003850154611fc39290916001600160a01b031690612b3c565b611ed5565b60405162461bcd60e51b8152602060048201526012602482015271526577617264206e6f742070656e64696e6760701b6044820152606490fd5b34610310576040366003190112610310576004356024356001600160401b0381116103105761203590369060040161241d565b3360009081526000805160206130fb83398151915260205260409020549091906120619060ff1661268a565b80600052600360205261207e60ff600660406000200154166126c7565b80600052600360205261209f60ff60066040600020015460081c1615612708565b8060005260036020526120b860056040600020016127a5565b60005b8251811015612134578160005260036020526005604060002001906120e08185612849565b5191805492600160401b84101561092d576001840180835584101561211e57600193612118926000526003602060002091020161285d565b016120bb565b634e487b7160e01b600052603260045260246000fd5b507f5443ace4812a56a0afb4566542425876e780bbb09fd130657806e24cd04a4d2f61216e836040519182916020835260208301906125b2565b0390a2005b34610310576020366003190112610310576001600160a01b036121946122f0565b166000526005602052604060002060405190816020825491828152019160005260206000209060005b8181106121d4576102f385610acf81870382612383565b82548452602090930192600192830192016121bd565b346103105760203660031901126103105760043563ffffffff60e01b811680910361031057602090637965db0b60e01b811490811561222f575b506040519015158152f35b6301ffc9a760e01b14905082612224565b346103105760a0366003190112610310576122596122da565b506084356001600160401b0381116103105761227990369060040161241d565b503360009081526000805160206130fb83398151915260205260409020546122a39060ff1661268a565b60405162461bcd60e51b815260206004820152600f60248201526e139bdd081a5b5c1b195b595b9d1959608a1b6044820152606490fd5b606435906001600160a01b038216820361031057565b600435906001600160a01b038216820361031057565b602435906001600160a01b038216820361031057565b35906001600160a01b038216820361031057565b61016081019081106001600160401b0382111761092d57604052565b61010081019081106001600160401b0382111761092d57604052565b606081019081106001600160401b0382111761092d57604052565b90601f801991011681019081106001600160401b0382111761092d57604052565b6001600160401b03811161092d5760051b60200190565b6001600160401b03811161092d57601f01601f191660200190565b81601f82011215610310578035906123ed826123bb565b926123fb6040519485612383565b8284526020838301011161031057816000926020809301838601378301015290565b9080601f8301121561031057813591612435836123a4565b926124436040519485612383565b80845260208085019160051b830101918383116103105760208101915b83831061246f57505050505090565b82356001600160401b038111610310578201906060828703601f190112610310576040519061249d82612368565b6124a96020840161231c565b8252604083013560208301526060830135916001600160401b038311610310576124db886020809695819601016123d6565b6040820152815201920191612460565b602060408183019282815284518094520192019060005b81811061250f5750505090565b8251845260209384019390920191600101612502565b6005111561252f57565b634e487b7160e01b600052602160045260246000fd5b60005b8381106125585750506000910152565b8181015183820152602001612548565b9060209161258181518092818552858086019101612545565b601f01601f1916010190565b34610310576020366003190112610310576125a66122f0565b50602060405160008152f35b9080602083519182815201916020808360051b8301019401926000915b8383106125de57505050505090565b909192939460208061261e600193601f19868203018752606060408b51878060a01b03815116845285810151868501520151918160408201520190612568565b970193019301919392906125cf565b9080601f83011215610310578135612644816123a4565b926126526040519485612383565b81845260208085019260051b82010192831161031057602001905b82821061267a5750505090565b813581526020918201910161266d565b1561269157565b60405162461bcd60e51b815260206004820152600e60248201526d139bdd08185d5d1a1bdc9a5e995960921b6044820152606490fd5b156126ce57565b60405162461bcd60e51b8152602060048201526012602482015271139bc8189bdd5b9d1e48195cd8dc9bddd95960721b6044820152606490fd5b1561270f57565b60405162461bcd60e51b815260206004820152601a60248201527f426f756e747920616c72656164792064697374726962757465640000000000006044820152606490fd5b90600182811c92168015612784575b602083101461276e57565b634e487b7160e01b600052602260045260246000fd5b91607f1691612763565b818110612799575050565b6000815560010161278e565b80549060008155816127b5575050565b8160030291600383040361091757600090815260208120918201915b8281106127dd57505050565b80826003925582600182015582600282016127f88154612754565b80612807575b505050016127d1565b601f811160011461281d5750555b8238806127fe565b8183526020832061283991601f0160051c81019060010161278e565b8082528160208120915555612815565b805182101561211e5760209160051b010190565b815181546001600160a01b0319166001600160a01b039190911617815560208201516001820155604091909101518051909291600201906001600160401b03811161092d576128ac8254612754565b601f8111612958575b506020601f82116001146128f65781906128e79394956000926128eb5750508160011b916000199060031b1c19161790565b9055565b015190503880610eec565b601f1982169083600052806000209160005b81811061294057509583600195969710612927575b505050811b019055565b015160001960f88460031b161c1916905538808061291d565b9192602060018192868b015181550194019201612908565b61298490836000526020600020601f840160051c8101916020851061116657601f0160051c019061278e565b386128b5565b9061299481612525565b815460ff60a81b191660a89190911b60ff60a81b16179055565b9190820180921161091757565b90604051918260008254926129cf84612754565b8084529360018116908115612a3d57506001146129f6575b506129f492500383612383565b565b90506000929192526020600020906000915b818310612a215750509060206129f492820101386129e7565b6020919350806001915483858901015201910190918492612a08565b9050602092506129f494915060ff191682840152151560051b820101386129e7565b60405190612a6e602083612383565b600080835282815b828110612a8257505050565b602090604051612a9181612368565b600081526000838201526060604082015282828501015201612a76565b60001981146109175760010190565b805490600160401b82101561092d576001820180825582101561211e5760005260206000200155565b600260015414612af7576002600155565b60405162461bcd60e51b815260206004820152601f60248201527f5265656e7472616e637947756172643a207265656e7472616e742063616c6c006044820152606490fd5b60405163a9059cbb60e01b602082019081526001600160a01b0390931660248201526044808201949094529283529091612bf391612b7b606483612383565b60018060a01b0316600080604095865194612b968887612383565b602086527f5361666545524332303a206c6f772d6c6576656c2063616c6c206661696c65646020870152519082855af13d15612c83573d91612bd7836123bb565b92612be487519485612383565b83523d6000602085013e613061565b8051908115918215612c60575b505015612c0a5750565b5162461bcd60e51b815260206004820152602a60248201527f5361666545524332303a204552433230206f7065726174696f6e20646964206e6044820152691bdd081cdd58d8d9595960b21b6064820152608490fd5b819250906020918101031261031057602001518015158103610310573880612c00565b606091613061565b3360009081527f7d7ffb7a348e1c6a02869081a26547b49160dd3df72d1d75a570eb9b698292ec602052604090205460ff1615612cc457565b612da0612cd033612e75565b612d806011612cfe7fa49807205ce4d355092ef5a8a18f56e8913cf4a201fbe287825b095693c21775612fb5565b9260376040519485927f416363657373436f6e74726f6c3a206163636f756e74200000000000000000006020850152612d408151809260208688019101612545565b83017001034b99036b4b9b9b4b733903937b6329607d1b83820152612d6f825180936020604885019101612545565b01010301601f198101835282612383565b60405162461bcd60e51b8152602060048201529182916024830190612568565b0390fd5b60008181526020818152604080832033845290915290205460ff1615612dc75750565b612da090612d806011612cfe612ddc33612e75565b93612fb5565b6000818152602081815260408083206001600160a01b038616845290915290205460ff16612e0e575050565b6000818152602081815260408083206001600160a01b0395909516808452949091528120805460ff19169055339291907ff6391f5c32d9c69d2a47ea670b442974b53935d1edc7fd64eb21e047a839171b9080a4565b90815181101561211e570160200190565b600090612e82602a6123bb565b91612e906040519384612383565b602a8352612e9e602a6123bb565b6020840190601f1901368237835115612fa15760309053825160011015612f8d576078602184015350602960005b60018211612f21575050612edd5790565b606460405162461bcd60e51b815260206004820152602060248201527f537472696e67733a20686578206c656e67746820696e73756666696369656e746044820152fd5b9091600f81166010811015612f79576f181899199a1a9b1b9c1cb0b131b232b360811b901a612f508486612e64565b5360041c918015612f65576000190190612ecc565b634e487b7160e01b82526011600452602482fd5b634e487b7160e01b83526032600452602483fd5b634e487b7160e01b81526032600452602490fd5b634e487b7160e01b82526032600452602482fd5b600090612fc260426123bb565b91612fd06040519384612383565b60428352612fde60426123bb565b6020840190601f1901368237835115612fa15760309053825160011015612f8d576078602184015350604160005b6001821161301d575050612edd5790565b9091600f81166010811015612f79576f181899199a1a9b1b9c1cb0b131b232b360811b901a61304c8486612e64565b5360041c918015612f6557600019019061300c565b919290156130c35750815115613075575090565b3b1561307e5790565b60405162461bcd60e51b815260206004820152601d60248201527f416464726573733a2063616c6c20746f206e6f6e2d636f6e74726163740000006044820152606490fd5b8251909150156130d65750805190602001fd5b60405162461bcd60e51b815260206004820152908190612da090602483019061256856fe257455b38f1ec2a98f2bae14b737bac72b29034213935c22abb06ee3c42d3553a264697066735822122027d36a1a32e159de9603db720a0eb6f98c0cf861ac199ad65624a26e34d9d07564736f6c634300081c00332f8788117e7eff1d82e926ec794901d17c78024a50270940304540a733656f0d7d7ffb7a348e1c6a02869081a26547b49160dd3df72d1d75a570eb9b698292ecad3228b676f7d3cd4284a5443f17f1962b36e491b30a40b2405849e597ba5fb5",
  "linkReferences": {},
  "deployedLinkReferences": {}
}