{
  "_format": "hh-sol-artifact-1",
  "contractName": "QuestBoard",
  "sourceName": "contracts/QuestBoard.sol",
  "abi": [
    {
      "inputs": [
        {
          "internalType": "address",
          "name": "_userProfile",
          "type": "address"
        },
        {
          "internalType": "address",
          "name": "_rewardManager",
          "type": "address"
        },
        {
          "internalType": "address",
          "name": "platformFeeRecipient_",
          "type": "address"
        }
      ],
      "stateMutability": "nonpayable",
      "type": "constructor"
    },
    {
      "anonymous": false,
      "inputs": [
        {
          "indexed": true,
          "internalType": "uint256",
          "name": "questId",
          "type": "uint256"
        },
        {
          "indexed": true,
          "internalType": "address",
          "name": "participant",
          "type": "address"
        }
      ],
      "name": "ParticipantJoined",
      "type": "event"
    },
    {
      "anonymous": false,
      "inputs": [
        {
          "indexed": true,
          "internalType": "uint256",
          "name": "questId",
          "type": "uint256"
        },
        {
          "indexed": true,
          "internalType": "address",
          "name": "participant",
          "type": "address"
        }
      ],
      "name": "ParticipantLeft",
      "type": "event"
    },
    {
      "anonymous": false,
      "inputs": [
        {
          "indexed": false,
          "internalType": "address",
          "name": "account",
          "type": "address"
        }
      ],
      "name": "Paused",
      "type": "event"
    },
    {
      "anonymous": false,
      "inputs": [
        {
          "indexed": false,
          "internalType": "address",
          "name": "newRecipient",
          "type": "address"
        }
      ],
      "name": "PlatformFeeRecipientUpdated",
      "type": "event"
    },
    {
      "anonymous": false,
      "inputs": [
        {
          "indexed": false,
          "internalType": "uint256",
          "name": "newFeePercentage",
          "type": "uint256"
        }
      ],
      "name": "PlatformFeeUpdated",
      "type": "event"
    },
    {
      "anonymous": false,
      "inputs": [
        {
          "indexed": true,
          "internalType": "uint256",
          "name": "questId",
          "type": "uint256"
        },
        {
          "indexed": false,
          "internalType": "string",
          "name": "reason",
          "type": "string"
        }
      ],
      "name": "QuestCancelled",
      "type": "event"
    },
    {
      "anonymous": false,
      "inputs": [
        {
          "indexed": true,
          "internalType": "uint256",
          "name": "questId",
          "type": "uint256"
        },
        {
          "indexed": false,
          "internalType": "address[]",
          "name": "winners",
          "type": "address[]"
        }
      ],
      "name": "QuestCompleted",
      "type": "event"
    },
    {
      "anonymous": false,
      "inputs": [
        {
          "indexed": true,
          "internalType": "uint256",
          "name": "questId",
          "type": "uint256"
        },
        {
          "indexed": true,
          "internalType": "address",
          "name": "creator",
          "type": "address"
        },
        {
          "indexed": false,
          "internalType": "string",
          "name": "title",
          "type": "string"
        },
        {
          "indexed": false,
          "internalType": "string",
          "name": "description",
          "type": "string"
        },
        {
          "indexed": false,
          "internalType": "string",
          "name": "metadataURI",
          "type": "string"
        },
        {
          "indexed": false,
          "internalType": "enum IQuestBoard.QuestType",
          "name": "questType",
          "type": "uint8"
        },
        {
          "indexed": false,
          "internalType": "uint256",
          "name": "bountyAmount",
          "type": "uint256"
        },
        {
          "indexed": false,
          "internalType": "address",
          "name": "bountyToken",
          "type": "address"
        },
        {
          "indexed": false,
          "internalType": "uint256",
          "name": "maxParticipants",
          "type": "uint256"
        },
        {
          "indexed": false,
          "internalType": "uint256",
          "name": "maxCollaborators",
          "type": "uint256"
        },
        {
          "indexed": false,
          "internalType": "uint256",
          "name": "submissionDeadline",
          "type": "uint256"
        },
        {
          "indexed": false,
          "internalType": "uint256",
          "name": "reviewDeadline",
          "type": "uint256"
        },
        {
          "indexed": false,
          "internalType": "bool",
          "name": "requiresApproval",
          "type": "bool"
        },
        {
          "indexed": false,
          "internalType": "string[]",
          "name": "tags",
          "type": "string[]"
        },
        {
          "components": [
            {
              "internalType": "string[]",
              "name": "skillsRequired",
              "type": "string[]"
            },
            {
              "internalType": "uint256",
              "name": "minReputation",
              "type": "uint256"
            },
            {
              "internalType": "bool",
              "name": "kycRequired",
              "type": "bool"
            },
            {
              "internalType": "string[]",
              "name": "allowedFileTypes",
              "type": "string[]"
            },
            {
              "internalType": "uint256",
              "name": "maxFileSize",
              "type": "uint256"
            }
          ],
          "indexed": false,
          "internalType": "struct IQuestBoard.QuestRequirements",
          "name": "requirements",
          "type": "tuple"
        }
      ],
      "name": "QuestCreated",
      "type": "event"
    },
    {
      "anonymous": false,
      "inputs": [
        {
          "indexed": true,
          "internalType": "uint256",
          "name": "questId",
          "type": "uint256"
        },
        {
          "indexed": false,
          "internalType": "enum IQuestBoard.QuestStatus",
          "name": "status",
          "type": "uint8"
        }
      ],
      "name": "QuestUpdated",
      "type": "event"
    },
    {
      "anonymous": false,
      "inputs": [
        {
          "indexed": true,
          "internalType": "bytes32",
          "name": "role",
          "type": "bytes32"
        },
        {
          "indexed": true,
          "internalType": "bytes32",
          "name": "previousAdminRole",
          "type": "bytes32"
        },
        {
          "indexed": true,
          "internalType": "bytes32",
          "name": "newAdminRole",
          "type": "bytes32"
        }
      ],
      "name": "RoleAdminChanged",
      "type": "event"
    },
    {
      "anonymous": false,
      "inputs": [
        {
          "indexed": true,
          "internalType": "bytes32",
          "name": "role",
          "type": "bytes32"
        },
        {
          "indexed": true,
          "internalType": "address",
          "name": "account",
          "type": "address"
        },
        {
          "indexed": true,
          "internalType": "address",
          "name": "sender",
          "type": "address"
        }
      ],
      "name": "RoleGranted",
      "type": "event"
    },
    {
      "anonymous": false,
      "inputs": [
        {
          "indexed": true,
          "internalType": "bytes32",
          "name": "role",
          "type": "bytes32"
        },
        {
          "indexed": true,
          "internalType": "address",
          "name": "account",
          "type": "address"
        },
        {
          "indexed": true,
          "internalType": "address",
          "name": "sender",
          "type": "address"
        }
      ],
      "name": "RoleRevoked",
      "type": "event"
    },
    {
      "anonymous": false,
      "inputs": [
        {
          "indexed": false,
          "internalType": "address",
          "name": "account",
          "type": "address"
        }
      ],
      "name": "Unpaused",
      "type": "event"
    },
    {
      "inputs": [],
      "name": "ADMIN_ROLE",
      "outputs": [
        {
          "internalType": "bytes32",
          "name": "",
          "type": "bytes32"
        }
      ],
      "stateMutability": "view",
      "type": "function"
    },
    {
      "inputs": [],
      "name": "DEFAULT_ADMIN_ROLE",
      "outputs": [
        {
          "internalType": "bytes32",
          "name": "",
          "type": "bytes32"
        }
      ],
      "stateMutability": "view",
      "type": "function"
    },
    {
      "inputs": [],
      "name": "MODERATOR_ROLE",
      "outputs": [
        {
          "internalType": "bytes32",
          "name": "",
          "type": "bytes32"
        }
      ],
      "stateMutability": "view",
      "type": "function"
    },
    {
      "inputs": [
        {
          "internalType": "uint256",
          "name": "questId",
          "type": "uint256"
        },
        {
          "internalType": "address",
          "name": "participant",
          "type": "address"
        }
      ],
      "name": "approveParticipant",
      "outputs": [],
      "stateMutability": "nonpayable",
      "type": "function"
    },
    {
      "inputs": [
        {
          "internalType": "uint256",
          "name": "questId",
          "type": "uint256"
        },
        {
          "internalType": "string",
          "name": "reason",
          "type": "string"
        }
      ],
      "name": "cancelQuest",
      "outputs": [],
      "stateMutability": "nonpayable",
      "type": "function"
    },
    {
      "inputs": [
        {
          "internalType": "string",
          "name": "title",
          "type": "string"
        },
        {
          "internalType": "string",
          "name": "description",
          "type": "string"
        },
        {
          "internalType": "string",
          "name": "metadataURI",
          "type": "string"
        },
        {
          "internalType": "enum IQuestBoard.QuestType",
          "name": "questType",
          "type": "uint8"
        },
        {
          "internalType": "uint256",
          "name": "bountyAmount",
          "type": "uint256"
        },
        {
          "internalType": "address",
          "name": "bountyToken",
          "type": "address"
        },
        {
          "internalType": "uint256",
          "name": "maxParticipants",
          "type": "uint256"
        },
        {
          "internalType": "uint256",
          "name": "maxCollaborators",
          "type": "uint256"
        },
        {
          "internalType": "uint256",
          "name": "submissionDeadline",
          "type": "uint256"
        },
        {
          "internalType": "uint256",
          "name": "reviewDeadline",
          "type": "uint256"
        },
        {
          "internalType": "bool",
          "name": "requiresApproval",
          "type": "bool"
        },
        {
          "internalType": "string[]",
          "name": "tags",
          "type": "string[]"
        },
        {
          "components": [
            {
              "internalType": "string[]",
              "name": "skillsRequired",
              "type": "string[]"
            },
            {
              "internalType": "uint256",
              "name": "minReputation",
              "type": "uint256"
            },
            {
              "internalType": "bool",
              "name": "kycRequired",
              "type": "bool"
            },
            {
              "internalType": "string[]",
              "name": "allowedFileTypes",
              "type": "string[]"
            },
            {
              "internalType": "uint256",
              "name": "maxFileSize",
              "type": "uint256"
            }
          ],
          "internalType": "struct IQuestBoard.QuestRequirements",
          "name": "requirements",
          "type": "tuple"
        }
      ],
      "name": "createQuest",
      "outputs": [
        {
          "internalType": "uint256",
          "name": "questId",
          "type": "uint256"
        }
      ],
      "stateMutability": "payable",
      "type": "function"
    },
    {
      "inputs": [
        {
          "internalType": "address",
          "name": "token",
          "type": "address"
        },
        {
          "internalType": "uint256",
          "name": "amount",
          "type": "uint256"
        }
      ],
      "name": "emergencyWithdraw",
      "outputs": [],
      "stateMutability": "nonpayable",
      "type": "function"
    },
    {
      "inputs": [],
      "name": "getActiveQuests",
      "outputs": [
        {
          "internalType": "uint256[]",
          "name": "",
          "type": "uint256[]"
        }
      ],
      "stateMutability": "view",
      "type": "function"
    },
    {
      "inputs": [
        {
          "internalType": "uint256",
          "name": "questId",
          "type": "uint256"
        }
      ],
      "name": "getQuest",
      "outputs": [
        {
          "components": [
            {
              "internalType": "uint256",
              "name": "id",
              "type": "uint256"
            },
            {
              "internalType": "address",
              "name": "creator",
              "type": "address"
            },
            {
              "internalType": "string",
              "name": "title",
              "type": "string"
            },
            {
              "internalType": "string",
              "name": "description",
              "type": "string"
            },
            {
              "internalType": "string",
              "name": "metadataURI",
              "type": "string"
            },
            {
              "internalType": "enum IQuestBoard.QuestType",
              "name": "questType",
              "type": "uint8"
            },
            {
              "internalType": "enum IQuestBoard.QuestStatus",
              "name": "status",
              "type": "uint8"
            },
            {
              "internalType": "uint256",
              "name": "bountyAmount",
              "type": "uint256"
            },
            {
              "internalType": "address",
              "name": "bountyToken",
              "type": "address"
            },
            {
              "internalType": "uint256",
              "name": "maxParticipants",
              "type": "uint256"
            },
            {
              "internalType": "uint256",
              "name": "currentParticipants",
              "type": "uint256"
            },
            {
              "internalType": "uint256",
              "name": "maxCollaborators",
              "type": "uint256"
            },
            {
              "internalType": "uint256",
              "name": "submissionDeadline",
              "type": "uint256"
            },
            {
              "internalType": "uint256",
              "name": "reviewDeadline",
              "type": "uint256"
            },
            {
              "internalType": "uint256",
              "name": "createdAt",
              "type": "uint256"
            },
            {
              "internalType": "uint256",
              "name": "updatedAt",
              "type": "uint256"
            },
            {
              "internalType": "bool",
              "name": "requiresApproval",
              "type": "bool"
            },
            {
              "internalType": "string[]",
              "name": "tags",
              "type": "string[]"
            }
          ],
          "internalType": "struct IQuestBoard.Quest",
          "name": "",
          "type": "tuple"
        }
      ],
      "stateMutability": "view",
      "type": "function"
    },
    {
      "inputs": [
        {
          "internalType": "uint256",
          "name": "questId",
          "type": "uint256"
        }
      ],
      "name": "getQuestParticipants",
      "outputs": [
        {
          "internalType": "address[]",
          "name": "",
          "type": "address[]"
        }
      ],
      "stateMutability": "view",
      "type": "function"
    },
    {
      "inputs": [
        {
          "internalType": "uint256",
          "name": "questId",
          "type": "uint256"
        }
      ],
      "name": "getQuestRequirements",
      "outputs": [
        {
          "components": [
            {
              "internalType": "string[]",
              "name": "skillsRequired",
              "type": "string[]"
            },
            {
              "internalType": "uint256",
              "name": "minReputation",
              "type": "uint256"
            },
            {
              "internalType": "bool",
              "name": "kycRequired",
              "type": "bool"
            },
            {
              "internalType": "string[]",
              "name": "allowedFileTypes",
              "type": "string[]"
            },
            {
              "internalType": "uint256",
              "name": "maxFileSize",
              "type": "uint256"
            }
          ],
          "internalType": "struct IQuestBoard.QuestRequirements",
          "name": "",
          "type": "tuple"
        }
      ],
      "stateMutability": "view",
      "type": "function"
    },
    {
      "inputs": [
        {
          "internalType": "address",
          "name": "creator",
          "type": "address"
        }
      ],
      "name": "getQuestsByCreator",
      "outputs": [
        {
          "internalType": "uint256[]",
          "name": "",
          "type": "uint256[]"
        }
      ],
      "stateMutability": "view",
      "type": "function"
    },
    {
      "inputs": [
        {
          "internalType": "string",
          "name": "tag",
          "type": "string"
        }
      ],
      "name": "getQuestsByTag",
      "outputs": [
        {
          "internalType": "uint256[]",
          "name": "",
          "type": "uint256[]"
        }
      ],
      "stateMutability": "view",
      "type": "function"
    },
    {
      "inputs": [
        {
          "internalType": "bytes32",
          "name": "role",
          "type": "bytes32"
        }
      ],
      "name": "getRoleAdmin",
      "outputs": [
        {
          "internalType": "bytes32",
          "name": "",
          "type": "bytes32"
        }
      ],
      "stateMutability": "view",
      "type": "function"
    },
    {
      "inputs": [],
      "name": "getTotalQuests",
      "outputs": [
        {
          "internalType": "uint256",
          "name": "",
          "type": "uint256"
        }
      ],
      "stateMutability": "view",
      "type": "function"
    },
    {
      "inputs": [
        {
          "internalType": "bytes32",
          "name": "role",
          "type": "bytes32"
        },
        {
          "internalType": "address",
          "name": "account",
          "type": "address"
        }
      ],
      "name": "grantRole",
      "outputs": [],
      "stateMutability": "nonpayable",
      "type": "function"
    },
    {
      "inputs": [
        {
          "internalType": "bytes32",
          "name": "role",
          "type": "bytes32"
        },
        {
          "internalType": "address",
          "name": "account",
          "type": "address"
        }
      ],
      "name": "hasRole",
      "outputs": [
        {
          "internalType": "bool",
          "name": "",
          "type": "bool"
        }
      ],
      "stateMutability": "view",
      "type": "function"
    },
    {
      "inputs": [
        {
          "internalType": "uint256",
          "name": "questId",
          "type": "uint256"
        },
        {
          "internalType": "address",
          "name": "user",
          "type": "address"
        }
      ],
      "name": "isParticipant",
      "outputs": [
        {
          "internalType": "bool",
          "name": "",
          "type": "bool"
        }
      ],
      "stateMutability": "view",
      "type": "function"
    },
    {
      "inputs": [
        {
          "internalType": "uint256",
          "name": "questId",
          "type": "uint256"
        }
      ],
      "name": "joinQuest",
      "outputs": [],
      "stateMutability": "nonpayable",
      "type": "function"
    },
    {
      "inputs": [
        {
          "internalType": "uint256",
          "name": "questId",
          "type": "uint256"
        }
      ],
      "name": "leaveQuest",
      "outputs": [],
      "stateMutability": "nonpayable",
      "type": "function"
    },
    {
      "inputs": [],
      "name": "pause",
      "outputs": [],
      "stateMutability": "nonpayable",
      "type": "function"
    },
    {
      "inputs": [
        {
          "internalType": "uint256",
          "name": "questId",
          "type": "uint256"
        }
      ],
      "name": "pauseQuest",
      "outputs": [],
      "stateMutability": "nonpayable",
      "type": "function"
    },
    {
      "inputs": [],
      "name": "paused",
      "outputs": [
        {
          "internalType": "bool",
          "name": "",
          "type": "bool"
        }
      ],
      "stateMutability": "view",
      "type": "function"
    },
    {
      "inputs": [
        {
          "internalType": "uint256",
          "name": "questId",
          "type": "uint256"
        },
        {
          "internalType": "address",
          "name": "participant",
          "type": "address"
        }
      ],
      "name": "rejectParticipant",
      "outputs": [],
      "stateMutability": "nonpayable",
      "type": "function"
    },
    {
      "inputs": [
        {
          "internalType": "bytes32",
          "name": "role",
          "type": "bytes32"
        },
        {
          "internalType": "address",
          "name": "account",
          "type": "address"
        }
      ],
      "name": "renounceRole",
      "outputs": [],
      "stateMutability": "nonpayable",
      "type": "function"
    },
    {
      "inputs": [
        {
          "internalType": "uint256",
          "name": "questId",
          "type": "uint256"
        }
      ],
      "name": "resumeQuest",
      "outputs": [],
      "stateMutability": "nonpayable",
      "type": "function"
    },
    {
      "inputs": [
        {
          "internalType": "bytes32",
          "name": "role",
          "type": "bytes32"
        },
        {
          "internalType": "address",
          "name": "account",
          "type": "address"
        }
      ],
      "name": "revokeRole",
      "outputs": [],
      "stateMutability": "nonpayable",
      "type": "function"
    },
    {
      "inputs": [],
      "name": "rewardManager",
      "outputs": [
        {
          "internalType": "contract IRewardManager",
          "name": "",
          "type": "address"
        }
      ],
      "stateMutability": "view",
      "type": "function"
    },
    {
      "inputs": [
        {
          "internalType": "uint256",
          "name": "feePercentage",
          "type": "uint256"
        }
      ],
      "name": "setPlatformFee",
      "outputs": [],
      "stateMutability": "nonpayable",
      "type": "function"
    },
    {
      "inputs": [
        {
          "internalType": "address",
          "name": "recipient",
          "type": "address"
        }
      ],
      "name": "setPlatformFeeRecipient",
      "outputs": [],
      "stateMutability": "nonpayable",
      "type": "function"
    },
    {
      "inputs": [
        {
          "internalType": "bytes4",
          "name": "interfaceId",
          "type": "bytes4"
        }
      ],
      "name": "supportsInterface",
      "outputs": [
        {
          "internalType": "bool",
          "name": "",
          "type": "bool"
        }
      ],
      "stateMutability": "view",
      "type": "function"
    },
    {
      "inputs": [],
      "name": "unpause",
      "outputs": [],
      "stateMutability": "nonpayable",
      "type": "function"
    },
    {
      "inputs": [
        {
          "internalType": "uint256",
          "name": "questId",
          "type": "uint256"
        },
        {
          "internalType": "string",
          "name": "title",
          "type": "string"
        },
        {
          "internalType": "string",
          "name": "description",
          "type": "string"
        },
        {
          "internalType": "string",
          "name": "metadataURI",
          "type": "string"
        }
      ],
      "name": "updateQuest",
      "outputs": [],
      "stateMutability": "nonpayable",
      "type": "function"
    },
    {
      "inputs": [
        {
          "internalType": "uint256",
          "name": "questId",
          "type": "uint256"
        },
        {
          "internalType": "enum IQuestBoard.QuestStatus",
          "name": "status",
          "type": "uint8"
        }
      ],
      "name": "updateQuestStatus",
      "outputs": [],
      "stateMutability": "nonpayable",
      "type": "function"
    },
    {
      "inputs": [],
      "name": "userProfile",
      "outputs": [
        {
          "internalType": "contract IUserProfile",
          "name": "",
          "type": "address"
        }
      ],
      "stateMutability": "view",
      "type": "function"
    }
  ],
  "bytecode": "0x6080346101b157601f61402c38819003918201601f19168301916001600160401b038311848410176101b6578084926060946040528339810103126101b157610047816101cc565b906100606040610059602084016101cc565b92016101cc565b600180556002805460ff1916905560fa600b5533600090815260008051602061400c833981519152602052604090205490929060ff1615610171575b336000908152600080516020613fec833981519152602052604090205460ff161561010f575b600d80546001600160a01b03199081166001600160a01b0393841617909155600e8054821693831693909317909255600c80549092169216919091179055604051613deb90816101e18239f35b336000818152600080516020613fec83398151915260205260408120805460ff1916600117905581907fa49807205ce4d355092ef5a8a18f56e8913cf4a201fbe287825b095693c2177590600080516020613fcc8339815191529080a46100c2565b33600081815260008051602061400c83398151915260205260408120805460ff191660011790558190600080516020613fcc8339815191528180a461009c565b600080fd5b634e487b7160e01b600052604160045260246000fd5b51906001600160a01b03821682036101b15756fe608080604052600436101561001357600080fd5b600090813560e01c90816301ffc9a714612f6757508063029a8c5814612e2e5780630b38584714612d325780630f4ef8a614612d0957806312e8e2c314612c745780631871e24314612bc3578063248a9ca314612b8d5780632a5de35014612b645780632f2ff15d14612aa657806336568abe14612a135780633f4ba83a1461297e57806349f86f34146126705780635c975abb1461264d5780635e2dd16d1461252e5780637122ff31146122ed57806373cd25a014612208578063758d9b891461219d57806375b238fc1461216257806378ff2bda14611dcd578063797669c914611d925780637a175f4014611cde5780637bfc595614611c405780637fc573d214611c2257806381d6b0d814611bb057806382327a58146119b85780638456cb591461195d578063888db6601461185657806391d148541461180b57806395ccea67146117855780639d92cb871461138c578063a217fddf14611370578063b99abb5e14611299578063d2716bba1461028b578063d547741f146102425763f67c3b6a146101a257600080fd5b3461023f57602036600319011261023f576004356001600160401b03811161023d576101d460209136906004016130f8565b919082604051938492833781016009815203019020604051918260208354918281520192825260208220915b818110610227576102238561021781870382613197565b60405191829182612fbc565b0390f35b8254845260209093019260019283019201610200565b505b80fd5b503461023f57604036600319011261023f57610288600435610262613011565b9061028361027e82600052600060205260016040600020015490565b613851565b61388f565b80f35b506101a036600319011261023f576004356001600160401b03811161023d576102b89036906004016130f8565b916024356001600160401b03811161023d576102d89036906004016130f8565b6044356001600160401b038111611295576102f79036906004016130f8565b600360643510156112915760a435936001600160a01b038516850361128d5761014435938415158503611289576001600160401b0361016435116112895736602361016435011215611289576001600160401b0361016435600401351161128957366024610164356004013560051b61016435010111611289576001600160401b0361018435116112895760a06101843536036003190112611289576002600154146112445760026001556103aa6139da565b881561120757426101043511156111c2576101043561012435111561117d5760c4351561113857600d5460405163a787c80b60e01b815233600482015290602090829060249082906001600160a01b03165afa90811561112d5788916110fe575b50156110b95761041c600a54613125565b9788600a55608435610ebc575b6040516104358161314a565b898152336020820152610449368c846134e1565b60408201526104593684866134e1565b60608201526104693686886134e1565b608082015261047d60643560a0830161334f565b600160c082015260843560e08201526001600160a01b03881661010082015260c435610120820152610140810189905260e43561016082015261010435610180820152610124356101a0820152426101c082018190526101e08201528615156102008201526104f260046101643501356131b8565b6104ff6040519182613197565b6101643560048101358252602401602082015b6024610164356004013560051b6101643501018210610e70575050610220820152898952600360209081526040808b2083518155918301516001830180546001600160a01b0319166001600160a01b039290921691909117905582015180519192916001600160401b038111610d855761059c816105936002870154613271565b60028701613481565b6020918c601f8311600114610e02576105cc93909183610c7d575b50508160011b916000199060031b1c19161790565b60028301555b606081015180516001600160401b038111610d8557610601816105f86003870154613271565b60038701613481565b60208c601f8311600114610d99579061062e9383610c7d5750508160011b916000199060031b1c19161790565b60038301555b608081015180516001600160401b038111610d85576106638161065a6004870154613271565b60048701613481565b60208c601f8311600114610d1c57906106909383610c7d5750508160011b916000199060031b1c19161790565b60048301555b60a08101516003811015610d085760ff8019600585015416911617600583015560c08101516005811015610d0857906106d56102209260058501613252565b60e081015160068401556101008101516007840180546001600160a01b039092166001600160a01b031990921691909117905561012081015160088401556101408101516009840155610160810151600a840155610180810151600b8401556101a0810151600c8401556101c0810151600d8401556101e0810151600e840155610200810151600f8401805460ff191691151560ff169190911790550151906010602083519361078785848601613518565b0191018a5260208a208a915b838310610c0e57505050508888526004602052604088206107c061018435600401610184356004016135b0565b906107cb8284613518565b828b5260208b208b91805b848410610b375750505050506101843560248101356001830155604401358015159003610b335761081d6044610184350135600283019060ff801983541691151516179055565b61083360646101843501610184356004016135b0565b906108418260038501613518565b600383018b5260208b208b91805b848410610a3657505050505060046084610184350135910155338852600860205261087d8960408a20613645565b875b61016435600401358110156108d2576001906108cc8b60206108b260248560051b610164350101602461016435016135e5565b919082604051938492833781016009815203019020613645565b0161087f565b509461093d6101a095610a169561092f6109aa968d9b9660209f7f9db3f26ae95790d24bcc40f8ac0d44ddd874f46ddfa70e862983ee9987eeddbb9c610921916040519d8e81815201916133cb565b918b830360208d01526133cb565b9188830360408a01526133cb565b9161094d6060870160643561306f565b60843560808701526001600160a01b031660a086015260c43560c086015260e43560e0860152610104356101008601526101243561012086015215156101408501528381036101608501526101643560048101359060240161367a565b828103610180840152946109d56109c76004610184350180613704565b60a0895260a089019161367a565b9060246101843501358988015250604461018435013515156040870152610a086064610184350161018435600401613704565b90878303606089015261367a565b93608060846101843501359101528033940390a360018055604051908152f35b610a4081836135e5565b906001600160401b038211610b1e578f90610a6583610a5f8854613271565b88613481565b81601f8411600114610ab4578360019592946020948796610a9a9492610aa95750508160011b916000199060031b1c19161790565b86555b0193019301929161084f565b0135905038806105b7565b91601f19841687845260208420935b818110610b065750936020936001969387969383889510610aec575b505050811b018655610a9d565b0135600019600384901b60f8161c19169055388080610adf565b91936020600181928787013581550195019201610ac3565b50634e487b7160e01b8f52604160045260248ffd5b8880fd5b610b4181836135e5565b906001600160401b038211610b1e578f90610b6083610a5f8854613271565b81601f8411600114610ba4578360019592946020948796610b959492610aa95750508160011b916000199060031b1c19161790565b86555b019301930192916107d6565b91601f19841687845260208420935b818110610bf65750936020936001969387969383889510610bdc575b505050811b018655610b98565b0135600019600384901b60f8161c19169055388080610bcf565b91936020600181928787013581550195019201610bb3565b80518051906001600160401b038211610cf4578d90610c3783610c318754613271565b87613481565b602091601f8411600114610c88578360019592946020948796610c6e9492610c7d5750508160011b916000199060031b1c19161790565b85555b01920192019190610793565b0151905038806105b7565b9190858352818320925b601f1985168110610cdc575083602093600196938796938794601f19811610610cc3575b505050811b018555610c71565b015160001960f88460031b161c19169055388080610cb6565b91926020600181928685015181550194019201610c92565b634e487b7160e01b8e52604160045260248efd5b634e487b7160e01b8b52602160045260248bfd5b9192601f198416600487018452828420935b818110610d6d5750908460019594939210610d54575b505050811b016004830155610696565b015160001960f88460031b161c19169055388080610d44565b92936020600181928786015181550195019301610d2e565b634e487b7160e01b8c52604160045260248cfd5b9192601f198416600387018452828420935b818110610dea5750908460019594939210610dd1575b505050811b016003830155610634565b015160001960f88460031b161c19169055388080610dc1565b92936020600181928786015181550195019301610dab565b5091600285018d52808d20908d935b601f1984168510610e55576001945083601f19811610610e3c575b505050811b0160028301556105d2565b015160001960f88460031b161c19169055388080610e2c565b81810151835560209485019460019093019290910190610e11565b6001600160401b03823511610eb8578135610164350136604382011215610eb457602091610ea9839236906044602482013591016134e1565b815201910190610512565b8c80fd5b8b80fd5b6001600160a01b038716610f9b576084353403610f5f57600e546001600160a01b0316803b15610b335760405163b9e1305960e01b8152600481018b905260848035602483018190526001600160a01b038b16604484015233606484015291928b928492918391905af18015610f5457908991610f3b575b5050610429565b81610f4591613197565b610f50578738610f34565b8780fd5b6040513d8b823e3d90fd5b60405162461bcd60e51b8152602060048201526014602482015273125b98dbdc9c9958dd0811551208185b5bdd5b9d60621b6044820152606490fd5b3461106857610fe56040516323b872dd60e01b6020820152336024820152306044820152608435606482015260648152610fd6608482613197565b6001600160a01b038916613a1e565b600e5461100390608435906001600160a01b03908116908a1661399a565b600e546001600160a01b0316803b15610b335760405163b9e1305960e01b8152600481018b90526084803560248301526001600160a01b038a16604483015233606483015290918a918391829084905af18015610f5457908991610f3b575050610429565b60405162461bcd60e51b815260206004820152602360248201527f455448206e6f7420616363657074656420666f7220746f6b656e20626f756e7460448201526269657360e81b6064820152608490fd5b60405162461bcd60e51b815260206004820152601b60248201527f43726561746f72206d757374206861766520612070726f66696c6500000000006044820152606490fd5b611120915060203d602011611126575b6111188183613197565b8101906133b3565b3861040b565b503d61110e565b6040513d8a823e3d90fd5b60405162461bcd60e51b815260206004820152601c60248201527f4d6178207061727469636970616e7473206d757374206265203e2030000000006044820152606490fd5b60405162461bcd60e51b815260206004820152601760248201527f496e76616c69642072657669657720646561646c696e650000000000000000006044820152606490fd5b60405162461bcd60e51b815260206004820152601b60248201527f496e76616c6964207375626d697373696f6e20646561646c696e6500000000006044820152606490fd5b60405162461bcd60e51b81526020600482015260156024820152745469746c652063616e6e6f7420626520656d70747960581b6044820152606490fd5b60405162461bcd60e51b815260206004820152601f60248201527f5265656e7472616e637947756172643a207265656e7472616e742063616c6c006044820152606490fd5b8680fd5b8580fd5b8480fd5b8380fd5b503461023f57602036600319011261023f5760043580151580611364575b6112c0906131cf565b8152600560205260408120604051908160208254918281520190819285526020852090855b81811061134557505050826112fb910383613197565b604051928392602084019060208552518091526040840192915b818110611323575050500390f35b82516001600160a01b0316845285945060209384019390920191600101611315565b82546001600160a01b03168452602090930192600192830192016112e5565b50600a548111156112b7565b503461023f578060031936011261023f57602090604051908152f35b503461023f57608036600319011261023f576004356024356001600160401b038111611781576113c09036906004016130f8565b906044356001600160401b038111611291576113e09036906004016130f8565b906064356001600160401b038111611289576114009036906004016130f8565b91909286151580611775575b611415906131cf565b868852600360205261143760018060a01b03600160408b20015416331461320e565b86885260036020526040882094600586019660ff885460081c166005811015610d0857801590811561176a575b50156117175760028701916001600160401b038211611703576114918261148b8554613271565b85613481565b8a90601f831160011461169f576114bf92918c9183610aa95750508160011b916000199060031b1c19161790565b90555b60038501916001600160401b03821161168b576114e38261148b8554613271565b8890601f83116001146116275761151192918a9183610aa95750508160011b916000199060031b1c19161790565b90555b60048301916001600160401b038211611613576115358261148b8554613271565b8690601f8311600114611599579261157a83600080516020613d9683398151915297946020979460ff978c92610aa95750508160011b916000199060031b1c19161790565b90555b600e429101555460081c166115956040518092613092565ba280f35b8388526020882091601f198416895b8181106115fb5750936020969360ff969360019383600080516020613d968339815191529b98106115e1575b505050811b01905561157d565b0135600019600384901b60f8161c191690553880806115d4565b919360206001819287870135815501950192016115a8565b634e487b7160e01b87526041600452602487fd5b838a5260208a2091601f1984168b5b8181106116735750908460019594939210611659575b505050811b019055611514565b0135600019600384901b60f8161c1916905538808061164c565b91936020600181928787013581550195019201611636565b634e487b7160e01b89526041600452602489fd5b838c5260208c2091601f1984168d5b8181106116eb57509084600195949392106116d1575b505050811b0190556114c2565b0135600019600384901b60f8161c191690553880806116c4565b919360206001819287870135815501950192016116ae565b634e487b7160e01b8b52604160045260248bfd5b60405162461bcd60e51b815260206004820152602560248201527f43616e6e6f742075706461746520717565737420696e2063757272656e742073604482015264746174757360d81b6064820152608490fd5b600191501438611464565b50600a5487111561140c565b8280fd5b503461023f57604036600319011261023f57806117a0612ff6565b602435906117ac613738565b6001600160a01b0316806117f45750600c54829182918291906001600160a01b03168282156117eb575bf1156117df5780f35b604051903d90823e3d90fd5b506108fc6117d6565b600c5461028893506001600160a01b03169061399a565b503461023f57604036600319011261023f576040611827613011565b91600435815280602052209060018060a01b0316600052602052602060ff604060002054166040519015158152f35b503461023f57602036600319011261023f57604061192591600435816080845161187f8161317c565b606081528260208201528286820152606080820152015280151580611951575b6118a8906131cf565b8152600460205220604051906118bd8261317c565b6118c68161335b565b825261194660018201546020840190815260ff6002840154169260408501931515845260046118f76003830161335b565b916060870192835201549360808601948552604051968796602088525160a0602089015260c088019061309f565b92516040870152511515606086015251848203601f1901608086015261309f565b905160a08301520390f35b50600a5481111561189f565b503461023f578060031936011261023f57611976613738565b61197e6139da565b600160ff1960025416176002557f62e78cea01bee320cd4e420270b5ea74000d11b0c9f74754ebdbfc544b05a2586020604051338152a180f35b503461023f57602036600319011261023f5760043580151580611ba4575b6119df906131cf565b808252600660209081526040808420336000908152925290205460ff1615611b6b5780825260056020526040822090825b825480821015611b6257611a248285613617565b905460039190911b1c6001600160a01b03163314611a455750600101611a10565b9192916000198101908111611b4e5790611a7e611a65611aa29385613617565b905460039190911b1c6001600160a01b03169184613617565b81546001600160a01b0393841660039290921b91821b9390911b1916919091179055565b80548015611b3a576000190190611ab98282613617565b81549060018060a01b039060031b1b19169055555b80825260066020526040822060018060a01b033316600052602052604060002060ff198154169055808252600360205260096040832001611b0f815461398d565b905533907f30ebfca8d8c33a64628fc8395fa0f6c5ab0ed13bd4c8cc489ccf5c73c40e6b0d8380a380f35b634e487b7160e01b84526031600452602484fd5b634e487b7160e01b85526011600452602485fd5b50509050611ace565b60405162461bcd60e51b8152602060048201526011602482015270139bdd0818481c185c9d1a58da5c185b9d607a1b6044820152606490fd5b50600a548111156119d6565b503461023f57602036600319011261023f576001600160a01b03611bd2612ff6565b168152600860205260408120604051918260208354918281520192825260208220915b818110611c0c576102238561021781870382613197565b8254845260209093019260019283019201611bf5565b503461023f578060031936011261023f576020600a54604051908152f35b503461023f57602036600319011261023f5760043580151580611cd2575b611c67906131cf565b8082526003602052611c8960018060a01b03600160408520015416331461320e565b80825260036020526005604083200161020061ff0019825416179055808252600360205242600e604084200155600080516020613d96833981519152602060405160028152a280f35b50600a54811115611c5e565b503461023f57604036600319011261023f57600435611cfb613011565b9080151580611d86575b611d0e906131cf565b8083526003602052611d3060018060a01b03600160408620015416331461320e565b80835260076020526040832060018060a01b038316600052602052611d5c60ff604060002054166133ec565b82526007602052604082209060018060a01b0316600052602052604060002060ff19815416905580f35b50600a54811115611d05565b503461023f578060031936011261023f5760206040517f71f3d55856e4058ed06ee057d79ada615f65cdf5f9ee88181b914225088f834f8152f35b503461023f57602036600319011261023f5760043580151580612156575b611df4906131cf565b808252600360205260ff600560408420015460081c1660058110156121425760010361210a5780825260036020908152604080842083855260068352818520336000908152935291205460ff166120cd57611e58600982015460088301541161342e565b600b81015442101561208857600d5460405163a787c80b60e01b81523360048201526001600160a01b0390911690602081602481855afa908115612023578591612069575b501561202e5782845260046020526040842090604051611ebc8161317c565b611ec58361335b565b8152608060046001850154946020840195865260ff60028201541615156040850152611ef36003820161335b565b606085015201549101528151611f6f575b5050600f015460ff1615611f605780825260076020908152604080842033600090815292529020805460ff191660011790555b33907f7dd8cb04159701bc1976c246434d7d96812782e7489e6c5c34db49a388fe9e808380a380f35b611f6a3382613911565b611f37565b9060206024926040519384809263baccbfdb60e01b82523360048301525afa918215612023578592611fef575b505111611faa573880611f04565b60405162461bcd60e51b815260206004820152601760248201527f496e73756666696369656e742072657075746174696f6e0000000000000000006044820152606490fd5b9091506020813d60201161201b575b8161200b60209383613197565b8101031261129157519038611f9c565b3d9150611ffe565b6040513d87823e3d90fd5b60405162461bcd60e51b81526020600482015260136024820152724d757374206861766520612070726f66696c6560681b6044820152606490fd5b612082915060203d602011611126576111188183613197565b38611e9d565b60405162461bcd60e51b815260206004820152601a60248201527f5375626d697373696f6e20646561646c696e65207061737365640000000000006044820152606490fd5b60405162461bcd60e51b8152602060048201526015602482015274105b1c9958591e4818481c185c9d1a58da5c185b9d605a1b6044820152606490fd5b60405162461bcd60e51b815260206004820152601060248201526f5175657374206e6f742061637469766560801b6044820152606490fd5b634e487b7160e01b83526021600452602483fd5b50600a54811115611deb565b503461023f578060031936011261023f5760206040517fa49807205ce4d355092ef5a8a18f56e8913cf4a201fbe287825b095693c217758152f35b503461023f57604036600319011261023f576040600435916121bd613011565b92801515806121fc575b6121d0906131cf565b81526006602052209060018060a01b0316600052602052602060ff604060002054166040519015158152f35b50600a548111156121c7565b503461023f57604036600319011261023f57610288600435612228613011565b90801515806122e1575b61223b906131cf565b808452600360205261225d60018060a01b03600160408720015416331461320e565b80845260076020526040842060018060a01b03831660005260205261228960ff604060002054166133ec565b80845260036020526122b26009604086200154828652600360205260086040872001541161342e565b8084526007602090815260408086206001600160a01b038516600090815292529020805460ff19169055613911565b50600a54811115612232565b503461023f57604036600319011261023f576004356024356001600160401b038111611781576123219036906004016130f8565b82151580612522575b612333906131cf565b828452600360205261235560018060a01b03600160408720015416331461320e565b828452600360205260408420600581019060ff825460081c16600581101561250e5760018114908115612503575b50156124c857815461ff0019166104001790915542600e82015560060154151580612467575b6123ee575b907f557465cc43bd23a6456dc4c4d969b80f05e9e8bc76f95781ff4d5a4a904d4fd1916123e86040519283926020845260208401916133cb565b0390a280f35b600e5484906001600160a01b0316803b1561023d57819060246040518094819363162c7ca760e21b83528960048401525af1801561202357612431575b506123ae565b9361245f817f557465cc43bd23a6456dc4c4d969b80f05e9e8bc76f95781ff4d5a4a904d4fd1949396613197565b93909161242b565b50600e546040516323f22a1d60e21b81526004810185905290602090829060249082906001600160a01b03165afa9081156120235785916124a9575b506123a9565b6124c2915060203d602011611126576111188183613197565b386124a3565b60405162461bcd60e51b815260206004820152601360248201527210d85b9b9bdd0818d85b98d95b081c5d595cdd606a1b6044820152606490fd5b600291501438612383565b634e487b7160e01b87526021600452602487fd5b50600a5483111561232a565b503461023f57604036600319011261023f5760043560243560058110156117815781151580612641575b612561906131cf565b818352600360205261258360018060a01b03600160408620015416331461320e565b81835260036020526040832090600582019060ff825460081c16600581101561262d5760038114159081612621575b50156125e757600080516020613d96833981519152926125d482602094613252565b600e429101556115956040518092613092565b60405162461bcd60e51b8152602060048201526012602482015271145d595cdd081a5cc8199a5b985b1a5e995960721b6044820152606490fd5b600491501415386125b2565b634e487b7160e01b86526021600452602486fd5b50600a54821115612558565b503461023f578060031936011261023f57602060ff600254166040519015158152f35b503461023f57602036600319011261023f5760043560606102206040516126968161314a565b84815284602082015282604082015282808201528260808201528460a08201528460c08201528460e08201528461010082015284610120820152846101408201528461016082015284610180820152846101a0820152846101c0820152846101e082015284610200820152015280151580612972575b612715906131cf565b8152600360205260408120906040519061272e8261314a565b8254825260018301546001600160a01b03166020830152612751600284016132ab565b6040830152612762600384016132ab565b6060830152612773600484016132ab565b608083015260ff600584015461278e82821660a0860161334f565b60081c1690600582101561295e575060c0820152600682015460e082015260078201546001600160a01b031661010082015260088201546101208201526009820154610140820152600a820154610160820152600b820154610180820152600c8201546101a0820152600d8201546101c0820152600e8201546101e0820152600f82015460ff1615156102008201526102239161282d9060100161335b565b610220820152604051918291602083528051602084015260018060a01b0360208201511660408401526102206128a661289061287a6040850151610240606089015261026088019061304a565b6060850151878203601f1901608089015261304a565b6080840151868203601f190160a088015261304a565b916128b960a082015160c087019061306f565b6128cb60c082015160e0870190613092565b60e081015161010086015260018060a01b03610100820151166101208601526101208101516101408601526101408101516101608601526101608101516101808601526101808101516101a08601526101a08101516101c08601526101c08101516101e08601526101e08101516102008601526102008101511515828601520151601f198483030161024085015261309f565b634e487b7160e01b81526021600452602490fd5b50600a5481111561270c565b503461023f578060031936011261023f57612997613738565b60025460ff8116156129d75760ff19166002557f5db9ee0a495bf2e6ff9c91a7834c1ba4fdd244a5e8aa4e537bd38aeae4b073aa6020604051338152a180f35b60405162461bcd60e51b815260206004820152601460248201527314185d5cd8589b194e881b9bdd081c185d5cd95960621b6044820152606490fd5b503461023f57604036600319011261023f57612a2d613011565b336001600160a01b03821603612a49576102889060043561388f565b60405162461bcd60e51b815260206004820152602f60248201527f416363657373436f6e74726f6c3a2063616e206f6e6c792072656e6f756e636560448201526e103937b632b9903337b91039b2b63360891b6064820152608490fd5b503461023f57604036600319011261023f57600435612ac3613011565b90612adf61027e82600052600060205260016040600020015490565b808352602083815260408085206001600160a01b038516865290915283205460ff1615612b0a578280f35b808352602083815260408085206001600160a01b0394909416808652939091528320805460ff191660011790553391907f2f8788117e7eff1d82e926ec794901d17c78024a50270940304540a733656f0d8480a438808280f35b503461023f578060031936011261023f57600d546040516001600160a01b039091168152602090f35b503461023f57602036600319011261023f576020612bbb600435600052600060205260016040600020015490565b604051908152f35b503461023f57602036600319011261023f57612bdd612ff6565b612be5613738565b6001600160a01b03168015612c3b576020817fba887708e7d4436dd36b62187bdced03e0b9abe66caf392a66dd84386641b209926bffffffffffffffffffffffff60a01b600c541617600c55604051908152a180f35b60405162461bcd60e51b8152602060048201526011602482015270125b9d985b1a59081c9958da5c1a595b9d607a1b6044820152606490fd5b503461023f57602036600319011261023f57600435612c91613738565b6103e88111612ccc576020817f45610d581145924dd7090a5017e5f2b1d6f42213bb2e95707ff86846bbfcb1ca92600b55604051908152a180f35b60405162461bcd60e51b81526020600482015260156024820152744665652063616e6e6f74206578636565642031302560581b6044820152606490fd5b503461023f578060031936011261023f57600e546040516001600160a01b039091168152602090f35b503461023f57602036600319011261023f5760043580151580612e22575b612d59906131cf565b8082526003602052612d7b60018060a01b03600160408520015416331461320e565b808252600360205260ff600560408420015460081c16600581101561214257600203612dea5780825260036020526005604083200161010061ff0019825416179055808252600360205242600e604084200155600080516020613d96833981519152602060405160018152a280f35b60405162461bcd60e51b815260206004820152601060248201526f145d595cdd081b9bdd081c185d5cd95960821b6044820152606490fd5b50600a54811115612d50565b503461023f578060031936011261023f57806001600a54905b81811115612f095750612e59826131b8565b91612e676040519384613197565b808352612e76601f19916131b8565b013660208401378260015b82811115612e9757604051806102238682612fbc565b808252600360205260ff600560408420015460081c16600581101561214257600114612ecc575b612ec790613125565b612e81565b938351811015612ef557612eed81866020612ec79460051b88010152613125565b949050612ebe565b634e487b7160e01b82526032600452602482fd5b808452600360205260ff600560408620015460081c166005811015612f5357600114612f3e575b612f3990613125565b612e47565b91612f4b612f3991613125565b929050612f30565b634e487b7160e01b85526021600452602485fd5b90503461023d57602036600319011261023d5760043563ffffffff60e01b81168091036117815760209250637965db0b60e01b8114908115612fab575b5015158152f35b6301ffc9a760e01b14905038612fa4565b602060408183019282815284518094520192019060005b818110612fe05750505090565b8251845260209384019390920191600101612fd3565b600435906001600160a01b038216820361300c57565b600080fd5b602435906001600160a01b038216820361300c57565b60005b83811061303a5750506000910152565b818101518382015260200161302a565b9060209161306381518092818552858086019101613027565b601f01601f1916010190565b90600382101561307c5752565b634e487b7160e01b600052602160045260246000fd5b90600582101561307c5752565b9080602083519182815201916020808360051b8301019401926000915b8383106130cb57505050505090565b90919293946020806130e9600193601f19868203018752895161304a565b970193019301919392906130bc565b9181601f8401121561300c578235916001600160401b03831161300c576020838186019501011161300c57565b60001981146131345760010190565b634e487b7160e01b600052601160045260246000fd5b61024081019081106001600160401b0382111761316657604052565b634e487b7160e01b600052604160045260246000fd5b60a081019081106001600160401b0382111761316657604052565b90601f801991011681019081106001600160401b0382111761316657604052565b6001600160401b0381116131665760051b60200190565b156131d657565b60405162461bcd60e51b815260206004820152601060248201526f125b9d985b1a59081c5d595cdd08125160821b6044820152606490fd5b1561321557565b60405162461bcd60e51b81526020600482015260156024820152742737ba103a34329038bab2b9ba1031b932b0ba37b960591b6044820152606490fd5b90600581101561307c5761ff0082549160081b169061ff001916179055565b90600182811c921680156132a1575b602083101461328b57565b634e487b7160e01b600052602260045260246000fd5b91607f1691613280565b90604051918260008254926132bf84613271565b808452936001811690811561332d57506001146132e6575b506132e492500383613197565b565b90506000929192526020600020906000915b8183106133115750509060206132e492820101386132d7565b60209193508060019154838589010152019101909184926132f8565b9050602092506132e494915060ff191682840152151560051b820101386132d7565b600382101561307c5752565b908154613367816131b8565b926133756040519485613197565b818452602084019060005260206000206000915b8383106133965750505050565b6001602081926133a5856132ab565b815201920192019190613389565b9081602091031261300c5751801515810361300c5790565b908060209392818452848401376000828201840152601f01601f1916010190565b156133f357565b60405162461bcd60e51b8152602060048201526013602482015272139bc81c195b991a5b99c8185c1c1c9bdd985b606a1b6044820152606490fd5b1561343557565b60405162461bcd60e51b815260206004820152600d60248201526c145d595cdd081a5cc8199d5b1b609a1b6044820152606490fd5b818110613475575050565b6000815560010161346a565b9190601f811161349057505050565b6132e4926000526020600020906020601f840160051c830193106134bc575b601f0160051c019061346a565b90915081906134af565b6001600160401b03811161316657601f01601f191660200190565b9291926134ed826134c6565b916134fb6040519384613197565b82948184528183011161300c578281602093846000960137010152565b90600160401b81116131665781549181815582821061353657505050565b600052602060002091820191015b81811061354f575050565b8061355c60019254613271565b80613569575b5001613544565b601f8111831461357f5750600081555b38613562565b61359d908260005283601f6020600020920160051c8201910161346a565b8060005260006020812081835555613579565b903590601e198136030182121561300c57018035906001600160401b03821161300c57602001918160051b3603831361300c57565b903590601e198136030182121561300c57018035906001600160401b03821161300c5760200191813603831361300c57565b805482101561362f5760005260206000200190600090565b634e487b7160e01b600052603260045260246000fd5b8054600160401b8110156131665761366291600182018155613617565b819291549060031b91821b91600019901b1916179055565b90602083828152019060208160051b85010193836000915b8383106136a25750505050505090565b909192939495601f198282030186526000873590601e198536030182121561023f5750830190602082359201916001600160401b03811161300c57803603831361300c576136f660209283926001956133cb565b980196019493019190613692565b9035601e198236030181121561300c5701602081359101916001600160401b03821161300c578160051b3603831361300c57565b3360009081527f7d7ffb7a348e1c6a02869081a26547b49160dd3df72d1d75a570eb9b698292ec602052604090205460ff161561377157565b61384d61377d33613b42565b61382d60116137ab7fa49807205ce4d355092ef5a8a18f56e8913cf4a201fbe287825b095693c21775613c5a565b9260376040519485927f416363657373436f6e74726f6c3a206163636f756e742000000000000000000060208501526137ed8151809260208688019101613027565b83017001034b99036b4b9b9b4b733903937b6329607d1b8382015261381c825180936020604885019101613027565b01010301601f198101835282613197565b60405162461bcd60e51b815260206004820152918291602483019061304a565b0390fd5b60008181526020818152604080832033845290915290205460ff16156138745750565b61384d9061382d60116137ab61388933613b42565b93613c5a565b6000818152602081815260408083206001600160a01b038616845290915290205460ff166138bb575050565b6000818152602081815260408083206001600160a01b0395909516808452949091528120805460ff19169055339291907ff6391f5c32d9c69d2a47ea670b442974b53935d1edc7fd64eb21e047a839171b9080a4565b9081600052600560205260406000208054600160401b81101561316657611a7e816139429360018694018155613617565b81600052600660205260406000209060018060a01b03166000526020526040600020600160ff19825416179055600052600360205260096040600020016139898154613125565b9055565b8015613134576000190190565b60405163a9059cbb60e01b60208201526001600160a01b0390921660248301526044808301939093529181526132e4916139d5606483613197565b613a1e565b60ff600254166139e657565b60405162461bcd60e51b815260206004820152601060248201526f14185d5cd8589b194e881c185d5cd95960821b6044820152606490fd5b604080519092613aa2926001600160a01b0316906000908190613a418786613197565b602085527f5361666545524332303a206c6f772d6c6576656c2063616c6c206661696c6564602086015260208151910182855af13d15613b29573d91613a86836134c6565b92613a9387519485613197565b83523d6000602085013e613cfc565b8051908115918215613b0f575b505015613ab95750565b5162461bcd60e51b815260206004820152602a60248201527f5361666545524332303a204552433230206f7065726174696f6e20646964206e6044820152691bdd081cdd58d8d9595960b21b6064820152608490fd5b613b2292506020809183010191016133b3565b3880613aaf565b606091613cfc565b90815181101561362f570160200190565b600090613b4f602a6134c6565b91613b5d6040519384613197565b602a8352613b6b602a6134c6565b6020840190601f1901368237835115612ef55760309053825160011015613c46576078602184015350602960005b60018211613bee575050613baa5790565b606460405162461bcd60e51b815260206004820152602060248201527f537472696e67733a20686578206c656e67746820696e73756666696369656e746044820152fd5b9091600f81166010811015613c3257613c2c91906f181899199a1a9b1b9c1cb0b131b232b360811b901a613c228587613b31565b5360041c9261398d565b90613b99565b634e487b7160e01b83526032600452602483fd5b634e487b7160e01b81526032600452602490fd5b600090613c6760426134c6565b91613c756040519384613197565b60428352613c8360426134c6565b6020840190601f1901368237835115612ef55760309053825160011015613c46576078602184015350604160005b60018211613cc2575050613baa5790565b9091600f81166010811015613c3257613cf691906f181899199a1a9b1b9c1cb0b131b232b360811b901a613c228587613b31565b90613cb1565b91929015613d5e5750815115613d10575090565b3b15613d195790565b60405162461bcd60e51b815260206004820152601d60248201527f416464726573733a2063616c6c20746f206e6f6e2d636f6e74726163740000006044820152606490fd5b825190915015613d715750805190602001fd5b60405162461bcd60e51b81526020600482015290819061384d90602483019061304a56fea780ec3d294dc3ef34c85968ec4fbd947384f2a389ca11cabef81869e40cd1d2a264697066735822122088b7a9d9de6d404afc389ea92aca779dd524f7ee88a7abd1c5eaf65918b9e3d764736f6c634300081c00332f8788117e7eff1d82e926ec794901d17c78024a50270940304540a733656f0d7d7ffb7a348e1c6a02869081a26547b49160dd3df72d1d75a570eb9b698292ecad3228b676f7d3cd4284a5443f17f1962b36e491b30a40b2405849e597ba5fb5",
  "linkReferences": {},
  "deployedLinkReferences": {}
}