{
  "_format": "hh-sol-artifact-1",
  "contractName": "SubmissionManager",
  "sourceName": "contracts/SubmissionManager.sol",
  "abi": [
    {
      "inputs": [
        {
          "internalType": "address",
          "name": "_questBoard",
          "type": "address"
        },
        {
          "internalType": "address",
          "name": "_userProfile",
          "type": "address"
        },
        {
          "internalType": "address",
          "name": "_collaborationManager",
          "type": "address"
        },
        {
          "internalType": "address",
          "name": "_rewardManager",
          "type": "address"
        }
      ],
      "stateMutability": "nonpayable",
      "type": "constructor"
    },
    {
      "anonymous": false,
      "inputs": [
        {
          "indexed": false,
          "internalType": "address",
          "name": "account",
          "type": "address"
        }
      ],
      "name": "Paused",
      "type": "event"
    },
    {
      "anonymous": false,
      "inputs": [
        {
          "indexed": true,
          "internalType": "bytes32",
          "name": "role",
          "type": "bytes32"
        },
        {
          "indexed": true,
          "internalType": "bytes32",
          "name": "previousAdminRole",
          "type": "bytes32"
        },
        {
          "indexed": true,
          "internalType": "bytes32",
          "name": "newAdminRole",
          "type": "bytes32"
        }
      ],
      "name": "RoleAdminChanged",
      "type": "event"
    },
    {
      "anonymous": false,
      "inputs": [
        {
          "indexed": true,
          "internalType": "bytes32",
          "name": "role",
          "type": "bytes32"
        },
        {
          "indexed": true,
          "internalType": "address",
          "name": "account",
          "type": "address"
        },
        {
          "indexed": true,
          "internalType": "address",
          "name": "sender",
          "type": "address"
        }
      ],
      "name": "RoleGranted",
      "type": "event"
    },
    {
      "anonymous": false,
      "inputs": [
        {
          "indexed": true,
          "internalType": "bytes32",
          "name": "role",
          "type": "bytes32"
        },
        {
          "indexed": true,
          "internalType": "address",
          "name": "account",
          "type": "address"
        },
        {
          "indexed": true,
          "internalType": "address",
          "name": "sender",
          "type": "address"
        }
      ],
      "name": "RoleRevoked",
      "type": "event"
    },
    {
      "anonymous": false,
      "inputs": [
        {
          "indexed": true,
          "internalType": "uint256",
          "name": "submissionId",
          "type": "uint256"
        },
        {
          "indexed": true,
          "internalType": "address",
          "name": "commenter",
          "type": "address"
        }
      ],
      "name": "SubmissionCommented",
      "type": "event"
    },
    {
      "anonymous": false,
      "inputs": [
        {
          "indexed": true,
          "internalType": "uint256",
          "name": "submissionId",
          "type": "uint256"
        },
        {
          "indexed": true,
          "internalType": "uint256",
          "name": "questId",
          "type": "uint256"
        },
        {
          "indexed": true,
          "internalType": "address",
          "name": "submitter",
          "type": "address"
        },
        {
          "indexed": false,
          "internalType": "bool",
          "name": "isTeamSubmission",
          "type": "bool"
        }
      ],
      "name": "SubmissionCreated",
      "type": "event"
    },
    {
      "anonymous": false,
      "inputs": [
        {
          "indexed": true,
          "internalType": "uint256",
          "name": "submissionId",
          "type": "uint256"
        },
        {
          "indexed": true,
          "internalType": "address",
          "name": "user",
          "type": "address"
        }
      ],
      "name": "SubmissionLiked",
      "type": "event"
    },
    {
      "anonymous": false,
      "inputs": [
        {
          "indexed": true,
          "internalType": "uint256",
          "name": "submissionId",
          "type": "uint256"
        },
        {
          "indexed": true,
          "internalType": "address",
          "name": "reviewer",
          "type": "address"
        },
        {
          "indexed": false,
          "internalType": "uint256",
          "name": "score",
          "type": "uint256"
        },
        {
          "indexed": false,
          "internalType": "bool",
          "name": "approved",
          "type": "bool"
        }
      ],
      "name": "SubmissionReviewed",
      "type": "event"
    },
    {
      "anonymous": false,
      "inputs": [
        {
          "indexed": true,
          "internalType": "uint256",
          "name": "submissionId",
          "type": "uint256"
        },
        {
          "indexed": false,
          "internalType": "enum ISubmissionManager.SubmissionStatus",
          "name": "status",
          "type": "uint8"
        }
      ],
      "name": "SubmissionUpdated",
      "type": "event"
    },
    {
      "anonymous": false,
      "inputs": [
        {
          "indexed": false,
          "internalType": "address",
          "name": "account",
          "type": "address"
        }
      ],
      "name": "Unpaused",
      "type": "event"
    },
    {
      "anonymous": false,
      "inputs": [
        {
          "indexed": true,
          "internalType": "uint256",
          "name": "questId",
          "type": "uint256"
        },
        {
          "indexed": true,
          "internalType": "uint256",
          "name": "submissionId",
          "type": "uint256"
        }
      ],
      "name": "WinnerSelected",
      "type": "event"
    },
    {
      "inputs": [],
      "name": "ADMIN_ROLE",
      "outputs": [
        {
          "internalType": "bytes32",
          "name": "",
          "type": "bytes32"
        }
      ],
      "stateMutability": "view",
      "type": "function"
    },
    {
      "inputs": [],
      "name": "DEFAULT_ADMIN_ROLE",
      "outputs": [
        {
          "internalType": "bytes32",
          "name": "",
          "type": "bytes32"
        }
      ],
      "stateMutability": "view",
      "type": "function"
    },
    {
      "inputs": [],
      "name": "REVIEWER_ROLE",
      "outputs": [
        {
          "internalType": "bytes32",
          "name": "",
          "type": "bytes32"
        }
      ],
      "stateMutability": "view",
      "type": "function"
    },
    {
      "inputs": [
        {
          "internalType": "uint256",
          "name": "submissionId",
          "type": "uint256"
        },
        {
          "internalType": "address",
          "name": "user",
          "type": "address"
        }
      ],
      "name": "canUserReview",
      "outputs": [
        {
          "internalType": "bool",
          "name": "",
          "type": "bool"
        }
      ],
      "stateMutability": "view",
      "type": "function"
    },
    {
      "inputs": [],
      "name": "collaborationManager",
      "outputs": [
        {
          "internalType": "contract ICollaborationManager",
          "name": "",
          "type": "address"
        }
      ],
      "stateMutability": "view",
      "type": "function"
    },
    {
      "inputs": [
        {
          "internalType": "uint256",
          "name": "submissionId",
          "type": "uint256"
        },
        {
          "internalType": "string",
          "name": "comment",
          "type": "string"
        }
      ],
      "name": "commentOnSubmission",
      "outputs": [],
      "stateMutability": "nonpayable",
      "type": "function"
    },
    {
      "inputs": [
        {
          "internalType": "uint256",
          "name": "questId",
          "type": "uint256"
        },
        {
          "internalType": "string",
          "name": "title",
          "type": "string"
        },
        {
          "internalType": "string",
          "name": "description",
          "type": "string"
        },
        {
          "internalType": "string[]",
          "name": "fileHashes",
          "type": "string[]"
        },
        {
          "internalType": "string",
          "name": "metadataURI",
          "type": "string"
        },
        {
          "internalType": "address[]",
          "name": "collaborators",
          "type": "address[]"
        }
      ],
      "name": "createSubmission",
      "outputs": [
        {
          "internalType": "uint256",
          "name": "submissionId",
          "type": "uint256"
        }
      ],
      "stateMutability": "nonpayable",
      "type": "function"
    },
    {
      "inputs": [
        {
          "internalType": "uint256",
          "name": "questId",
          "type": "uint256"
        }
      ],
      "name": "getQuestSubmissions",
      "outputs": [
        {
          "internalType": "uint256[]",
          "name": "",
          "type": "uint256[]"
        }
      ],
      "stateMutability": "view",
      "type": "function"
    },
    {
      "inputs": [
        {
          "internalType": "bytes32",
          "name": "role",
          "type": "bytes32"
        }
      ],
      "name": "getRoleAdmin",
      "outputs": [
        {
          "internalType": "bytes32",
          "name": "",
          "type": "bytes32"
        }
      ],
      "stateMutability": "view",
      "type": "function"
    },
    {
      "inputs": [
        {
          "internalType": "uint256",
          "name": "submissionId",
          "type": "uint256"
        }
      ],
      "name": "getSubmission",
      "outputs": [
        {
          "components": [
            {
              "internalType": "uint256",
              "name": "id",
              "type": "uint256"
            },
            {
              "internalType": "uint256",
              "name": "questId",
              "type": "uint256"
            },
            {
              "internalType": "address",
              "name": "submitter",
              "type": "address"
            },
            {
              "internalType": "address[]",
              "name": "collaborators",
              "type": "address[]"
            },
            {
              "internalType": "string",
              "name": "title",
              "type": "string"
            },
            {
              "internalType": "string",
              "name": "description",
              "type": "string"
            },
            {
              "internalType": "string[]",
              "name": "fileHashes",
              "type": "string[]"
            },
            {
              "internalType": "string",
              "name": "metadataURI",
              "type": "string"
            },
            {
              "internalType": "enum ISubmissionManager.SubmissionStatus",
              "name": "status",
              "type": "uint8"
            },
            {
              "internalType": "uint256",
              "name": "submittedAt",
              "type": "uint256"
            },
            {
              "internalType": "uint256",
              "name": "reviewedAt",
              "type": "uint256"
            },
            {
              "internalType": "uint256",
              "name": "score",
              "type": "uint256"
            },
            {
              "internalType": "string",
              "name": "reviewComments",
              "type": "string"
            },
            {
              "internalType": "address",
              "name": "reviewer",
              "type": "address"
            },
            {
              "internalType": "bool",
              "name": "isTeamSubmission",
              "type": "bool"
            }
          ],
          "internalType": "struct ISubmissionManager.Submission",
          "name": "",
          "type": "tuple"
        }
      ],
      "stateMutability": "view",
      "type": "function"
    },
    {
      "inputs": [
        {
          "internalType": "uint256",
          "name": "submissionId",
          "type": "uint256"
        }
      ],
      "name": "getSubmissionMetrics",
      "outputs": [
        {
          "components": [
            {
              "internalType": "uint256",
              "name": "totalViews",
              "type": "uint256"
            },
            {
              "internalType": "uint256",
              "name": "totalLikes",
              "type": "uint256"
            },
            {
              "internalType": "uint256",
              "name": "totalComments",
              "type": "uint256"
            },
            {
              "internalType": "address[]",
              "name": "likedBy",
              "type": "address[]"
            }
          ],
          "internalType": "struct ISubmissionManager.SubmissionMetrics",
          "name": "",
          "type": "tuple"
        }
      ],
      "stateMutability": "view",
      "type": "function"
    },
    {
      "inputs": [
        {
          "internalType": "uint256",
          "name": "submissionId",
          "type": "uint256"
        }
      ],
      "name": "getSubmissionReviews",
      "outputs": [
        {
          "components": [
            {
              "internalType": "uint256",
              "name": "submissionId",
              "type": "uint256"
            },
            {
              "internalType": "address",
              "name": "reviewer",
              "type": "address"
            },
            {
              "internalType": "uint256",
              "name": "score",
              "type": "uint256"
            },
            {
              "internalType": "string",
              "name": "comments",
              "type": "string"
            },
            {
              "internalType": "uint256",
              "name": "reviewedAt",
              "type": "uint256"
            },
            {
              "internalType": "bool",
              "name": "approved",
              "type": "bool"
            }
          ],
          "internalType": "struct ISubmissionManager.Review[]",
          "name": "",
          "type": "tuple[]"
        }
      ],
      "stateMutability": "view",
      "type": "function"
    },
    {
      "inputs": [
        {
          "internalType": "uint256",
          "name": "questId",
          "type": "uint256"
        },
        {
          "internalType": "uint256",
          "name": "limit",
          "type": "uint256"
        }
      ],
      "name": "getTopSubmissions",
      "outputs": [
        {
          "internalType": "uint256[]",
          "name": "",
          "type": "uint256[]"
        }
      ],
      "stateMutability": "view",
      "type": "function"
    },
    {
      "inputs": [],
      "name": "getTotalSubmissions",
      "outputs": [
        {
          "internalType": "uint256",
          "name": "",
          "type": "uint256"
        }
      ],
      "stateMutability": "view",
      "type": "function"
    },
    {
      "inputs": [
        {
          "internalType": "address",
          "name": "user",
          "type": "address"
        }
      ],
      "name": "getUserSubmissions",
      "outputs": [
        {
          "internalType": "uint256[]",
          "name": "",
          "type": "uint256[]"
        }
      ],
      "stateMutability": "view",
      "type": "function"
    },
    {
      "inputs": [
        {
          "internalType": "address",
          "name": "user",
          "type": "address"
        }
      ],
      "name": "grantReviewerRole",
      "outputs": [],
      "stateMutability": "nonpayable",
      "type": "function"
    },
    {
      "inputs": [
        {
          "internalType": "bytes32",
          "name": "role",
          "type": "bytes32"
        },
        {
          "internalType": "address",
          "name": "account",
          "type": "address"
        }
      ],
      "name": "grantRole",
      "outputs": [],
      "stateMutability": "nonpayable",
      "type": "function"
    },
    {
      "inputs": [
        {
          "internalType": "bytes32",
          "name": "role",
          "type": "bytes32"
        },
        {
          "internalType": "address",
          "name": "account",
          "type": "address"
        }
      ],
      "name": "hasRole",
      "outputs": [
        {
          "internalType": "bool",
          "name": "",
          "type": "bool"
        }
      ],
      "stateMutability": "view",
      "type": "function"
    },
    {
      "inputs": [
        {
          "internalType": "uint256",
          "name": "submissionId",
          "type": "uint256"
        }
      ],
      "name": "likeSubmission",
      "outputs": [],
      "stateMutability": "nonpayable",
      "type": "function"
    },
    {
      "inputs": [],
      "name": "pause",
      "outputs": [],
      "stateMutability": "nonpayable",
      "type": "function"
    },
    {
      "inputs": [],
      "name": "paused",
      "outputs": [
        {
          "internalType": "bool",
          "name": "",
          "type": "bool"
        }
      ],
      "stateMutability": "view",
      "type": "function"
    },
    {
      "inputs": [],
      "name": "questBoard",
      "outputs": [
        {
          "internalType": "contract IQuestBoard",
          "name": "",
          "type": "address"
        }
      ],
      "stateMutability": "view",
      "type": "function"
    },
    {
      "inputs": [
        {
          "internalType": "bytes32",
          "name": "role",
          "type": "bytes32"
        },
        {
          "internalType": "address",
          "name": "account",
          "type": "address"
        }
      ],
      "name": "renounceRole",
      "outputs": [],
      "stateMutability": "nonpayable",
      "type": "function"
    },
    {
      "inputs": [
        {
          "internalType": "uint256",
          "name": "submissionId",
          "type": "uint256"
        },
        {
          "internalType": "uint256",
          "name": "score",
          "type": "uint256"
        },
        {
          "internalType": "string",
          "name": "comments",
          "type": "string"
        },
        {
          "internalType": "bool",
          "name": "approved",
          "type": "bool"
        }
      ],
      "name": "reviewSubmission",
      "outputs": [],
      "stateMutability": "nonpayable",
      "type": "function"
    },
    {
      "inputs": [
        {
          "internalType": "address",
          "name": "user",
          "type": "address"
        }
      ],
      "name": "revokeReviewerRole",
      "outputs": [],
      "stateMutability": "nonpayable",
      "type": "function"
    },
    {
      "inputs": [
        {
          "internalType": "bytes32",
          "name": "role",
          "type": "bytes32"
        },
        {
          "internalType": "address",
          "name": "account",
          "type": "address"
        }
      ],
      "name": "revokeRole",
      "outputs": [],
      "stateMutability": "nonpayable",
      "type": "function"
    },
    {
      "inputs": [],
      "name": "rewardManager",
      "outputs": [
        {
          "internalType": "contract IRewardManager",
          "name": "",
          "type": "address"
        }
      ],
      "stateMutability": "view",
      "type": "function"
    },
    {
      "inputs": [
        {
          "internalType": "uint256",
          "name": "questId",
          "type": "uint256"
        },
        {
          "internalType": "uint256[]",
          "name": "submissionIds",
          "type": "uint256[]"
        }
      ],
      "name": "selectWinners",
      "outputs": [],
      "stateMutability": "nonpayable",
      "type": "function"
    },
    {
      "inputs": [
        {
          "internalType": "uint256",
          "name": "minScore",
          "type": "uint256"
        },
        {
          "internalType": "uint256",
          "name": "maxScore",
          "type": "uint256"
        }
      ],
      "name": "setReviewScoreRange",
      "outputs": [],
      "stateMutability": "nonpayable",
      "type": "function"
    },
    {
      "inputs": [
        {
          "internalType": "uint256",
          "name": "submissionId",
          "type": "uint256"
        }
      ],
      "name": "submitForReview",
      "outputs": [],
      "stateMutability": "nonpayable",
      "type": "function"
    },
    {
      "inputs": [
        {
          "internalType": "bytes4",
          "name": "interfaceId",
          "type": "bytes4"
        }
      ],
      "name": "supportsInterface",
      "outputs": [
        {
          "internalType": "bool",
          "name": "",
          "type": "bool"
        }
      ],
      "stateMutability": "view",
      "type": "function"
    },
    {
      "inputs": [
        {
          "internalType": "uint256",
          "name": "submissionId",
          "type": "uint256"
        }
      ],
      "name": "unlikeSubmission",
      "outputs": [],
      "stateMutability": "nonpayable",
      "type": "function"
    },
    {
      "inputs": [],
      "name": "unpause",
      "outputs": [],
      "stateMutability": "nonpayable",
      "type": "function"
    },
    {
      "inputs": [
        {
          "internalType": "uint256",
          "name": "submissionId",
          "type": "uint256"
        },
        {
          "internalType": "string",
          "name": "title",
          "type": "string"
        },
        {
          "internalType": "string",
          "name": "description",
          "type": "string"
        },
        {
          "internalType": "string[]",
          "name": "fileHashes",
          "type": "string[]"
        },
        {
          "internalType": "string",
          "name": "metadataURI",
          "type": "string"
        }
      ],
      "name": "updateSubmission",
      "outputs": [],
      "stateMutability": "nonpayable",
      "type": "function"
    },
    {
      "inputs": [],
      "name": "userProfile",
      "outputs": [
        {
          "internalType": "contract IUserProfile",
          "name": "",
          "type": "address"
        }
      ],
      "stateMutability": "view",
      "type": "function"
    },
    {
      "inputs": [
        {
          "internalType": "uint256",
          "name": "submissionId",
          "type": "uint256"
        }
      ],
      "name": "withdrawSubmission",
      "outputs": [],
      "stateMutability": "nonpayable",
      "type": "function"
    }
  ],
  "bytecode": "0x6080346101d357601f614bd938819003918201601f19168301916001600160401b038311848410176101d8578084926080946040528339810103126101d357610047816101ee565b90610054602082016101ee565b61006c6060610065604085016101ee565b93016101ee565b600180556002805460ff191690556000600b8190556064600c55338152600080516020614bb9833981519152602052604090205490939060ff1615610193575b336000908152600080516020614b99833981519152602052604090205460ff1615610131575b600d80546001600160a01b03199081166001600160a01b0393841617909155600e8054821693831693909317909255600f8054831693821693909317909255601080549091169290911691909117905560405161497690816102038239f35b336000818152600080516020614b9983398151915260205260408120805460ff1916600117905581907fa49807205ce4d355092ef5a8a18f56e8913cf4a201fbe287825b095693c2177590600080516020614b798339815191529080a46100d2565b336000818152600080516020614bb983398151915260205260408120805460ff191660011790558190600080516020614b798339815191528180a46100ac565b600080fd5b634e487b7160e01b600052604160045260246000fd5b51906001600160a01b03821682036101d35756fe60c080604052600436101561001357600080fd5b600090813560e01c90816301ffc9a7146135d457508063060aad35146134345780630f4ef8a61461340b57806311d968f914613329578063131227981461330057806313da41e81461329c578063248a9ca3146132665780632a5de3501461323d5780632f2ff15d1461317f5780633011e3531461294b578063363fac0f14611b4357806336568abe14611ab05780633b129a5614611a875780633e8686cc146117335780633f4ba83a1461169e57806342326ef8146115dc57806342e9db97146115135780634872f344146114e257806348febf9714610fe657806354554d4614610fc85780635c975abb14610fa557806375b238fc14610f6a57806379bf9cfa14610f3e5780638311879c14610dbd5780638456cb5914610d625780638a3b37e214610c0d57806391d1485414610bc2578063938de8c314610ba75780639b2c282514610b7e578063a06ac73814610a79578063a217fddf14610a5d578063a7b8614d146109d3578063d547741f1461098a578063da41f68e146108c4578063e2da433f146107005763ef3977f7146101ad57600080fd5b346106fd5760a03660031901126106fd576004356024356001600160401b0381116106fb576101e0903690600401613629565b6044356001600160401b0381116106f7576101ff903690600401613629565b916064356001600160401b0381116106f35761021f9036906004016136bb565b906084356001600160401b0381116106ef5761023f903690600401613629565b949095881515806106e3575b610254906137a9565b888a52600360205261027660018060a01b03600260408d2001541633146142ca565b888a52600360205260408a2094600886019860ff8a541660068110156106cf5761067f5760048701916001600160401b03811161066b576102c1816102bb8554613c0b565b85613c5c565b8c918d601f8311600114610606576102f0939091836103f0575b50508160011b916000199060031b1c19161790565b90555b60058501916001600160401b0382116105f257610314826102bb8554613c0b565b8a90601f831160011461058d5761034292918c91836103f05750508160011b916000199060031b1c19161790565b9055905b60068301916103558284613e34565b8092895260208920928991601e1981360301915b84841061048857505050505050600701916001600160401b03821161047457610396826102bb8554613c0b565b8590601f83116001146103fb57926103da8360ff9460008051602061490183398151915297946020978b926103f05750508160011b916000199060031b1c19161790565b90555b54166103ec6040518092613770565ba280f35b0135905038806102db565b8387526020872091601f198416885b81811061045c5750936000805160206149018339815191529693602096936001938360ff9810610442575b505050811b0190556103dd565b0135600019600384901b60f8161c19169055388080610435565b9193602060018192878701358155019501920161040a565b634e487b7160e01b86526041600452602486fd5b8035838112156105895782018c8135916001600160401b038311610585578236036020820113610585576104c6836104c08b54613c0b565b8b613c5c565b81601f84116001146105175783600195929460209487966104fb949261050a5750508160011b916000199060031b1c19161790565b89555b01960193019294610369565b86925001013538806102db565b91601f1984168a845260208420935b81811061056b575093602093600196938796938388951061054f575b505050811b0189556104fe565b01850135600019600384901b60f8161c19169055388080610542565b919360206001819282888801013581550195019201610526565b5080fd5b8c80fd5b838c5260208c2091601f1984168d5b8181106105da57509084600195949392106105c0575b505050811b01905590610346565b0135600019600384901b60f8161c191690553880806105b2565b9193602060018192878701358155019501920161059c565b634e487b7160e01b8b52604160045260248bfd5b9192601f19841685845260208420935b8181106106535750908460019594939210610639575b505050811b0190556102f3565b0135600019600384901b60f8161c1916905538808061062c565b91936020600181928787013581550195019201610616565b634e487b7160e01b8d52604160045260248dfd5b60405162461bcd60e51b815260206004820152602260248201527f43616e6e6f7420757064617465207375626d6974746564207375626d6973736960448201526137b760f11b6064820152608490fd5b634e487b7160e01b8d52602160045260248dfd5b50600a5489111561024b565b8880fd5b8680fd5b8480fd5b825b80fd5b50346106fd5760203660031901126106fd57600435801515806108b8575b610727906137a9565b808252600860209081526040808420336000908152925290205460ff16156108875780825260086020526040822060018060a01b033316600052602052604060002060ff19815416905580825260056020526001604083200161078a81546144f7565b90558152600560205260036040822001815b815480821015610881576107b08284613812565b905460039190911b1c6001600160a01b031633146107d1575060010161079c565b600019810190811161086d57906108076107ee61082b9385613812565b905460039190911b1c6001600160a01b03169184613812565b81546001600160a01b0393841660039290921b91821b9390911b1916919091179055565b805480156108595760001901906108428282613812565b81549060018060a01b039060031b1b191690555580f35b634e487b7160e01b83526031600452602483fd5b634e487b7160e01b84526011600452602484fd5b50505080f35b60405162461bcd60e51b8152602060048201526009602482015268139bdd081b1a5ad95960ba1b6044820152606490fd5b50600a5481111561071e565b50346106fd5760203660031901126106fd576108de6136a5565b6108e6614504565b6000805160206149218339815191528252602082815260408084206001600160a01b0384166000908152925290205460ff1615610921575080f35b600080516020614921833981519152808352602083815260408085206001600160a01b0394909416600081815294909252909220805460ff191660011790553391907f2f8788117e7eff1d82e926ec794901d17c78024a50270940304540a733656f0d8480a480f35b50346106fd5760403660031901126106fd576109d06004356109aa61368f565b906109cb6109c682600052600060205260016040600020015490565b61461d565b61469f565b80f35b50346106fd5760203660031901126106fd576001600160a01b036109f56136a5565b168152600760205260408120604051918260208354918281520192825260208220915b818110610a4757610a4385610a2f818703826138a8565b60405191829160208352602083019061365b565b0390f35b8254845260209093019260019283019201610a18565b50346106fd57806003193601126106fd57602090604051908152f35b50346106fd5760203660031901126106fd5760043580151580610b72575b610aa0906137a9565b8082526003602052610ac260018060a01b0360026040852001541633146142ca565b8082526003602052604082206008810160ff8154166006811015610b5e5760018114908115610b53575b5015610b1c57839160099160ff19815416905501556000805160206149018339815191526020604051848152a280f35b60405162461bcd60e51b815260206004820152600f60248201526e43616e6e6f7420776974686472617760881b6044820152606490fd5b600291501438610aec565b634e487b7160e01b85526021600452602485fd5b50600a54811115610a97565b50346106fd57806003193601126106fd57600f546040516001600160a01b039091168152602090f35b50346106fd57610a43610a2f610bbc36613793565b9061430a565b50346106fd5760403660031901126106fd576040610bde61368f565b91600435815280602052209060018060a01b0316600052602052602060ff604060002054166040519015158152f35b50346106fd5760203660031901126106fd5760043580151580610d56575b610c34906137a9565b8082526003602052610c5660018060a01b0360026040852001541633146142ca565b8082526003602052604082206008810160ff8154166006811015610b5e57610d1d5760018060a01b03600d541684600184015460246040518094819363127e1bcd60e21b835260048301525afa908115610d1257610cc3916101a0918791610cf0575b5001514210613db8565b600160ff19825416179055600942910155600080516020614901833981519152602060405160018152a280f35b610d0c91503d8089833e610d0481836138a8565b8101906139a3565b38610cb9565b6040513d87823e3d90fd5b60405162461bcd60e51b8152602060048201526011602482015270105b1c9958591e481cdd589b5a5d1d1959607a1b6044820152606490fd5b50600a54811115610c2b565b50346106fd57806003193601126106fd57610d7b614504565b610d8361465b565b600160ff1960025416176002557f62e78cea01bee320cd4e420270b5ea74000d11b0c9f74754ebdbfc544b05a2586020604051338152a180f35b50346106fd5760203660031901126106fd5760043580151580610f32575b610de4906137a9565b81526004602052604081208054610dfa8161398c565b90610e0860405192836138a8565b80825260208201809385526020852085915b838310610eca57868587604051928392602084019060208552518091526040840160408260051b8601019392905b828210610e5757505050500390f35b919360019193955060208091603f1989820301855287519081518152848060a01b038383015116838201526040820151604082015260a080610ea8606085015160c0606086015260c085019061374b565b9360808101516080850152015115159101529601920192018594939192610e48565b60066020600192604051610edd81613840565b85548152848060a01b0385870154168382015260028601546040820152610f0660038701613ca3565b60608201526004860154608082015260ff600587015416151560a0820152815201920192019190610e1a565b50600a54811115610ddb565b50346106fd57610f4d36613793565b90610f56614504565b610f618282106138c9565b600b55600c5580f35b50346106fd57806003193601126106fd5760206040517fa49807205ce4d355092ef5a8a18f56e8913cf4a201fbe287825b095693c217758152f35b50346106fd57806003193601126106fd57602060ff600254166040519015158152f35b50346106fd57806003193601126106fd576020600a54604051908152f35b50346106fd5760403660031901126106fd57602435906004356001600160401b0383116105855761101d60249336906004016136bb565b93908360018060a01b03600d54166040519384809263127e1bcd60e21b82528760048301525afa9182156114d75784926114bb575b5060408201516001600160a01b031633036114685760e08201516005811015610b5e5760016110819114613d79565b61108a85613f01565b9461010061109782613f01565b9301916110a5828451613d59565b9086915b8383106111935750505015159081611188575b506110c5578280f35b6010546001600160a01b031690813b1561118457604094919451926349b9664560e11b845260648401906004850152606060248501528251809152602060848501930190855b8181106111655750505083948385816111328296829660031984830301604485015261365b565b03925af1801561115a5761114557808280f35b8161114f916138a8565b6106fd578038808280f35b6040513d84823e3d90fd5b82516001600160a01b031685526020948501949092019160010161110b565b8380fd5b9050511515386110bc565b93909594919697926111a6888289613e04565b3596878a52600360205286600160408c2001540361142357878a52600360205260ff600860408c20015416600681101561140f576001036113ca57878a52600360205260408a20600801805460ff1916600517905587877fca1dae47f36d2b335e85f1cb82f7d34f0a5ea31328e3ab461cbd70219ec90c9e8c80a3878a52600360205260408a20600201548a906001600160a01b0316806112478c89613d45565b52876112538c88613d45565b52600e546001600160a01b031690813b156106fb578960c484928360405195869485936360ee8a5560e11b855260048501526014602485015260806044850152600c60848501526b38bab2b9ba2fbbb4b73732b960a11b60a485015260648401525af1801561115a576113b1575b505b888b526003602052600360408c20015481101561139b578a60018060a01b03600e54168a825260036020526112fe8360036040852001613812565b905460039190911b1c6001600160a01b0316813b156106fb578a60c484928360405195869485936360ee8a5560e11b85526004850152600a602485015260806044850152601460848501527331b7b63630b137b930ba34b7b72fbbb4b73732b960611b60a485015260648401525af1801561115a57611382575b50506001016112c3565b8161138c916138a8565b611397578a38611378565b8a80fd5b50929596509297966001909491940191906110a9565b816113bb916138a8565b6113c65789386112c1565b8980fd5b60405162461bcd60e51b815260206004820152601860248201527f5375626d697373696f6e206e6f74207375626d697474656400000000000000006044820152606490fd5b634e487b7160e01b8b52602160045260248bfd5b60405162461bcd60e51b815260206004820152601d60248201527f5375626d697373696f6e206e6f7420666f7220746869732071756573740000006044820152606490fd5b60405162461bcd60e51b815260206004820152602560248201527f4f6e6c792071756573742063726561746f722063616e2073656c6563742077696044820152646e6e65727360d81b6064820152608490fd5b6114d09192503d8086833e610d0481836138a8565b9038611052565b6040513d86823e3d90fd5b50346106fd5760403660031901126106fd57602061150961150161368f565b600435613f87565b6040519015158152f35b50346106fd5760203660031901126106fd5760409060043560608084516115398161388d565b84815284602082015284868201520152801515806115d0575b61155b906137a9565b815260056020522060405161156f8161388d565b81548152610a436001830154926020830193845261159b60036002830154926040860193845201613f33565b9060608401918252604051948594602086525160208601525160408501525160608401525160808084015260a08301906136eb565b50600a54811115611552565b50346106fd5760203660031901126106fd576115f66136a5565b6115fe614504565b6000805160206149218339815191528252602082815260408084206001600160a01b0384166000908152925290205460ff16611638575080f35b600080516020614921833981519152808352602083815260408085206001600160a01b0394909416600081815294909252909220805460ff191690553391907ff6391f5c32d9c69d2a47ea670b442974b53935d1edc7fd64eb21e047a839171b8480a480f35b50346106fd57806003193601126106fd576116b7614504565b60025460ff8116156116f75760ff19166002557f5db9ee0a495bf2e6ff9c91a7834c1ba4fdd244a5e8aa4e537bd38aeae4b073aa6020604051338152a180f35b60405162461bcd60e51b815260206004820152601460248201527314185d5cd8589b194e881b9bdd081c185d5cd95960621b6044820152606490fd5b50346106fd5760203660031901126106fd57600435816101c060405161175881613871565b82815282602082015282604082015260608082015260606080820152606060a0820152606060c0820152606060e0820152826101008201528261012082015282610140820152826101608201526060610180820152826101a0820152015280151580611a7b575b6117c8906137a9565b8152600360205260408120604051906117e082613871565b8054825260018101546020830190815260028201546001600160a01b0316604084019081529092909161181560038201613f33565b6060830190815261182860048301613ca3565b6080840190815261183b60058401613ca3565b60a085019081526006840180546118518161398c565b9161185f60405193846138a8565b8183528a526020808b208b9184015b838310611a5e575050505060c0860190815261188c60078601613ca3565b60e08701908152600886015460ff169961010088019a6118ac908c613e28565b6009870154936101208901948552600a880154956101408a01968752600b890154976101608b01988952600c8a016118e390613ca3565b996101808c019a8b52600d01549a6101a081019c8d8d600160a01b600190031690526101c082019c60a01c60ff1615158d526040519e8f9260208452516020840152516040830152600160a01b6001900390511690606001525160808d016101e090526102008d01611954916136eb565b90518c8203601f190160a08e015261196c919061374b565b90518b8203601f190160c08d0152611984919061374b565b925192601f198b82030160e08c0152835190818152602081018260051b82016020019560200193915b838310611a31575050505050916119eb6119de611a139795938b9c9795518c610100601f198285030191015261374b565b95516101208b0190613770565b51610140890152516101608801525161018087015251858203601f19016101a087015261374b565b91516001600160a01b03166101c08401525115156101e08301520390f35b9091929395602080611a4f600193601f198682030187528a5161374b565b980193019301919392906119ad565b600160208192611a6d85613ca3565b81520192019201919061186e565b50600a548111156117bf565b50346106fd57806003193601126106fd5760206040516000805160206149218339815191528152f35b50346106fd5760403660031901126106fd57611aca61368f565b336001600160a01b03821603611ae6576109d09060043561469f565b60405162461bcd60e51b815260206004820152602f60248201527f416363657373436f6e74726f6c3a2063616e206f6e6c792072656e6f756e636560448201526e103937b632b9903337b91039b2b63360891b6064820152608490fd5b50346106fd5760c03660031901126106fd576024356001600160401b03811161058557611b74903690600401613629565b916044356001600160401b03811161058557611b94903690600401613629565b92906064356001600160401b03811161118457611bb59036906004016136bb565b906084356001600160401b03811161294757611bd5903690600401613629565b92909360a4356001600160401b0381116125f157611bf79036906004016136bb565b989096600260015414612902576002600155611c1161465b565b600d5460405163127e1bcd60e21b815260048035908201526001600160a01b03909116908a81602481855afa9081156128f7578b916128dd575b5060e081015160058110156128c9576001611c669114613d79565b611c766101a08201514210613db8565b60405163758d9b8960e01b81526004803590820152336024820152602081604481865afa90811561277f578c9161288f575b501561284a578c1561280d5785156127c8578b612619575b5050611ccd600a546137ed565b9a8b600a5560405160a052611ce360a051613871565b8b60a05152600435602060a051015233604060a0510152611d038b61398c565b611d1060405191826138a8565b8b8152602081018c60051b8b01368111610589578b915b8183106125f55750505091611d4a91611d58959493606060a05101523691613bd4565b608060a05101523691613bd4565b60a080510152611d678161398c565b91611d7560405193846138a8565b818352602083019160051b8101903682116125f15780925b8284106125b5575050505090611dac929160c060a05101523691613bd4565b60e060a0510152600161010060a05101524261012060a05101528161014060a05101528161016060a0510152816080526020608052604051611df0608051826138a8565b82815261018060a0510152816101a060a05101528215156101c060a05101528382526003608051526040822060a051518155602060a0510151600182015560018060a01b03604060a051015116600282019060018060a01b03166bffffffffffffffffffffffff60a01b825416179055606060a05101518051906001600160401b03821161239857600160401b8211612398576003830154826003850155808310612596575b50608051016003830185526080518520855b8381106125765750505050608060a05101518051906001600160401b03821161239857611ee582611edc6004860154613c0b565b60048601613c5c565b60805190601f831160011461250a57611f1592918691836122b75750508160011b916000199060031b1c19161790565b60048201555b60a0805101518051906001600160401b03821161239857611f4c82611f436005860154613c0b565b60058601613c5c565b60805190601f831160011461249957611f7c92918691836122b75750508160011b916000199060031b1c19161790565b60058201555b6006810160c060a051015190815191611f9b8383613e34565b60805101908552608051852085915b8383106123ac575050505060e060a05101518051906001600160401b03821161239857611fe782611fde6007860154613c0b565b60078601613c5c565b60805190601f831160011461232c5761201792918691836122b75750508160011b916000199060031b1c19161790565b60078201555b6008810161010060a05101516006811015610b5e5760ff8019835416911617905561012060a0510151600982015561014060a0510151600a82015561016060a0510151600b820155600c810161018060a05101518051906001600160401b03821161047457612090826102bb8554613c0b565b60805190601f83116001146122c25791806120c592600d96959489926122b75750508160011b916000199060031b1c19161790565b90555b60a080516101a08101519390920180546101c0909301516001600160a81b03199093166001600160a01b039490941693909317911515901b60ff60a01b1617905560043582526080516006905260408220612124908590613ecc565b33825260076080515261213a8460408420613ecc565b815b83811061227d5750506080516040519061215690826138a8565b8181526000368137600360405161216c8161388d565b83815260805181018481526040820190858252606083019485528786526005608051526040862092518355516001830155516002820155019051918251926001600160401b03841161226957600160401b841161226957825484845580851061224d575b50608051019181526080518120905b83811061222d57858560405190151581523390827f24d630e73656716315b8229b0843bc9fa09b7f493080436e3966c722e20ec3906004359260805190a46001805560405190815260805190f35b82516080516001600160a01b0390911682840155909201916001016121df565b8383526080518320612263918101908601613c45565b386121d0565b634e487b7160e01b82526041600452602482fd5b6001906001600160a01b0361229b612296838887613e04565b613e14565b1684526007608051526122b18660408620613ecc565b0161213c565b0151905038806102db565b83875260805187209190601f198416885b8181106123135750916001939185600d98979694106122fa575b505050811b0190556120c8565b015160001960f88460031b161c191690553880806122ed565b82840151855560805160019095019493840193016122d3565b60078401865260805186209190601f198416875b81811061237f5750908460019594939210612366575b505050811b01600782015561201d565b015160001960f88460031b161c19169055388080612356565b8284015185556080516001909501949384019301612340565b634e487b7160e01b85526041600452602485fd5b80518051906001600160401b038211612485576123d3826123cd8654613c0b565b86613c5c565b60805190601f831160011461241b578260019492938594612409938d926122b75750508160011b916000199060031b1c19161790565b84555b60805101920192019190611faa565b848a526080518a209190601f1984168b5b81811061246c575092600195939285928796879510612453575b505050811b01845561240c565b015160001960f88460031b161c19169055388080612446565b828401518555608051600190950194938401930161242c565b634e487b7160e01b89526041600452602489fd5b919060058401865260805186209086935b601f19841685106124ee576001945083601f198116106124d5575b505050811b016005820155611f82565b015160001960f88460031b161c191690553880806124c5565b81810151835560805194850194600190930192909101906124aa565b60048401865260805186209190601f198416875b81811061255d5750908460019594939210612544575b505050811b016004820155611f1b565b015160001960f88460031b161c19169055388080612534565b828401518555608051600190950194938401930161251e565b82516080516001600160a01b039091168284015590920191600101611ea8565b60038401865260805186206125af918101908401613c45565b38611e96565b83356001600160401b0381116113c657820136601f820112156113c6576020916125e6839236908481359101613bd4565b815201930192611d8d565b8780fd5b82356001600160a01b038116810361261557815260209283019201611d27565b8e80fd5b61018001518b1161278a57895b898c808310612636575050611cc0565b6126496122968460209361267a95613e04565b60405163758d9b8960e01b815260048035908201526001600160a01b03909116602482015291829081906044820190565b0381865afa90811561277f578c91612742575b50156126fd578b8a6126ab61229684339460018060a01b0394613e04565b16146126b957600101612626565b606460405162461bcd60e51b815260206004820152602060248201527f43616e6e6f7420636f6c6c61626f72617465207769746820796f757273656c666044820152fd5b60405162461bcd60e51b815260206004820152601e60248201527f436f6c6c61626f7261746f72206e6f742061207061727469636970616e7400006044820152606490fd5b90506020813d8211612777575b8161275c602093836138a8565b810103126127735761276d9061397f565b3861268d565b8b80fd5b3d915061274f565b6040513d8e823e3d90fd5b60405162461bcd60e51b8152602060048201526016602482015275546f6f206d616e7920636f6c6c61626f7261746f727360501b6044820152606490fd5b60405162461bcd60e51b815260206004820152601e60248201527f4d75737420696e636c756465206174206c65617374206f6e652066696c6500006044820152606490fd5b60405162461bcd60e51b81526020600482015260156024820152745469746c652063616e6e6f7420626520656d70747960581b6044820152606490fd5b60405162461bcd60e51b815260206004820152601760248201527f4e6f742061207175657374207061727469636970616e740000000000000000006044820152606490fd5b90506020813d6020116128c1575b816128aa602093836138a8565b81010312612773576128bb9061397f565b38611ca8565b3d915061289d565b634e487b7160e01b8c52602160045260248cfd5b6128f191503d808d833e610d0481836138a8565b38611c4b565b6040513d8d823e3d90fd5b60405162461bcd60e51b815260206004820152601f60248201527f5265656e7472616e637947756172643a207265656e7472616e742063616c6c006044820152606490fd5b8580fd5b50346106fd5760803660031901126106fd576044356001600160401b0381116105855761297c903690600401613629565b906064351515606435036106fb57600435151580613171575b61299e906137a9565b6129aa33600435613f87565b1561312c57600b5460243510158061311e575b6129c6906138c9565b600435835260096020908152604080852033865290915283205460ff166130e65760043583526003602052604083209060ff6008830154166006811015610b5e57600181149081156130db575b50156130a65760018060a01b03600d541684600184015460246040518094819363127e1bcd60e21b835260048301525afa8015610d12576101c091869161308c575b50015142101561304e57600435845260046020526040842060405190612a7a82613840565b60043582526020820190338252604083016024358152612a9b368887613bd4565b9160608501928352426080860152606435151560a0860152805490600160401b82101561303a57600182018082558210156130265789526020892085516006929092020190815592516001840180546001600160a01b0319166001600160a01b039290921691909117905551600283015551805160038301916001600160401b03821161248557612b30826102bb8554613c0b565b602090601f8311600114612fbd578260a0959360059593612b66938d926122b75750508160011b916000199060031b1c19161790565b90555b6080840151600482015501910151151560ff80198354169116179055600435845260096020526040842060018060a01b033316855260205260408420600160ff1982541617905560ff6008830154166006811015610b5e57600114612fa9575b6004358452600460205260408420908154612be38161398c565b92612bf160405194856138a8565b81845286526020808720879185015b838310612f415750505050849285935b8351851015612c50576040612c258686613d45565b5101518101809111612c3c57600190940193612c10565b634e487b7160e01b87526011600452602487fd5b612c5f86918894955190613d59565b600b830155600c8201906001600160401b038111612f2d57612c8b81612c858454613c0b565b84613c5c565b83601f8211600114612ec95781908596612cbb94959692612ebe5750508160011b916000199060031b1c19161790565b90555b600d810180546001600160a01b0319163317905542600a82015560643515612eaa5760088101805460ff191660031790555b60405160243581526064351515602082015233907fbd48f52f513b6017c7bb83805041c01032e3c047bb0e003e9aad49a6c83c674f604060043592a3606435612d37575080f35b600e54600282015460018301549293926001600160a01b0392831692909116823b15611184579060c484928360405195869485936360ee8a5560e11b85526004850152600a60248501526080604485015260136084850152721cdd589b5a5cdcda5bdb97d85c1c1c9bdd9959606a1b60a485015260648401525af1801561115a57612e9a575b50906003810182805b8254811015612e9357600e546001600160a01b0316612de58285613812565b9054600187015460039290921b1c6001600160a01b031690823b156106f75760c485928360405195869485936360ee8a5560e11b855260048501526005602485015260806044850152601660848501527518dbdb1b18589bdc985d1a5bdb97d85c1c1c9bdd995960521b60a485015260648401525af1908115612e88578391612e73575b5050600101612dc6565b81612e7d916138a8565b610585578186612e69565b6040513d85823e3d90fd5b5050505080f35b81612ea4916138a8565b82612dbd565b60088101805460ff19166004179055612cf0565b0135905086806102db565b601f198216958386526020862091865b888110612f1557508360019596979810612efb575b505050811b019055612cbe565b0135600019600384901b60f8161c19169055858080612eee565b90926020600181928686013581550194019101612ed9565b634e487b7160e01b84526041600452602484fd5b60066020600192604051612f5481613840565b85548152848060a01b0385870154168382015260028601546040820152612f7d60038701613ca3565b60608201526004860154608082015260ff600587015416151560a0820152815201920192019190612c00565b60088201805460ff19166002179055612bc9565b838a52818a209190601f1984168b5b81811061300e575092600192859260a098966005989610612ff5575b505050811b019055612b69565b015160001960f88460031b161c19169055388080612fe8565b92936020600181928786015181550195019301612fcc565b634e487b7160e01b8a52603260045260248afd5b634e487b7160e01b8a52604160045260248afd5b60405162461bcd60e51b815260206004820152601660248201527514995d9a595dc8191958591b1a5b99481c185cdcd95960521b6044820152606490fd5b6130a091503d8088833e610d0481836138a8565b38612a55565b60405162461bcd60e51b815260206004820152600d60248201526c43616e6e6f742072657669657760981b6044820152606490fd5b600291501438612a13565b60405162461bcd60e51b815260206004820152601060248201526f105b1c9958591e481c995d9a595dd95960821b6044820152606490fd5b50600c5460243511156129bd565b60405162461bcd60e51b815260206004820152601d60248201527f43616e6e6f74207265766965772074686973207375626d697373696f6e0000006044820152606490fd5b50600a546004351115612995565b50346106fd5760403660031901126106fd5760043561319c61368f565b906131b86109c682600052600060205260016040600020015490565b808352602083815260408085206001600160a01b038516865290915283205460ff16156131e3578280f35b808352602083815260408085206001600160a01b0394909416808652939091528320805460ff191660011790553391907f2f8788117e7eff1d82e926ec794901d17c78024a50270940304540a733656f0d8480a438808280f35b50346106fd57806003193601126106fd57600e546040516001600160a01b039091168152602090f35b50346106fd5760203660031901126106fd576020613294600435600052600060205260016040600020015490565b604051908152f35b50346106fd5760203660031901126106fd576004358152600660205260408120604051918260208354918281520192825260208220915b8181106132ea57610a4385610a2f818703826138a8565b82548452602090930192600192830192016132d3565b50346106fd57806003193601126106fd57600d546040516001600160a01b039091168152602090f35b50346106fd5760403660031901126106fd576004356024356001600160401b0381116106fb5761335d903690600401613629565b9050811515806133ff575b613371906137a9565b156133ba5780825260056020526002604083200161338f81546137ed565b905533907f56bf4ae043a92fbaf5acfcdb9e58700e6b568ee68c5be79a89204d6c772588368380a380f35b60405162461bcd60e51b815260206004820152601760248201527f436f6d6d656e742063616e6e6f7420626520656d7074790000000000000000006044820152606490fd5b50600a54821115613368565b50346106fd57806003193601126106fd576010546040516001600160a01b039091168152602090f35b50346106fd5760203660031901126106fd57600435801515806135c8575b61345b906137a9565b80825260086020908152604080842033855290915282205460ff1661359357808252600360205260408220600201546001600160a01b0316331461354e578082526008602090815260408084203385528252808420805460ff19166001908117909155838552600590925283200180546134d4906137ed565b9055808252600560205260036040832001805490600160401b821015612f2d578161350791600161352594018155613812565b81546001600160a01b0360039290921b91821b19163390911b179055565b33907f1d18952d7acb915ed6686f58ab4c7032bb2fe6eb66a0a83c351fec85c2c235248380a380f35b60405162461bcd60e51b815260206004820152601a60248201527f43616e6e6f74206c696b65206f776e207375626d697373696f6e0000000000006044820152606490fd5b60405162461bcd60e51b815260206004820152600d60248201526c105b1c9958591e481b1a5ad959609a1b6044820152606490fd5b50600a54811115613452565b9050346105855760203660031901126105855760043563ffffffff60e01b81168091036106fb5760209250637965db0b60e01b8114908115613618575b5015158152f35b6301ffc9a760e01b14905038613611565b9181601f84011215613656578235916001600160401b038311613656576020838186019501011161365657565b600080fd5b906020808351928381520192019060005b8181106136795750505090565b825184526020938401939092019160010161366c565b602435906001600160a01b038216820361365657565b600435906001600160a01b038216820361365657565b9181601f84011215613656578235916001600160401b038311613656576020808501948460051b01011161365657565b906020808351928381520192019060005b8181106137095750505090565b82516001600160a01b03168452602093840193909201916001016136fc565b60005b83811061373b5750506000910152565b818101518382015260200161372b565b9060209161376481518092818552858086019101613728565b601f01601f1916010190565b90600682101561377d5752565b634e487b7160e01b600052602160045260246000fd5b6040906003190112613656576004359060243590565b156137b057565b60405162461bcd60e51b8152602060048201526015602482015274125b9d985b1a59081cdd589b5a5cdcda5bdb881251605a1b6044820152606490fd5b60001981146137fc5760010190565b634e487b7160e01b600052601160045260246000fd5b805482101561382a5760005260206000200190600090565b634e487b7160e01b600052603260045260246000fd5b60c081019081106001600160401b0382111761385b57604052565b634e487b7160e01b600052604160045260246000fd5b6101e081019081106001600160401b0382111761385b57604052565b608081019081106001600160401b0382111761385b57604052565b90601f801991011681019081106001600160401b0382111761385b57604052565b156138d057565b60405162461bcd60e51b8152602060048201526013602482015272496e76616c69642073636f72652072616e676560681b6044820152606490fd5b6001600160401b03811161385b57601f01601f191660200190565b81601f8201121561365657805161393c8161390b565b9261394a60405194856138a8565b81845260208284010111613656576139689160208085019101613728565b90565b51906001600160a01b038216820361365657565b5190811515820361365657565b6001600160401b03811161385b5760051b60200190565b602081830312613656578051906001600160401b03821161365657019061026082820312613656576040519161026083018381106001600160401b0382111761385b576040528051835260208101516001600160401b0381116136565782613a0c918301613926565b6020840152613a1d6040820161396b565b604084015260608101516001600160401b0381116136565782613a41918301613926565b606084015260808101516001600160401b0381116136565782613a65918301613926565b608084015260a08101516001600160401b0381116136565782613a89918301613926565b60a084015260c081015160038110156136565760c084015260e081015160058110156136565760e0840152610100810151610100840152613acd610120820161396b565b6101208401526101408101516101408401526101608101516101608401526101808101516101808401526101a08101516101a08401526101c08101516101c08401526101e08101516101e0840152610200810151610200840152613b34610220820161397f565b610220840152610240810151906001600160401b03821161365657019080601f83011215613656578151613b678161398c565b92613b7560405194856138a8565b81845260208085019260051b820101918383116136565760208201905b838210613ba757505050505061024082015290565b81516001600160401b03811161365657602091613bc987848094880101613926565b815201910190613b92565b929192613be08261390b565b91613bee60405193846138a8565b829481845281830111613656578281602093846000960137010152565b90600182811c92168015613c3b575b6020831014613c2557565b634e487b7160e01b600052602260045260246000fd5b91607f1691613c1a565b818110613c50575050565b60008155600101613c45565b9190601f8111613c6b57505050565b613c97926000526020600020906020601f840160051c83019310613c99575b601f0160051c0190613c45565b565b9091508190613c8a565b9060405191826000825492613cb784613c0b565b8084529360018116908115613d235750600114613cdc575b50613c97925003836138a8565b90506000929192526020600020906000915b818310613d07575050906020613c979282010138613ccf565b6020919350806001915483858901015201910190918492613cee565b905060209250613c9794915060ff191682840152151560051b82010138613ccf565b805182101561382a5760209160051b010190565b8115613d63570490565b634e487b7160e01b600052601260045260246000fd5b15613d8057565b60405162461bcd60e51b815260206004820152601060248201526f5175657374206e6f742061637469766560801b6044820152606490fd5b15613dbf57565b60405162461bcd60e51b815260206004820152601a60248201527f5375626d697373696f6e20646561646c696e65207061737365640000000000006044820152606490fd5b919081101561382a5760051b0190565b356001600160a01b03811681036136565790565b600682101561377d5752565b90600160401b811161385b57815491818155828210613e5257505050565b600052602060002091820191015b818110613e6b575050565b80613e7860019254613c0b565b80613e85575b5001613e60565b601f81118314613e9b5750600081555b38613e7e565b613eb9908260005283601f6020600020920160051c82019101613c45565b8060005260006020812081835555613e95565b8054600160401b81101561385b57613ee991600182018155613812565b819291549060031b91821b91600019901b1916179055565b90613f0b8261398c565b613f1860405191826138a8565b8281528092613f29601f199161398c565b0190602036910137565b906040519182815491828252602082019060005260206000209260005b818110613f65575050613c97925003836138a8565b84546001600160a01b0316835260019485019487945060209093019201613f50565b906139689180151580613fa3575b613f9e906137a9565b613faf565b50600a54811115613f95565b806000526003602052604060002091604051613fca81613871565b8354815260018401546020820190815260028501546001600160a01b0316604083019081529091613ffd60038701613f33565b956060820196875261401160048201613ca3565b608083015261402260058201613ca3565b60a08301526006810180546140368161398c565b9161404460405193846138a8565b818352602083019060005260206000206000915b8383106142ad5750505050600d6101c09260ff9260c086015261407d60078201613ca3565b60e0860152614096836008830154166101008701613e28565b6009810154610120860152600a810154610140860152600b8101546101608601526140c3600c8201613ca3565b61018086015201546001600160a01b038082166101a086015260a09190911c91909116151591909201529051838216949116841461414f57600052600960205260406000208360005260205260ff604060002054166142a45760005b845180518210156141595784906001600160a01b0390614140908490613d45565b51161461414f5760010161411f565b5050505050600090565b505091925060018060a01b03600d54169282516040519063127e1bcd60e21b82526004820152600081602481885afa801561426c578291600091614289575b50604001516001600160a01b0316146142805760009081527f5c91a81dd90adcbb976f07115cdaa60f95931610e4c2893856278a1e5607a9cc602052604090205460ff1661427857905160405163758d9b8960e01b815260048101919091526001600160a01b03909116602482015290602090829060449082905afa90811561426c57600091614232575b5061422d57600090565b600190565b90506020813d602011614264575b8161424d602093836138a8565b810103126136565761425e9061397f565b38614223565b3d9150614240565b6040513d6000823e3d90fd5b505050600190565b50505050600190565b61429e91503d806000833e610d0481836138a8565b38614198565b50505050600090565b6001602081926142bc85613ca3565b815201920192019190614058565b156142d157565b60405162461bcd60e51b81526020600482015260116024820152702737ba103a34329039bab136b4ba3a32b960791b6044820152606490fd5b919091600052600660205260406000206040518082602082945493848152019060005260206000209260005b8181106144de57505061434b925003826138a8565b8051156144c15761435c8151613f01565b6143668251613f01565b9360005b83518110156143b9578061438060019286613d45565b5161438b8286613d45565b526143968186613d45565b516000526003602052600b604060002001546143b28289613d45565b520161436a565b509150916000915b845183101561446c57600183018084116137fc575b8551811015614461576001906143ec8588613d45565b516143f78289613d45565b5111614404575b016143d6565b61440e8588613d45565b516144198289613d45565b51614424878a613d45565b5261442f8289613d45565b5261443a8587613d45565b516144458288613d45565b516144508789613d45565b5261445b8288613d45565b526143fe565b5091600101916143c1565b91509192508251908181116000146144ba57505b61448981613f01565b9060005b81811061449b575090925050565b806144a860019287613d45565b516144b38286613d45565b520161448d565b9050614480565b5090506040516144d26020826138a8565b60008152600036813790565b8454835260019485019486945060209093019201614336565b80156137fc576000190190565b3360009081527f7d7ffb7a348e1c6a02869081a26547b49160dd3df72d1d75a570eb9b698292ec602052604090205460ff161561453d57565b61461961454933614732565b6145f960116145777fa49807205ce4d355092ef5a8a18f56e8913cf4a201fbe287825b095693c2177561485e565b9260376040519485927f416363657373436f6e74726f6c3a206163636f756e742000000000000000000060208501526145b98151809260208688019101613728565b83017001034b99036b4b9b9b4b733903937b6329607d1b838201526145e8825180936020604885019101613728565b01010301601f1981018352826138a8565b60405162461bcd60e51b815260206004820152918291602483019061374b565b0390fd5b60008181526020818152604080832033845290915290205460ff16156146405750565b614619906145f9601161457761465533614732565b9361485e565b60ff6002541661466757565b60405162461bcd60e51b815260206004820152601060248201526f14185d5cd8589b194e881c185d5cd95960821b6044820152606490fd5b6000818152602081815260408083206001600160a01b038616845290915290205460ff166146cb575050565b6000818152602081815260408083206001600160a01b0395909516808452949091528120805460ff19169055339291907ff6391f5c32d9c69d2a47ea670b442974b53935d1edc7fd64eb21e047a839171b9080a4565b90815181101561382a570160200190565b60009061473f602a61390b565b9161474d60405193846138a8565b602a835261475b602a61390b565b6020840190601f190136823783511561484a5760309053825160011015614836576078602184015350602960005b600182116147de57505061479a5790565b606460405162461bcd60e51b815260206004820152602060248201527f537472696e67733a20686578206c656e67746820696e73756666696369656e746044820152fd5b9091600f811660108110156148225761481c91906f181899199a1a9b1b9c1cb0b131b232b360811b901a6148128587614721565b5360041c926144f7565b90614789565b634e487b7160e01b83526032600452602483fd5b634e487b7160e01b81526032600452602490fd5b634e487b7160e01b82526032600452602482fd5b60009061486b604261390b565b9161487960405193846138a8565b60428352614887604261390b565b6020840190601f190136823783511561484a5760309053825160011015614836576078602184015350604160005b600182116148c657505061479a5790565b9091600f81166010811015614822576148fa91906f181899199a1a9b1b9c1cb0b131b232b360811b901a6148128587614721565b906148b556fe2a33518aaebd6b3011128d7e4c7457cc6af29ecc8d0dd338fc55bca25f9d5a2cc10c77be35aff266144ed64c26a1fa104bae2f284ae99ac4a34203454704a185a26469706673582212207360fab4f924999c15c394c79269d50540f287f388b90bceda4351ec306f73a164736f6c634300081c00332f8788117e7eff1d82e926ec794901d17c78024a50270940304540a733656f0d7d7ffb7a348e1c6a02869081a26547b49160dd3df72d1d75a570eb9b698292ecad3228b676f7d3cd4284a5443f17f1962b36e491b30a40b2405849e597ba5fb5",
  "linkReferences": {},
  "deployedLinkReferences": {}
}