{
  "_format": "hh-sol-artifact-1",
  "contractName": "SubmissionManager",
  "sourceName": "contracts/SubmissionManager.sol",
  "abi": [
    {
      "inputs": [
        {
          "internalType": "address",
          "name": "_questBoard",
          "type": "address"
        },
        {
          "internalType": "address",
          "name": "_userProfile",
          "type": "address"
        },
        {
          "internalType": "address",
          "name": "_collaborationManager",
          "type": "address"
        },
        {
          "internalType": "address",
          "name": "_rewardManager",
          "type": "address"
        }
      ],
      "stateMutability": "nonpayable",
      "type": "constructor"
    },
    {
      "anonymous": false,
      "inputs": [
        {
          "indexed": false,
          "internalType": "address",
          "name": "account",
          "type": "address"
        }
      ],
      "name": "Paused",
      "type": "event"
    },
    {
      "anonymous": false,
      "inputs": [
        {
          "indexed": true,
          "internalType": "bytes32",
          "name": "role",
          "type": "bytes32"
        },
        {
          "indexed": true,
          "internalType": "bytes32",
          "name": "previousAdminRole",
          "type": "bytes32"
        },
        {
          "indexed": true,
          "internalType": "bytes32",
          "name": "newAdminRole",
          "type": "bytes32"
        }
      ],
      "name": "RoleAdminChanged",
      "type": "event"
    },
    {
      "anonymous": false,
      "inputs": [
        {
          "indexed": true,
          "internalType": "bytes32",
          "name": "role",
          "type": "bytes32"
        },
        {
          "indexed": true,
          "internalType": "address",
          "name": "account",
          "type": "address"
        },
        {
          "indexed": true,
          "internalType": "address",
          "name": "sender",
          "type": "address"
        }
      ],
      "name": "RoleGranted",
      "type": "event"
    },
    {
      "anonymous": false,
      "inputs": [
        {
          "indexed": true,
          "internalType": "bytes32",
          "name": "role",
          "type": "bytes32"
        },
        {
          "indexed": true,
          "internalType": "address",
          "name": "account",
          "type": "address"
        },
        {
          "indexed": true,
          "internalType": "address",
          "name": "sender",
          "type": "address"
        }
      ],
      "name": "RoleRevoked",
      "type": "event"
    },
    {
      "anonymous": false,
      "inputs": [
        {
          "indexed": true,
          "internalType": "uint256",
          "name": "submissionId",
          "type": "uint256"
        },
        {
          "indexed": true,
          "internalType": "address",
          "name": "commenter",
          "type": "address"
        }
      ],
      "name": "SubmissionCommented",
      "type": "event"
    },
    {
      "anonymous": false,
      "inputs": [
        {
          "indexed": true,
          "internalType": "uint256",
          "name": "submissionId",
          "type": "uint256"
        },
        {
          "indexed": true,
          "internalType": "uint256",
          "name": "questId",
          "type": "uint256"
        },
        {
          "indexed": true,
          "internalType": "address",
          "name": "submitter",
          "type": "address"
        },
        {
          "indexed": false,
          "internalType": "bool",
          "name": "isTeamSubmission",
          "type": "bool"
        }
      ],
      "name": "SubmissionCreated",
      "type": "event"
    },
    {
      "anonymous": false,
      "inputs": [
        {
          "indexed": true,
          "internalType": "uint256",
          "name": "submissionId",
          "type": "uint256"
        },
        {
          "indexed": true,
          "internalType": "address",
          "name": "user",
          "type": "address"
        }
      ],
      "name": "SubmissionLiked",
      "type": "event"
    },
    {
      "anonymous": false,
      "inputs": [
        {
          "indexed": true,
          "internalType": "uint256",
          "name": "submissionId",
          "type": "uint256"
        },
        {
          "indexed": true,
          "internalType": "address",
          "name": "reviewer",
          "type": "address"
        },
        {
          "indexed": false,
          "internalType": "uint256",
          "name": "score",
          "type": "uint256"
        },
        {
          "indexed": false,
          "internalType": "bool",
          "name": "approved",
          "type": "bool"
        }
      ],
      "name": "SubmissionReviewed",
      "type": "event"
    },
    {
      "anonymous": false,
      "inputs": [
        {
          "indexed": true,
          "internalType": "uint256",
          "name": "submissionId",
          "type": "uint256"
        },
        {
          "indexed": false,
          "internalType": "enum ISubmissionManager.SubmissionStatus",
          "name": "status",
          "type": "uint8"
        }
      ],
      "name": "SubmissionUpdated",
      "type": "event"
    },
    {
      "anonymous": false,
      "inputs": [
        {
          "indexed": false,
          "internalType": "address",
          "name": "account",
          "type": "address"
        }
      ],
      "name": "Unpaused",
      "type": "event"
    },
    {
      "anonymous": false,
      "inputs": [
        {
          "indexed": true,
          "internalType": "uint256",
          "name": "questId",
          "type": "uint256"
        },
        {
          "indexed": true,
          "internalType": "uint256",
          "name": "submissionId",
          "type": "uint256"
        }
      ],
      "name": "WinnerSelected",
      "type": "event"
    },
    {
      "inputs": [],
      "name": "ADMIN_ROLE",
      "outputs": [
        {
          "internalType": "bytes32",
          "name": "",
          "type": "bytes32"
        }
      ],
      "stateMutability": "view",
      "type": "function"
    },
    {
      "inputs": [],
      "name": "DEFAULT_ADMIN_ROLE",
      "outputs": [
        {
          "internalType": "bytes32",
          "name": "",
          "type": "bytes32"
        }
      ],
      "stateMutability": "view",
      "type": "function"
    },
    {
      "inputs": [],
      "name": "REVIEWER_ROLE",
      "outputs": [
        {
          "internalType": "bytes32",
          "name": "",
          "type": "bytes32"
        }
      ],
      "stateMutability": "view",
      "type": "function"
    },
    {
      "inputs": [
        {
          "internalType": "uint256",
          "name": "submissionId",
          "type": "uint256"
        },
        {
          "internalType": "address",
          "name": "user",
          "type": "address"
        }
      ],
      "name": "canUserReview",
      "outputs": [
        {
          "internalType": "bool",
          "name": "",
          "type": "bool"
        }
      ],
      "stateMutability": "view",
      "type": "function"
    },
    {
      "inputs": [],
      "name": "collaborationManager",
      "outputs": [
        {
          "internalType": "contract ICollaborationManager",
          "name": "",
          "type": "address"
        }
      ],
      "stateMutability": "view",
      "type": "function"
    },
    {
      "inputs": [
        {
          "internalType": "uint256",
          "name": "submissionId",
          "type": "uint256"
        },
        {
          "internalType": "string",
          "name": "comment",
          "type": "string"
        }
      ],
      "name": "commentOnSubmission",
      "outputs": [],
      "stateMutability": "nonpayable",
      "type": "function"
    },
    {
      "inputs": [
        {
          "internalType": "uint256",
          "name": "questId",
          "type": "uint256"
        },
        {
          "internalType": "string",
          "name": "title",
          "type": "string"
        },
        {
          "internalType": "string",
          "name": "description",
          "type": "string"
        },
        {
          "internalType": "string[]",
          "name": "fileHashes",
          "type": "string[]"
        },
        {
          "internalType": "string",
          "name": "metadataURI",
          "type": "string"
        },
        {
          "internalType": "address[]",
          "name": "collaborators",
          "type": "address[]"
        }
      ],
      "name": "createSubmission",
      "outputs": [
        {
          "internalType": "uint256",
          "name": "submissionId",
          "type": "uint256"
        }
      ],
      "stateMutability": "nonpayable",
      "type": "function"
    },
    {
      "inputs": [
        {
          "internalType": "uint256",
          "name": "questId",
          "type": "uint256"
        }
      ],
      "name": "getQuestSubmissions",
      "outputs": [
        {
          "internalType": "uint256[]",
          "name": "",
          "type": "uint256[]"
        }
      ],
      "stateMutability": "view",
      "type": "function"
    },
    {
      "inputs": [
        {
          "internalType": "bytes32",
          "name": "role",
          "type": "bytes32"
        }
      ],
      "name": "getRoleAdmin",
      "outputs": [
        {
          "internalType": "bytes32",
          "name": "",
          "type": "bytes32"
        }
      ],
      "stateMutability": "view",
      "type": "function"
    },
    {
      "inputs": [
        {
          "internalType": "uint256",
          "name": "submissionId",
          "type": "uint256"
        }
      ],
      "name": "getSubmission",
      "outputs": [
        {
          "components": [
            {
              "internalType": "uint256",
              "name": "id",
              "type": "uint256"
            },
            {
              "internalType": "uint256",
              "name": "questId",
              "type": "uint256"
            },
            {
              "internalType": "address",
              "name": "submitter",
              "type": "address"
            },
            {
              "internalType": "address[]",
              "name": "collaborators",
              "type": "address[]"
            },
            {
              "internalType": "string",
              "name": "title",
              "type": "string"
            },
            {
              "internalType": "string",
              "name": "description",
              "type": "string"
            },
            {
              "internalType": "string[]",
              "name": "fileHashes",
              "type": "string[]"
            },
            {
              "internalType": "string",
              "name": "metadataURI",
              "type": "string"
            },
            {
              "internalType": "enum ISubmissionManager.SubmissionStatus",
              "name": "status",
              "type": "uint8"
            },
            {
              "internalType": "uint256",
              "name": "submittedAt",
              "type": "uint256"
            },
            {
              "internalType": "uint256",
              "name": "reviewedAt",
              "type": "uint256"
            },
            {
              "internalType": "uint256",
              "name": "score",
              "type": "uint256"
            },
            {
              "internalType": "string",
              "name": "reviewComments",
              "type": "string"
            },
            {
              "internalType": "address",
              "name": "reviewer",
              "type": "address"
            },
            {
              "internalType": "bool",
              "name": "isTeamSubmission",
              "type": "bool"
            }
          ],
          "internalType": "struct ISubmissionManager.Submission",
          "name": "",
          "type": "tuple"
        }
      ],
      "stateMutability": "view",
      "type": "function"
    },
    {
      "inputs": [
        {
          "internalType": "uint256",
          "name": "submissionId",
          "type": "uint256"
        }
      ],
      "name": "getSubmissionMetrics",
      "outputs": [
        {
          "components": [
            {
              "internalType": "uint256",
              "name": "totalViews",
              "type": "uint256"
            },
            {
              "internalType": "uint256",
              "name": "totalLikes",
              "type": "uint256"
            },
            {
              "internalType": "uint256",
              "name": "totalComments",
              "type": "uint256"
            },
            {
              "internalType": "address[]",
              "name": "likedBy",
              "type": "address[]"
            }
          ],
          "internalType": "struct ISubmissionManager.SubmissionMetrics",
          "name": "",
          "type": "tuple"
        }
      ],
      "stateMutability": "view",
      "type": "function"
    },
    {
      "inputs": [
        {
          "internalType": "uint256",
          "name": "submissionId",
          "type": "uint256"
        }
      ],
      "name": "getSubmissionReviews",
      "outputs": [
        {
          "components": [
            {
              "internalType": "uint256",
              "name": "submissionId",
              "type": "uint256"
            },
            {
              "internalType": "address",
              "name": "reviewer",
              "type": "address"
            },
            {
              "internalType": "uint256",
              "name": "score",
              "type": "uint256"
            },
            {
              "internalType": "string",
              "name": "comments",
              "type": "string"
            },
            {
              "internalType": "uint256",
              "name": "reviewedAt",
              "type": "uint256"
            },
            {
              "internalType": "bool",
              "name": "approved",
              "type": "bool"
            }
          ],
          "internalType": "struct ISubmissionManager.Review[]",
          "name": "",
          "type": "tuple[]"
        }
      ],
      "stateMutability": "view",
      "type": "function"
    },
    {
      "inputs": [
        {
          "internalType": "uint256",
          "name": "questId",
          "type": "uint256"
        },
        {
          "internalType": "uint256",
          "name": "limit",
          "type": "uint256"
        }
      ],
      "name": "getTopSubmissions",
      "outputs": [
        {
          "internalType": "uint256[]",
          "name": "",
          "type": "uint256[]"
        }
      ],
      "stateMutability": "view",
      "type": "function"
    },
    {
      "inputs": [],
      "name": "getTotalSubmissions",
      "outputs": [
        {
          "internalType": "uint256",
          "name": "",
          "type": "uint256"
        }
      ],
      "stateMutability": "view",
      "type": "function"
    },
    {
      "inputs": [
        {
          "internalType": "address",
          "name": "user",
          "type": "address"
        }
      ],
      "name": "getUserSubmissions",
      "outputs": [
        {
          "internalType": "uint256[]",
          "name": "",
          "type": "uint256[]"
        }
      ],
      "stateMutability": "view",
      "type": "function"
    },
    {
      "inputs": [
        {
          "internalType": "address",
          "name": "user",
          "type": "address"
        }
      ],
      "name": "grantReviewerRole",
      "outputs": [],
      "stateMutability": "nonpayable",
      "type": "function"
    },
    {
      "inputs": [
        {
          "internalType": "bytes32",
          "name": "role",
          "type": "bytes32"
        },
        {
          "internalType": "address",
          "name": "account",
          "type": "address"
        }
      ],
      "name": "grantRole",
      "outputs": [],
      "stateMutability": "nonpayable",
      "type": "function"
    },
    {
      "inputs": [
        {
          "internalType": "bytes32",
          "name": "role",
          "type": "bytes32"
        },
        {
          "internalType": "address",
          "name": "account",
          "type": "address"
        }
      ],
      "name": "hasRole",
      "outputs": [
        {
          "internalType": "bool",
          "name": "",
          "type": "bool"
        }
      ],
      "stateMutability": "view",
      "type": "function"
    },
    {
      "inputs": [
        {
          "internalType": "uint256",
          "name": "submissionId",
          "type": "uint256"
        }
      ],
      "name": "likeSubmission",
      "outputs": [],
      "stateMutability": "nonpayable",
      "type": "function"
    },
    {
      "inputs": [],
      "name": "pause",
      "outputs": [],
      "stateMutability": "nonpayable",
      "type": "function"
    },
    {
      "inputs": [],
      "name": "paused",
      "outputs": [
        {
          "internalType": "bool",
          "name": "",
          "type": "bool"
        }
      ],
      "stateMutability": "view",
      "type": "function"
    },
    {
      "inputs": [],
      "name": "questBoard",
      "outputs": [
        {
          "internalType": "contract IQuestBoard",
          "name": "",
          "type": "address"
        }
      ],
      "stateMutability": "view",
      "type": "function"
    },
    {
      "inputs": [
        {
          "internalType": "bytes32",
          "name": "role",
          "type": "bytes32"
        },
        {
          "internalType": "address",
          "name": "account",
          "type": "address"
        }
      ],
      "name": "renounceRole",
      "outputs": [],
      "stateMutability": "nonpayable",
      "type": "function"
    },
    {
      "inputs": [
        {
          "internalType": "uint256",
          "name": "submissionId",
          "type": "uint256"
        },
        {
          "internalType": "uint256",
          "name": "score",
          "type": "uint256"
        },
        {
          "internalType": "string",
          "name": "comments",
          "type": "string"
        },
        {
          "internalType": "bool",
          "name": "approved",
          "type": "bool"
        }
      ],
      "name": "reviewSubmission",
      "outputs": [],
      "stateMutability": "nonpayable",
      "type": "function"
    },
    {
      "inputs": [
        {
          "internalType": "address",
          "name": "user",
          "type": "address"
        }
      ],
      "name": "revokeReviewerRole",
      "outputs": [],
      "stateMutability": "nonpayable",
      "type": "function"
    },
    {
      "inputs": [
        {
          "internalType": "bytes32",
          "name": "role",
          "type": "bytes32"
        },
        {
          "internalType": "address",
          "name": "account",
          "type": "address"
        }
      ],
      "name": "revokeRole",
      "outputs": [],
      "stateMutability": "nonpayable",
      "type": "function"
    },
    {
      "inputs": [],
      "name": "rewardManager",
      "outputs": [
        {
          "internalType": "contract IRewardManager",
          "name": "",
          "type": "address"
        }
      ],
      "stateMutability": "view",
      "type": "function"
    },
    {
      "inputs": [
        {
          "internalType": "uint256",
          "name": "questId",
          "type": "uint256"
        },
        {
          "internalType": "uint256[]",
          "name": "submissionIds",
          "type": "uint256[]"
        }
      ],
      "name": "selectWinners",
      "outputs": [],
      "stateMutability": "nonpayable",
      "type": "function"
    },
    {
      "inputs": [
        {
          "internalType": "uint256",
          "name": "minScore",
          "type": "uint256"
        },
        {
          "internalType": "uint256",
          "name": "maxScore",
          "type": "uint256"
        }
      ],
      "name": "setReviewScoreRange",
      "outputs": [],
      "stateMutability": "nonpayable",
      "type": "function"
    },
    {
      "inputs": [
        {
          "internalType": "uint256",
          "name": "submissionId",
          "type": "uint256"
        }
      ],
      "name": "submitForReview",
      "outputs": [],
      "stateMutability": "nonpayable",
      "type": "function"
    },
    {
      "inputs": [
        {
          "internalType": "bytes4",
          "name": "interfaceId",
          "type": "bytes4"
        }
      ],
      "name": "supportsInterface",
      "outputs": [
        {
          "internalType": "bool",
          "name": "",
          "type": "bool"
        }
      ],
      "stateMutability": "view",
      "type": "function"
    },
    {
      "inputs": [
        {
          "internalType": "uint256",
          "name": "submissionId",
          "type": "uint256"
        }
      ],
      "name": "unlikeSubmission",
      "outputs": [],
      "stateMutability": "nonpayable",
      "type": "function"
    },
    {
      "inputs": [],
      "name": "unpause",
      "outputs": [],
      "stateMutability": "nonpayable",
      "type": "function"
    },
    {
      "inputs": [
        {
          "internalType": "uint256",
          "name": "submissionId",
          "type": "uint256"
        },
        {
          "internalType": "string",
          "name": "title",
          "type": "string"
        },
        {
          "internalType": "string",
          "name": "description",
          "type": "string"
        },
        {
          "internalType": "string[]",
          "name": "fileHashes",
          "type": "string[]"
        },
        {
          "internalType": "string",
          "name": "metadataURI",
          "type": "string"
        }
      ],
      "name": "updateSubmission",
      "outputs": [],
      "stateMutability": "nonpayable",
      "type": "function"
    },
    {
      "inputs": [],
      "name": "userProfile",
      "outputs": [
        {
          "internalType": "contract IUserProfile",
          "name": "",
          "type": "address"
        }
      ],
      "stateMutability": "view",
      "type": "function"
    },
    {
      "inputs": [
        {
          "internalType": "uint256",
          "name": "submissionId",
          "type": "uint256"
        }
      ],
      "name": "withdrawSubmission",
      "outputs": [],
      "stateMutability": "nonpayable",
      "type": "function"
    }
  ],
  "bytecode": "0x6080346101d357601f614bb238819003918201601f19168301916001600160401b038311848410176101d8578084926080946040528339810103126101d357610047816101ee565b90610054602082016101ee565b61006c6060610065604085016101ee565b93016101ee565b600180556002805460ff191690556000600b8190556064600c55338152600080516020614b92833981519152602052604090205490939060ff1615610193575b336000908152600080516020614b72833981519152602052604090205460ff1615610131575b600d80546001600160a01b03199081166001600160a01b0393841617909155600e8054821693831693909317909255600f8054831693821693909317909255601080549091169290911691909117905560405161494f90816102038239f35b336000818152600080516020614b7283398151915260205260408120805460ff1916600117905581907fa49807205ce4d355092ef5a8a18f56e8913cf4a201fbe287825b095693c2177590600080516020614b528339815191529080a46100d2565b336000818152600080516020614b9283398151915260205260408120805460ff191660011790558190600080516020614b528339815191528180a46100ac565b600080fd5b634e487b7160e01b600052604160045260246000fd5b51906001600160a01b03821682036101d35756fe60c080604052600436101561001357600080fd5b600090813560e01c90816301ffc9a7146135d357508063060aad35146134335780630f4ef8a61461340a57806311d968f91461332857806313122798146132ff57806313da41e81461329b578063248a9ca3146132655780632a5de3501461323c5780632f2ff15d1461317e5780633011e3531461294a578063363fac0f14611b4257806336568abe14611aaf5780633b129a5614611a865780633e8686cc146117325780633f4ba83a1461169d57806342326ef8146115db57806342e9db97146115125780634872f344146114e157806348febf9714610fe657806354554d4614610fc85780635c975abb14610fa557806375b238fc14610f6a57806379bf9cfa14610f3e5780638311879c14610dbd5780638456cb5914610d625780638a3b37e214610c0d57806391d1485414610bc2578063938de8c314610ba75780639b2c282514610b7e578063a06ac73814610a79578063a217fddf14610a5d578063a7b8614d146109d3578063d547741f1461098a578063da41f68e146108c4578063e2da433f146107005763ef3977f7146101ad57600080fd5b346106fd5760a03660031901126106fd576004356024356001600160401b0381116106fb576101e0903690600401613628565b6044356001600160401b0381116106f7576101ff903690600401613628565b916064356001600160401b0381116106f35761021f9036906004016136ba565b906084356001600160401b0381116106ef5761023f903690600401613628565b949095881515806106e3575b610254906137a8565b888a52600360205261027660018060a01b03600260408d2001541633146142a3565b888a52600360205260408a2094600886019860ff8a541660068110156106cf5761067f5760048701916001600160401b03811161066b576102c1816102bb8554613be4565b85613c35565b8c918d601f8311600114610606576102f0939091836103f0575b50508160011b916000199060031b1c19161790565b90555b60058501916001600160401b0382116105f257610314826102bb8554613be4565b8a90601f831160011461058d5761034292918c91836103f05750508160011b916000199060031b1c19161790565b9055905b60068301916103558284613e0d565b8092895260208920928991601e1981360301915b84841061048857505050505050600701916001600160401b03821161047457610396826102bb8554613be4565b8590601f83116001146103fb57926103da8360ff946000805160206148da83398151915297946020978b926103f05750508160011b916000199060031b1c19161790565b90555b54166103ec604051809261376f565ba280f35b0135905038806102db565b8387526020872091601f198416885b81811061045c5750936000805160206148da8339815191529693602096936001938360ff9810610442575b505050811b0190556103dd565b0135600019600384901b60f8161c19169055388080610435565b9193602060018192878701358155019501920161040a565b634e487b7160e01b86526041600452602486fd5b8035838112156105895782018c8135916001600160401b038311610585578236036020820113610585576104c6836104c08b54613be4565b8b613c35565b81601f84116001146105175783600195929460209487966104fb949261050a5750508160011b916000199060031b1c19161790565b89555b01960193019294610369565b86925001013538806102db565b91601f1984168a845260208420935b81811061056b575093602093600196938796938388951061054f575b505050811b0189556104fe565b01850135600019600384901b60f8161c19169055388080610542565b919360206001819282888801013581550195019201610526565b5080fd5b8c80fd5b838c5260208c2091601f1984168d5b8181106105da57509084600195949392106105c0575b505050811b01905590610346565b0135600019600384901b60f8161c191690553880806105b2565b9193602060018192878701358155019501920161059c565b634e487b7160e01b8b52604160045260248bfd5b9192601f19841685845260208420935b8181106106535750908460019594939210610639575b505050811b0190556102f3565b0135600019600384901b60f8161c1916905538808061062c565b91936020600181928787013581550195019201610616565b634e487b7160e01b8d52604160045260248dfd5b60405162461bcd60e51b815260206004820152602260248201527f43616e6e6f7420757064617465207375626d6974746564207375626d6973736960448201526137b760f11b6064820152608490fd5b634e487b7160e01b8d52602160045260248dfd5b50600a5489111561024b565b8880fd5b8680fd5b8480fd5b825b80fd5b50346106fd5760203660031901126106fd57600435801515806108b8575b610727906137a8565b808252600860209081526040808420336000908152925290205460ff16156108875780825260086020526040822060018060a01b033316600052602052604060002060ff19815416905580825260056020526001604083200161078a81546144d0565b90558152600560205260036040822001815b815480821015610881576107b08284613811565b905460039190911b1c6001600160a01b031633146107d1575060010161079c565b600019810190811161086d57906108076107ee61082b9385613811565b905460039190911b1c6001600160a01b03169184613811565b81546001600160a01b0393841660039290921b91821b9390911b1916919091179055565b805480156108595760001901906108428282613811565b81549060018060a01b039060031b1b191690555580f35b634e487b7160e01b83526031600452602483fd5b634e487b7160e01b84526011600452602484fd5b50505080f35b60405162461bcd60e51b8152602060048201526009602482015268139bdd081b1a5ad95960ba1b6044820152606490fd5b50600a5481111561071e565b50346106fd5760203660031901126106fd576108de6136a4565b6108e66144dd565b6000805160206148fa8339815191528252602082815260408084206001600160a01b0384166000908152925290205460ff1615610921575080f35b6000805160206148fa833981519152808352602083815260408085206001600160a01b0394909416600081815294909252909220805460ff191660011790553391907f2f8788117e7eff1d82e926ec794901d17c78024a50270940304540a733656f0d8480a480f35b50346106fd5760403660031901126106fd576109d06004356109aa61368e565b906109cb6109c682600052600060205260016040600020015490565b6145f6565b614678565b80f35b50346106fd5760203660031901126106fd576001600160a01b036109f56136a4565b168152600760205260408120604051918260208354918281520192825260208220915b818110610a4757610a4385610a2f818703826138a7565b60405191829160208352602083019061365a565b0390f35b8254845260209093019260019283019201610a18565b50346106fd57806003193601126106fd57602090604051908152f35b50346106fd5760203660031901126106fd5760043580151580610b72575b610aa0906137a8565b8082526003602052610ac260018060a01b0360026040852001541633146142a3565b8082526003602052604082206008810160ff8154166006811015610b5e5760018114908115610b53575b5015610b1c57839160099160ff19815416905501556000805160206148da8339815191526020604051848152a280f35b60405162461bcd60e51b815260206004820152600f60248201526e43616e6e6f7420776974686472617760881b6044820152606490fd5b600291501438610aec565b634e487b7160e01b85526021600452602485fd5b50600a54811115610a97565b50346106fd57806003193601126106fd57600f546040516001600160a01b039091168152602090f35b50346106fd57610a43610a2f610bbc36613792565b906142e3565b50346106fd5760403660031901126106fd576040610bde61368e565b91600435815280602052209060018060a01b0316600052602052602060ff604060002054166040519015158152f35b50346106fd5760203660031901126106fd5760043580151580610d56575b610c34906137a8565b8082526003602052610c5660018060a01b0360026040852001541633146142a3565b8082526003602052604082206008810160ff8154166006811015610b5e57610d1d5760018060a01b03600d541684600184015460246040518094819363127e1bcd60e21b835260048301525afa908115610d1257610cc391610180918791610cf0575b5001514210613d91565b600160ff198254161790556009429101556000805160206148da833981519152602060405160018152a280f35b610d0c91503d8089833e610d0481836138a7565b8101906139a2565b38610cb9565b6040513d87823e3d90fd5b60405162461bcd60e51b8152602060048201526011602482015270105b1c9958591e481cdd589b5a5d1d1959607a1b6044820152606490fd5b50600a54811115610c2b565b50346106fd57806003193601126106fd57610d7b6144dd565b610d83614634565b600160ff1960025416176002557f62e78cea01bee320cd4e420270b5ea74000d11b0c9f74754ebdbfc544b05a2586020604051338152a180f35b50346106fd5760203660031901126106fd5760043580151580610f32575b610de4906137a8565b81526004602052604081208054610dfa8161398b565b90610e0860405192836138a7565b80825260208201809385526020852085915b838310610eca57868587604051928392602084019060208552518091526040840160408260051b8601019392905b828210610e5757505050500390f35b919360019193955060208091603f1989820301855287519081518152848060a01b038383015116838201526040820151604082015260a080610ea8606085015160c0606086015260c085019061374a565b9360808101516080850152015115159101529601920192018594939192610e48565b60066020600192604051610edd8161383f565b85548152848060a01b0385870154168382015260028601546040820152610f0660038701613c7c565b60608201526004860154608082015260ff600587015416151560a0820152815201920192019190610e1a565b50600a54811115610ddb565b50346106fd57610f4d36613792565b90610f566144dd565b610f618282106138c8565b600b55600c5580f35b50346106fd57806003193601126106fd5760206040517fa49807205ce4d355092ef5a8a18f56e8913cf4a201fbe287825b095693c217758152f35b50346106fd57806003193601126106fd57602060ff600254166040519015158152f35b50346106fd57806003193601126106fd576020600a54604051908152f35b50346106fd5760403660031901126106fd57602435906004356001600160401b0383116105855761101d60249336906004016136ba565b93908360018060a01b03600d54166040519384809263127e1bcd60e21b82528760048301525afa9182156114d65784926114ba575b5060208201516001600160a01b031633036114675760c08201516005811015610b5e5760016110819114613d52565b61108a85613eda565b9460e061109682613eda565b9301916110a4828451613d32565b9086915b8383106111925750505015159081611187575b506110c4578280f35b6010546001600160a01b031690813b1561118357604094919451926349b9664560e11b845260648401906004850152606060248501528251809152602060848501930190855b8181106111645750505083948385816111318296829660031984830301604485015261365a565b03925af180156111595761114457808280f35b8161114e916138a7565b6106fd578038808280f35b6040513d84823e3d90fd5b82516001600160a01b031685526020948501949092019160010161110a565b8380fd5b9050511515386110bb565b93909594919697926111a5888289613ddd565b3596878a52600360205286600160408c2001540361142257878a52600360205260ff600860408c20015416600681101561140e576001036113c957878a52600360205260408a20600801805460ff1916600517905587877fca1dae47f36d2b335e85f1cb82f7d34f0a5ea31328e3ab461cbd70219ec90c9e8c80a3878a52600360205260408a20600201548a906001600160a01b0316806112468c89613d1e565b52876112528c88613d1e565b52600e546001600160a01b031690813b156106fb578960c484928360405195869485936360ee8a5560e11b855260048501526014602485015260806044850152600c60848501526b38bab2b9ba2fbbb4b73732b960a11b60a485015260648401525af18015611159576113b0575b505b888b526003602052600360408c20015481101561139a578a60018060a01b03600e54168a825260036020526112fd8360036040852001613811565b905460039190911b1c6001600160a01b0316813b156106fb578a60c484928360405195869485936360ee8a5560e11b85526004850152600a602485015260806044850152601460848501527331b7b63630b137b930ba34b7b72fbbb4b73732b960611b60a485015260648401525af1801561115957611381575b50506001016112c2565b8161138b916138a7565b611396578a38611377565b8a80fd5b50929596509297966001909491940191906110a8565b816113ba916138a7565b6113c55789386112c0565b8980fd5b60405162461bcd60e51b815260206004820152601860248201527f5375626d697373696f6e206e6f74207375626d697474656400000000000000006044820152606490fd5b634e487b7160e01b8b52602160045260248bfd5b60405162461bcd60e51b815260206004820152601d60248201527f5375626d697373696f6e206e6f7420666f7220746869732071756573740000006044820152606490fd5b60405162461bcd60e51b815260206004820152602560248201527f4f6e6c792071756573742063726561746f722063616e2073656c6563742077696044820152646e6e65727360d81b6064820152608490fd5b6114cf9192503d8086833e610d0481836138a7565b9038611052565b6040513d86823e3d90fd5b50346106fd5760403660031901126106fd57602061150861150061368e565b600435613f60565b6040519015158152f35b50346106fd5760203660031901126106fd5760409060043560608084516115388161388c565b84815284602082015284868201520152801515806115cf575b61155a906137a8565b815260056020522060405161156e8161388c565b81548152610a436001830154926020830193845261159a60036002830154926040860193845201613f0c565b9060608401918252604051948594602086525160208601525160408501525160608401525160808084015260a08301906136ea565b50600a54811115611551565b50346106fd5760203660031901126106fd576115f56136a4565b6115fd6144dd565b6000805160206148fa8339815191528252602082815260408084206001600160a01b0384166000908152925290205460ff16611637575080f35b6000805160206148fa833981519152808352602083815260408085206001600160a01b0394909416600081815294909252909220805460ff191690553391907ff6391f5c32d9c69d2a47ea670b442974b53935d1edc7fd64eb21e047a839171b8480a480f35b50346106fd57806003193601126106fd576116b66144dd565b60025460ff8116156116f65760ff19166002557f5db9ee0a495bf2e6ff9c91a7834c1ba4fdd244a5e8aa4e537bd38aeae4b073aa6020604051338152a180f35b60405162461bcd60e51b815260206004820152601460248201527314185d5cd8589b194e881b9bdd081c185d5cd95960621b6044820152606490fd5b50346106fd5760203660031901126106fd57600435816101c060405161175781613870565b82815282602082015282604082015260608082015260606080820152606060a0820152606060c0820152606060e0820152826101008201528261012082015282610140820152826101608201526060610180820152826101a0820152015280151580611a7a575b6117c7906137a8565b8152600360205260408120604051906117df82613870565b8054825260018101546020830190815260028201546001600160a01b0316604084019081529092909161181460038201613f0c565b6060830190815261182760048301613c7c565b6080840190815261183a60058401613c7c565b60a085019081526006840180546118508161398b565b9161185e60405193846138a7565b8183528a526020808b208b9184015b838310611a5d575050505060c0860190815261188b60078601613c7c565b60e08701908152600886015460ff169961010088019a6118ab908c613e01565b6009870154936101208901948552600a880154956101408a01968752600b890154976101608b01988952600c8a016118e290613c7c565b996101808c019a8b52600d01549a6101a081019c8d8d600160a01b600190031690526101c082019c60a01c60ff1615158d526040519e8f9260208452516020840152516040830152600160a01b6001900390511690606001525160808d016101e090526102008d01611953916136ea565b90518c8203601f190160a08e015261196b919061374a565b90518b8203601f190160c08d0152611983919061374a565b925192601f198b82030160e08c0152835190818152602081018260051b82016020019560200193915b838310611a30575050505050916119ea6119dd611a129795938b9c9795518c610100601f198285030191015261374a565b95516101208b019061376f565b51610140890152516101608801525161018087015251858203601f19016101a087015261374a565b91516001600160a01b03166101c08401525115156101e08301520390f35b9091929395602080611a4e600193601f198682030187528a5161374a565b980193019301919392906119ac565b600160208192611a6c85613c7c565b81520192019201919061186d565b50600a548111156117be565b50346106fd57806003193601126106fd5760206040516000805160206148fa8339815191528152f35b50346106fd5760403660031901126106fd57611ac961368e565b336001600160a01b03821603611ae5576109d090600435614678565b60405162461bcd60e51b815260206004820152602f60248201527f416363657373436f6e74726f6c3a2063616e206f6e6c792072656e6f756e636560448201526e103937b632b9903337b91039b2b63360891b6064820152608490fd5b50346106fd5760c03660031901126106fd576024356001600160401b03811161058557611b73903690600401613628565b916044356001600160401b03811161058557611b93903690600401613628565b92906064356001600160401b03811161118357611bb49036906004016136ba565b906084356001600160401b03811161294657611bd4903690600401613628565b92909360a4356001600160401b0381116125f057611bf69036906004016136ba565b989096600260015414612901576002600155611c10614634565b600d5460405163127e1bcd60e21b815260048035908201526001600160a01b03909116908a81602481855afa9081156128f6578b916128dc575b5060c081015160058110156128c8576001611c659114613d52565b611c756101808201514210613d91565b60405163758d9b8960e01b81526004803590820152336024820152602081604481865afa90811561277e578c9161288e575b5015612849578c1561280c5785156127c7578b612618575b5050611ccc600a546137ec565b9a8b600a5560405160a052611ce260a051613870565b8b60a05152600435602060a051015233604060a0510152611d028b61398b565b611d0f60405191826138a7565b8b8152602081018c60051b8b01368111610589578b915b8183106125f45750505091611d4991611d57959493606060a05101523691613bad565b608060a05101523691613bad565b60a080510152611d668161398b565b91611d7460405193846138a7565b818352602083019160051b8101903682116125f05780925b8284106125b4575050505090611dab929160c060a05101523691613bad565b60e060a0510152600161010060a05101524261012060a05101528161014060a05101528161016060a0510152816080526020608052604051611def608051826138a7565b82815261018060a0510152816101a060a05101528215156101c060a05101528382526003608051526040822060a051518155602060a0510151600182015560018060a01b03604060a051015116600282019060018060a01b03166bffffffffffffffffffffffff60a01b825416179055606060a05101518051906001600160401b03821161239757600160401b8211612397576003830154826003850155808310612595575b50608051016003830185526080518520855b8381106125755750505050608060a05101518051906001600160401b03821161239757611ee482611edb6004860154613be4565b60048601613c35565b60805190601f831160011461250957611f1492918691836122b65750508160011b916000199060031b1c19161790565b60048201555b60a0805101518051906001600160401b03821161239757611f4b82611f426005860154613be4565b60058601613c35565b60805190601f831160011461249857611f7b92918691836122b65750508160011b916000199060031b1c19161790565b60058201555b6006810160c060a051015190815191611f9a8383613e0d565b60805101908552608051852085915b8383106123ab575050505060e060a05101518051906001600160401b03821161239757611fe682611fdd6007860154613be4565b60078601613c35565b60805190601f831160011461232b5761201692918691836122b65750508160011b916000199060031b1c19161790565b60078201555b6008810161010060a05101516006811015610b5e5760ff8019835416911617905561012060a0510151600982015561014060a0510151600a82015561016060a0510151600b820155600c810161018060a05101518051906001600160401b0382116104745761208f826102bb8554613be4565b60805190601f83116001146122c15791806120c492600d96959489926122b65750508160011b916000199060031b1c19161790565b90555b60a080516101a08101519390920180546101c0909301516001600160a81b03199093166001600160a01b039490941693909317911515901b60ff60a01b1617905560043582526080516006905260408220612123908590613ea5565b3382526007608051526121398460408420613ea5565b815b83811061227c5750506080516040519061215590826138a7565b8181526000368137600360405161216b8161388c565b83815260805181018481526040820190858252606083019485528786526005608051526040862092518355516001830155516002820155019051918251926001600160401b03841161226857600160401b841161226857825484845580851061224c575b50608051019181526080518120905b83811061222c57858560405190151581523390827f24d630e73656716315b8229b0843bc9fa09b7f493080436e3966c722e20ec3906004359260805190a46001805560405190815260805190f35b82516080516001600160a01b0390911682840155909201916001016121de565b8383526080518320612262918101908601613c1e565b386121cf565b634e487b7160e01b82526041600452602482fd5b6001906001600160a01b0361229a612295838887613ddd565b613ded565b1684526007608051526122b08660408620613ea5565b0161213b565b0151905038806102db565b83875260805187209190601f198416885b8181106123125750916001939185600d98979694106122f9575b505050811b0190556120c7565b015160001960f88460031b161c191690553880806122ec565b82840151855560805160019095019493840193016122d2565b60078401865260805186209190601f198416875b81811061237e5750908460019594939210612365575b505050811b01600782015561201c565b015160001960f88460031b161c19169055388080612355565b828401518555608051600190950194938401930161233f565b634e487b7160e01b85526041600452602485fd5b80518051906001600160401b038211612484576123d2826123cc8654613be4565b86613c35565b60805190601f831160011461241a578260019492938594612408938d926122b65750508160011b916000199060031b1c19161790565b84555b60805101920192019190611fa9565b848a526080518a209190601f1984168b5b81811061246b575092600195939285928796879510612452575b505050811b01845561240b565b015160001960f88460031b161c19169055388080612445565b828401518555608051600190950194938401930161242b565b634e487b7160e01b89526041600452602489fd5b919060058401865260805186209086935b601f19841685106124ed576001945083601f198116106124d4575b505050811b016005820155611f81565b015160001960f88460031b161c191690553880806124c4565b81810151835560805194850194600190930192909101906124a9565b60048401865260805186209190601f198416875b81811061255c5750908460019594939210612543575b505050811b016004820155611f1a565b015160001960f88460031b161c19169055388080612533565b828401518555608051600190950194938401930161251d565b82516080516001600160a01b039091168284015590920191600101611ea7565b60038401865260805186206125ae918101908401613c1e565b38611e95565b83356001600160401b0381116113c557820136601f820112156113c5576020916125e5839236908481359101613bad565b815201930192611d8c565b8780fd5b82356001600160a01b038116810361261457815260209283019201611d26565b8e80fd5b61016001518b1161278957895b898c808310612635575050611cbf565b6126486122958460209361267995613ddd565b60405163758d9b8960e01b815260048035908201526001600160a01b03909116602482015291829081906044820190565b0381865afa90811561277e578c91612741575b50156126fc578b8a6126aa61229584339460018060a01b0394613ddd565b16146126b857600101612625565b606460405162461bcd60e51b815260206004820152602060248201527f43616e6e6f7420636f6c6c61626f72617465207769746820796f757273656c666044820152fd5b60405162461bcd60e51b815260206004820152601e60248201527f436f6c6c61626f7261746f72206e6f742061207061727469636970616e7400006044820152606490fd5b90506020813d8211612776575b8161275b602093836138a7565b810103126127725761276c9061397e565b3861268c565b8b80fd5b3d915061274e565b6040513d8e823e3d90fd5b60405162461bcd60e51b8152602060048201526016602482015275546f6f206d616e7920636f6c6c61626f7261746f727360501b6044820152606490fd5b60405162461bcd60e51b815260206004820152601e60248201527f4d75737420696e636c756465206174206c65617374206f6e652066696c6500006044820152606490fd5b60405162461bcd60e51b81526020600482015260156024820152745469746c652063616e6e6f7420626520656d70747960581b6044820152606490fd5b60405162461bcd60e51b815260206004820152601760248201527f4e6f742061207175657374207061727469636970616e740000000000000000006044820152606490fd5b90506020813d6020116128c0575b816128a9602093836138a7565b81010312612772576128ba9061397e565b38611ca7565b3d915061289c565b634e487b7160e01b8c52602160045260248cfd5b6128f091503d808d833e610d0481836138a7565b38611c4a565b6040513d8d823e3d90fd5b60405162461bcd60e51b815260206004820152601f60248201527f5265656e7472616e637947756172643a207265656e7472616e742063616c6c006044820152606490fd5b8580fd5b50346106fd5760803660031901126106fd576044356001600160401b0381116105855761297b903690600401613628565b906064351515606435036106fb57600435151580613170575b61299d906137a8565b6129a933600435613f60565b1561312b57600b5460243510158061311d575b6129c5906138c8565b600435835260096020908152604080852033865290915283205460ff166130e55760043583526003602052604083209060ff6008830154166006811015610b5e57600181149081156130da575b50156130a55760018060a01b03600d541684600184015460246040518094819363127e1bcd60e21b835260048301525afa8015610d12576101a091869161308b575b50015142101561304d57600435845260046020526040842060405190612a798261383f565b60043582526020820190338252604083016024358152612a9a368887613bad565b9160608501928352426080860152606435151560a0860152805490600160401b82101561303957600182018082558210156130255789526020892085516006929092020190815592516001840180546001600160a01b0319166001600160a01b039290921691909117905551600283015551805160038301916001600160401b03821161248457612b2f826102bb8554613be4565b602090601f8311600114612fbc578260a0959360059593612b65938d926122b65750508160011b916000199060031b1c19161790565b90555b6080840151600482015501910151151560ff80198354169116179055600435845260096020526040842060018060a01b033316855260205260408420600160ff1982541617905560ff6008830154166006811015610b5e57600114612fa8575b6004358452600460205260408420908154612be28161398b565b92612bf060405194856138a7565b81845286526020808720879185015b838310612f405750505050849285935b8351851015612c4f576040612c248686613d1e565b5101518101809111612c3b57600190940193612c0f565b634e487b7160e01b87526011600452602487fd5b612c5e86918894955190613d32565b600b830155600c8201906001600160401b038111612f2c57612c8a81612c848454613be4565b84613c35565b83601f8211600114612ec85781908596612cba94959692612ebd5750508160011b916000199060031b1c19161790565b90555b600d810180546001600160a01b0319163317905542600a82015560643515612ea95760088101805460ff191660031790555b60405160243581526064351515602082015233907fbd48f52f513b6017c7bb83805041c01032e3c047bb0e003e9aad49a6c83c674f604060043592a3606435612d36575080f35b600e54600282015460018301549293926001600160a01b0392831692909116823b15611183579060c484928360405195869485936360ee8a5560e11b85526004850152600a60248501526080604485015260136084850152721cdd589b5a5cdcda5bdb97d85c1c1c9bdd9959606a1b60a485015260648401525af1801561115957612e99575b50906003810182805b8254811015612e9257600e546001600160a01b0316612de48285613811565b9054600187015460039290921b1c6001600160a01b031690823b156106f75760c485928360405195869485936360ee8a5560e11b855260048501526005602485015260806044850152601660848501527518dbdb1b18589bdc985d1a5bdb97d85c1c1c9bdd995960521b60a485015260648401525af1908115612e87578391612e72575b5050600101612dc5565b81612e7c916138a7565b610585578186612e68565b6040513d85823e3d90fd5b5050505080f35b81612ea3916138a7565b82612dbc565b60088101805460ff19166004179055612cef565b0135905086806102db565b601f198216958386526020862091865b888110612f1457508360019596979810612efa575b505050811b019055612cbd565b0135600019600384901b60f8161c19169055858080612eed565b90926020600181928686013581550194019101612ed8565b634e487b7160e01b84526041600452602484fd5b60066020600192604051612f538161383f565b85548152848060a01b0385870154168382015260028601546040820152612f7c60038701613c7c565b60608201526004860154608082015260ff600587015416151560a0820152815201920192019190612bff565b60088201805460ff19166002179055612bc8565b838a52818a209190601f1984168b5b81811061300d575092600192859260a098966005989610612ff4575b505050811b019055612b68565b015160001960f88460031b161c19169055388080612fe7565b92936020600181928786015181550195019301612fcb565b634e487b7160e01b8a52603260045260248afd5b634e487b7160e01b8a52604160045260248afd5b60405162461bcd60e51b815260206004820152601660248201527514995d9a595dc8191958591b1a5b99481c185cdcd95960521b6044820152606490fd5b61309f91503d8088833e610d0481836138a7565b38612a54565b60405162461bcd60e51b815260206004820152600d60248201526c43616e6e6f742072657669657760981b6044820152606490fd5b600291501438612a12565b60405162461bcd60e51b815260206004820152601060248201526f105b1c9958591e481c995d9a595dd95960821b6044820152606490fd5b50600c5460243511156129bc565b60405162461bcd60e51b815260206004820152601d60248201527f43616e6e6f74207265766965772074686973207375626d697373696f6e0000006044820152606490fd5b50600a546004351115612994565b50346106fd5760403660031901126106fd5760043561319b61368e565b906131b76109c682600052600060205260016040600020015490565b808352602083815260408085206001600160a01b038516865290915283205460ff16156131e2578280f35b808352602083815260408085206001600160a01b0394909416808652939091528320805460ff191660011790553391907f2f8788117e7eff1d82e926ec794901d17c78024a50270940304540a733656f0d8480a438808280f35b50346106fd57806003193601126106fd57600e546040516001600160a01b039091168152602090f35b50346106fd5760203660031901126106fd576020613293600435600052600060205260016040600020015490565b604051908152f35b50346106fd5760203660031901126106fd576004358152600660205260408120604051918260208354918281520192825260208220915b8181106132e957610a4385610a2f818703826138a7565b82548452602090930192600192830192016132d2565b50346106fd57806003193601126106fd57600d546040516001600160a01b039091168152602090f35b50346106fd5760403660031901126106fd576004356024356001600160401b0381116106fb5761335c903690600401613628565b9050811515806133fe575b613370906137a8565b156133b95780825260056020526002604083200161338e81546137ec565b905533907f56bf4ae043a92fbaf5acfcdb9e58700e6b568ee68c5be79a89204d6c772588368380a380f35b60405162461bcd60e51b815260206004820152601760248201527f436f6d6d656e742063616e6e6f7420626520656d7074790000000000000000006044820152606490fd5b50600a54821115613367565b50346106fd57806003193601126106fd576010546040516001600160a01b039091168152602090f35b50346106fd5760203660031901126106fd57600435801515806135c7575b61345a906137a8565b80825260086020908152604080842033855290915282205460ff1661359257808252600360205260408220600201546001600160a01b0316331461354d578082526008602090815260408084203385528252808420805460ff19166001908117909155838552600590925283200180546134d3906137ec565b9055808252600560205260036040832001805490600160401b821015612f2c578161350691600161352494018155613811565b81546001600160a01b0360039290921b91821b19163390911b179055565b33907f1d18952d7acb915ed6686f58ab4c7032bb2fe6eb66a0a83c351fec85c2c235248380a380f35b60405162461bcd60e51b815260206004820152601a60248201527f43616e6e6f74206c696b65206f776e207375626d697373696f6e0000000000006044820152606490fd5b60405162461bcd60e51b815260206004820152600d60248201526c105b1c9958591e481b1a5ad959609a1b6044820152606490fd5b50600a54811115613451565b9050346105855760203660031901126105855760043563ffffffff60e01b81168091036106fb5760209250637965db0b60e01b8114908115613617575b5015158152f35b6301ffc9a760e01b14905038613610565b9181601f84011215613655578235916001600160401b038311613655576020838186019501011161365557565b600080fd5b906020808351928381520192019060005b8181106136785750505090565b825184526020938401939092019160010161366b565b602435906001600160a01b038216820361365557565b600435906001600160a01b038216820361365557565b9181601f84011215613655578235916001600160401b038311613655576020808501948460051b01011161365557565b906020808351928381520192019060005b8181106137085750505090565b82516001600160a01b03168452602093840193909201916001016136fb565b60005b83811061373a5750506000910152565b818101518382015260200161372a565b9060209161376381518092818552858086019101613727565b601f01601f1916010190565b90600682101561377c5752565b634e487b7160e01b600052602160045260246000fd5b6040906003190112613655576004359060243590565b156137af57565b60405162461bcd60e51b8152602060048201526015602482015274125b9d985b1a59081cdd589b5a5cdcda5bdb881251605a1b6044820152606490fd5b60001981146137fb5760010190565b634e487b7160e01b600052601160045260246000fd5b80548210156138295760005260206000200190600090565b634e487b7160e01b600052603260045260246000fd5b60c081019081106001600160401b0382111761385a57604052565b634e487b7160e01b600052604160045260246000fd5b6101e081019081106001600160401b0382111761385a57604052565b608081019081106001600160401b0382111761385a57604052565b90601f801991011681019081106001600160401b0382111761385a57604052565b156138cf57565b60405162461bcd60e51b8152602060048201526013602482015272496e76616c69642073636f72652072616e676560681b6044820152606490fd5b51906001600160a01b038216820361365557565b6001600160401b03811161385a57601f01601f191660200190565b81601f8201121561365557805161394f8161391e565b9261395d60405194856138a7565b818452602082840101116136555761397b9160208085019101613727565b90565b5190811515820361365557565b6001600160401b03811161385a5760051b60200190565b602081830312613655578051906001600160401b03821161365557019061024082820312613655576040519161024083018381106001600160401b0382111761385a57604052805183526139f86020820161390a565b602084015260408101516001600160401b0381116136555782613a1c918301613939565b604084015260608101516001600160401b0381116136555782613a40918301613939565b606084015260808101516001600160401b0381116136555782613a64918301613939565b608084015260a081015160038110156136555760a084015260c081015160058110156136555760c084015260e081015160e0840152613aa6610100820161390a565b6101008401526101208101516101208401526101408101516101408401526101608101516101608401526101808101516101808401526101a08101516101a08401526101c08101516101c08401526101e08101516101e0840152613b0d610200820161397e565b610200840152610220810151906001600160401b03821161365557019080601f83011215613655578151613b408161398b565b92613b4e60405194856138a7565b81845260208085019260051b820101918383116136555760208201905b838210613b8057505050505061022082015290565b81516001600160401b03811161365557602091613ba287848094880101613939565b815201910190613b6b565b929192613bb98261391e565b91613bc760405193846138a7565b829481845281830111613655578281602093846000960137010152565b90600182811c92168015613c14575b6020831014613bfe57565b634e487b7160e01b600052602260045260246000fd5b91607f1691613bf3565b818110613c29575050565b60008155600101613c1e565b9190601f8111613c4457505050565b613c70926000526020600020906020601f840160051c83019310613c72575b601f0160051c0190613c1e565b565b9091508190613c63565b9060405191826000825492613c9084613be4565b8084529360018116908115613cfc5750600114613cb5575b50613c70925003836138a7565b90506000929192526020600020906000915b818310613ce0575050906020613c709282010138613ca8565b6020919350806001915483858901015201910190918492613cc7565b905060209250613c7094915060ff191682840152151560051b82010138613ca8565b80518210156138295760209160051b010190565b8115613d3c570490565b634e487b7160e01b600052601260045260246000fd5b15613d5957565b60405162461bcd60e51b815260206004820152601060248201526f5175657374206e6f742061637469766560801b6044820152606490fd5b15613d9857565b60405162461bcd60e51b815260206004820152601a60248201527f5375626d697373696f6e20646561646c696e65207061737365640000000000006044820152606490fd5b91908110156138295760051b0190565b356001600160a01b03811681036136555790565b600682101561377c5752565b90600160401b811161385a57815491818155828210613e2b57505050565b600052602060002091820191015b818110613e44575050565b80613e5160019254613be4565b80613e5e575b5001613e39565b601f81118314613e745750600081555b38613e57565b613e92908260005283601f6020600020920160051c82019101613c1e565b8060005260006020812081835555613e6e565b8054600160401b81101561385a57613ec291600182018155613811565b819291549060031b91821b91600019901b1916179055565b90613ee48261398b565b613ef160405191826138a7565b8281528092613f02601f199161398b565b0190602036910137565b906040519182815491828252602082019060005260206000209260005b818110613f3e575050613c70925003836138a7565b84546001600160a01b0316835260019485019487945060209093019201613f29565b9061397b9180151580613f7c575b613f77906137a8565b613f88565b50600a54811115613f6e565b806000526003602052604060002091604051613fa381613870565b8354815260018401546020820190815260028501546001600160a01b0316604083019081529091613fd660038701613f0c565b9560608201968752613fea60048201613c7c565b6080830152613ffb60058201613c7c565b60a083015260068101805461400f8161398b565b9161401d60405193846138a7565b818352602083019060005260206000206000915b8383106142865750505050600d6101c09260ff9260c086015261405660078201613c7c565b60e086015261406f836008830154166101008701613e01565b6009810154610120860152600a810154610140860152600b81015461016086015261409c600c8201613c7c565b61018086015201546001600160a01b038082166101a086015260a09190911c91909116151591909201529051838216949116841461412857600052600960205260406000208360005260205260ff6040600020541661427d5760005b845180518210156141325784906001600160a01b0390614119908490613d1e565b511614614128576001016140f8565b5050505050600090565b505091925060018060a01b03600d54169282516040519063127e1bcd60e21b82526004820152600081602481885afa8015614245578291600091614262575b50602001516001600160a01b0316146142595760009081527f5c91a81dd90adcbb976f07115cdaa60f95931610e4c2893856278a1e5607a9cc602052604090205460ff1661425157905160405163758d9b8960e01b815260048101919091526001600160a01b03909116602482015290602090829060449082905afa9081156142455760009161420b575b5061420657600090565b600190565b90506020813d60201161423d575b81614226602093836138a7565b81010312613655576142379061397e565b386141fc565b3d9150614219565b6040513d6000823e3d90fd5b505050600190565b50505050600190565b61427791503d806000833e610d0481836138a7565b38614171565b50505050600090565b60016020819261429585613c7c565b815201920192019190614031565b156142aa57565b60405162461bcd60e51b81526020600482015260116024820152702737ba103a34329039bab136b4ba3a32b960791b6044820152606490fd5b919091600052600660205260406000206040518082602082945493848152019060005260206000209260005b8181106144b7575050614324925003826138a7565b80511561449a576143358151613eda565b61433f8251613eda565b9360005b8351811015614392578061435960019286613d1e565b516143648286613d1e565b5261436f8186613d1e565b516000526003602052600b6040600020015461438b8289613d1e565b5201614343565b509150916000915b845183101561444557600183018084116137fb575b855181101561443a576001906143c58588613d1e565b516143d08289613d1e565b51116143dd575b016143af565b6143e78588613d1e565b516143f28289613d1e565b516143fd878a613d1e565b526144088289613d1e565b526144138587613d1e565b5161441e8288613d1e565b516144298789613d1e565b526144348288613d1e565b526143d7565b50916001019161439a565b915091925082519081811160001461449357505b61446281613eda565b9060005b818110614474575090925050565b8061448160019287613d1e565b5161448c8286613d1e565b5201614466565b9050614459565b5090506040516144ab6020826138a7565b60008152600036813790565b845483526001948501948694506020909301920161430f565b80156137fb576000190190565b3360009081527f7d7ffb7a348e1c6a02869081a26547b49160dd3df72d1d75a570eb9b698292ec602052604090205460ff161561451657565b6145f26145223361470b565b6145d260116145507fa49807205ce4d355092ef5a8a18f56e8913cf4a201fbe287825b095693c21775614837565b9260376040519485927f416363657373436f6e74726f6c3a206163636f756e742000000000000000000060208501526145928151809260208688019101613727565b83017001034b99036b4b9b9b4b733903937b6329607d1b838201526145c1825180936020604885019101613727565b01010301601f1981018352826138a7565b60405162461bcd60e51b815260206004820152918291602483019061374a565b0390fd5b60008181526020818152604080832033845290915290205460ff16156146195750565b6145f2906145d2601161455061462e3361470b565b93614837565b60ff6002541661464057565b60405162461bcd60e51b815260206004820152601060248201526f14185d5cd8589b194e881c185d5cd95960821b6044820152606490fd5b6000818152602081815260408083206001600160a01b038616845290915290205460ff166146a4575050565b6000818152602081815260408083206001600160a01b0395909516808452949091528120805460ff19169055339291907ff6391f5c32d9c69d2a47ea670b442974b53935d1edc7fd64eb21e047a839171b9080a4565b908151811015613829570160200190565b600090614718602a61391e565b9161472660405193846138a7565b602a8352614734602a61391e565b6020840190601f1901368237835115614823576030905382516001101561480f576078602184015350602960005b600182116147b75750506147735790565b606460405162461bcd60e51b815260206004820152602060248201527f537472696e67733a20686578206c656e67746820696e73756666696369656e746044820152fd5b9091600f811660108110156147fb576147f591906f181899199a1a9b1b9c1cb0b131b232b360811b901a6147eb85876146fa565b5360041c926144d0565b90614762565b634e487b7160e01b83526032600452602483fd5b634e487b7160e01b81526032600452602490fd5b634e487b7160e01b82526032600452602482fd5b600090614844604261391e565b9161485260405193846138a7565b60428352614860604261391e565b6020840190601f1901368237835115614823576030905382516001101561480f576078602184015350604160005b6001821161489f5750506147735790565b9091600f811660108110156147fb576148d391906f181899199a1a9b1b9c1cb0b131b232b360811b901a6147eb85876146fa565b9061488e56fe2a33518aaebd6b3011128d7e4c7457cc6af29ecc8d0dd338fc55bca25f9d5a2cc10c77be35aff266144ed64c26a1fa104bae2f284ae99ac4a34203454704a185a264697066735822122041124f2fe73f9fbfa14ee7964ef3c870a12633942a57f0ac74592266fc5e5bf064736f6c634300081c00332f8788117e7eff1d82e926ec794901d17c78024a50270940304540a733656f0d7d7ffb7a348e1c6a02869081a26547b49160dd3df72d1d75a570eb9b698292ecad3228b676f7d3cd4284a5443f17f1962b36e491b30a40b2405849e597ba5fb5",
  "linkReferences": {},
  "deployedLinkReferences": {}
}