{
  "_format": "hh-sol-artifact-1",
  "contractName": "UserProfile",
  "sourceName": "contracts/UserProfile.sol",
  "abi": [
    {
      "inputs": [],
      "stateMutability": "nonpayable",
      "type": "constructor"
    },
    {
      "anonymous": false,
      "inputs": [
        {
          "indexed": true,
          "internalType": "address",
          "name": "user",
          "type": "address"
        },
        {
          "indexed": true,
          "internalType": "uint256",
          "name": "achievementId",
          "type": "uint256"
        }
      ],
      "name": "AchievementEarned",
      "type": "event"
    },
    {
      "anonymous": false,
      "inputs": [
        {
          "indexed": true,
          "internalType": "address",
          "name": "user",
          "type": "address"
        },
        {
          "indexed": false,
          "internalType": "string",
          "name": "username",
          "type": "string"
        }
      ],
      "name": "ProfileCreated",
      "type": "event"
    },
    {
      "anonymous": false,
      "inputs": [
        {
          "indexed": true,
          "internalType": "address",
          "name": "user",
          "type": "address"
        }
      ],
      "name": "ProfileUpdated",
      "type": "event"
    },
    {
      "anonymous": false,
      "inputs": [
        {
          "indexed": true,
          "internalType": "address",
          "name": "user",
          "type": "address"
        },
        {
          "indexed": false,
          "internalType": "uint256",
          "name": "newReputation",
          "type": "uint256"
        },
        {
          "indexed": false,
          "internalType": "string",
          "name": "action",
          "type": "string"
        }
      ],
      "name": "ReputationUpdated",
      "type": "event"
    },
    {
      "anonymous": false,
      "inputs": [
        {
          "indexed": true,
          "internalType": "bytes32",
          "name": "role",
          "type": "bytes32"
        },
        {
          "indexed": true,
          "internalType": "bytes32",
          "name": "previousAdminRole",
          "type": "bytes32"
        },
        {
          "indexed": true,
          "internalType": "bytes32",
          "name": "newAdminRole",
          "type": "bytes32"
        }
      ],
      "name": "RoleAdminChanged",
      "type": "event"
    },
    {
      "anonymous": false,
      "inputs": [
        {
          "indexed": true,
          "internalType": "bytes32",
          "name": "role",
          "type": "bytes32"
        },
        {
          "indexed": true,
          "internalType": "address",
          "name": "account",
          "type": "address"
        },
        {
          "indexed": true,
          "internalType": "address",
          "name": "sender",
          "type": "address"
        }
      ],
      "name": "RoleGranted",
      "type": "event"
    },
    {
      "anonymous": false,
      "inputs": [
        {
          "indexed": true,
          "internalType": "bytes32",
          "name": "role",
          "type": "bytes32"
        },
        {
          "indexed": true,
          "internalType": "address",
          "name": "account",
          "type": "address"
        },
        {
          "indexed": true,
          "internalType": "address",
          "name": "sender",
          "type": "address"
        }
      ],
      "name": "RoleRevoked",
      "type": "event"
    },
    {
      "anonymous": false,
      "inputs": [
        {
          "indexed": true,
          "internalType": "address",
          "name": "user",
          "type": "address"
        },
        {
          "indexed": false,
          "internalType": "string",
          "name": "skill",
          "type": "string"
        }
      ],
      "name": "SkillAdded",
      "type": "event"
    },
    {
      "anonymous": false,
      "inputs": [
        {
          "indexed": true,
          "internalType": "address",
          "name": "user",
          "type": "address"
        },
        {
          "indexed": false,
          "internalType": "string",
          "name": "skill",
          "type": "string"
        }
      ],
      "name": "SkillRemoved",
      "type": "event"
    },
    {
      "inputs": [],
      "name": "ADMIN_ROLE",
      "outputs": [
        {
          "internalType": "bytes32",
          "name": "",
          "type": "bytes32"
        }
      ],
      "stateMutability": "view",
      "type": "function"
    },
    {
      "inputs": [],
      "name": "DEFAULT_ADMIN_ROLE",
      "outputs": [
        {
          "internalType": "bytes32",
          "name": "",
          "type": "bytes32"
        }
      ],
      "stateMutability": "view",
      "type": "function"
    },
    {
      "inputs": [],
      "name": "QUEST_BOARD_ROLE",
      "outputs": [
        {
          "internalType": "bytes32",
          "name": "",
          "type": "bytes32"
        }
      ],
      "stateMutability": "view",
      "type": "function"
    },
    {
      "inputs": [
        {
          "internalType": "string",
          "name": "skill",
          "type": "string"
        }
      ],
      "name": "addSkill",
      "outputs": [],
      "stateMutability": "nonpayable",
      "type": "function"
    },
    {
      "inputs": [
        {
          "internalType": "address",
          "name": "user",
          "type": "address"
        },
        {
          "internalType": "uint256",
          "name": "achievementId",
          "type": "uint256"
        }
      ],
      "name": "awardAchievement",
      "outputs": [],
      "stateMutability": "nonpayable",
      "type": "function"
    },
    {
      "inputs": [
        {
          "internalType": "address[]",
          "name": "users",
          "type": "address[]"
        },
        {
          "internalType": "uint256[]",
          "name": "points",
          "type": "uint256[]"
        },
        {
          "internalType": "string",
          "name": "action",
          "type": "string"
        },
        {
          "internalType": "uint256",
          "name": "questId",
          "type": "uint256"
        }
      ],
      "name": "batchUpdateReputation",
      "outputs": [],
      "stateMutability": "nonpayable",
      "type": "function"
    },
    {
      "inputs": [
        {
          "internalType": "address",
          "name": "user",
          "type": "address"
        }
      ],
      "name": "checkAndAwardAchievements",
      "outputs": [],
      "stateMutability": "nonpayable",
      "type": "function"
    },
    {
      "inputs": [
        {
          "internalType": "string",
          "name": "name",
          "type": "string"
        },
        {
          "internalType": "string",
          "name": "description",
          "type": "string"
        },
        {
          "internalType": "string",
          "name": "iconURI",
          "type": "string"
        },
        {
          "internalType": "uint256",
          "name": "pointsRequired",
          "type": "uint256"
        }
      ],
      "name": "createAchievement",
      "outputs": [
        {
          "internalType": "uint256",
          "name": "achievementId",
          "type": "uint256"
        }
      ],
      "stateMutability": "nonpayable",
      "type": "function"
    },
    {
      "inputs": [
        {
          "internalType": "string",
          "name": "username",
          "type": "string"
        },
        {
          "internalType": "string",
          "name": "bio",
          "type": "string"
        },
        {
          "internalType": "string",
          "name": "avatarURI",
          "type": "string"
        },
        {
          "internalType": "string[]",
          "name": "skills",
          "type": "string[]"
        }
      ],
      "name": "createProfile",
      "outputs": [],
      "stateMutability": "nonpayable",
      "type": "function"
    },
    {
      "inputs": [
        {
          "internalType": "address",
          "name": "user",
          "type": "address"
        }
      ],
      "name": "deactivateUser",
      "outputs": [],
      "stateMutability": "nonpayable",
      "type": "function"
    },
    {
      "inputs": [
        {
          "internalType": "uint256",
          "name": "achievementId",
          "type": "uint256"
        }
      ],
      "name": "getAchievement",
      "outputs": [
        {
          "components": [
            {
              "internalType": "uint256",
              "name": "id",
              "type": "uint256"
            },
            {
              "internalType": "string",
              "name": "name",
              "type": "string"
            },
            {
              "internalType": "string",
              "name": "description",
              "type": "string"
            },
            {
              "internalType": "string",
              "name": "iconURI",
              "type": "string"
            },
            {
              "internalType": "uint256",
              "name": "pointsRequired",
              "type": "uint256"
            },
            {
              "internalType": "bool",
              "name": "isActive",
              "type": "bool"
            }
          ],
          "internalType": "struct IUserProfile.Achievement",
          "name": "",
          "type": "tuple"
        }
      ],
      "stateMutability": "view",
      "type": "function"
    },
    {
      "inputs": [],
      "name": "getAllAchievements",
      "outputs": [
        {
          "components": [
            {
              "internalType": "uint256",
              "name": "id",
              "type": "uint256"
            },
            {
              "internalType": "string",
              "name": "name",
              "type": "string"
            },
            {
              "internalType": "string",
              "name": "description",
              "type": "string"
            },
            {
              "internalType": "string",
              "name": "iconURI",
              "type": "string"
            },
            {
              "internalType": "uint256",
              "name": "pointsRequired",
              "type": "uint256"
            },
            {
              "internalType": "bool",
              "name": "isActive",
              "type": "bool"
            }
          ],
          "internalType": "struct IUserProfile.Achievement[]",
          "name": "",
          "type": "tuple[]"
        }
      ],
      "stateMutability": "view",
      "type": "function"
    },
    {
      "inputs": [
        {
          "internalType": "address",
          "name": "user",
          "type": "address"
        }
      ],
      "name": "getProfile",
      "outputs": [
        {
          "components": [
            {
              "internalType": "address",
              "name": "userAddress",
              "type": "address"
            },
            {
              "internalType": "string",
              "name": "username",
              "type": "string"
            },
            {
              "internalType": "string",
              "name": "bio",
              "type": "string"
            },
            {
              "internalType": "string",
              "name": "avatarURI",
              "type": "string"
            },
            {
              "internalType": "string[]",
              "name": "skills",
              "type": "string[]"
            },
            {
              "internalType": "uint256",
              "name": "reputation",
              "type": "uint256"
            },
            {
              "internalType": "uint256",
              "name": "totalEarnings",
              "type": "uint256"
            },
            {
              "internalType": "uint256",
              "name": "completedQuests",
              "type": "uint256"
            },
            {
              "internalType": "uint256",
              "name": "successfulSubmissions",
              "type": "uint256"
            },
            {
              "internalType": "uint256",
              "name": "joinedAt",
              "type": "uint256"
            },
            {
              "internalType": "bool",
              "name": "isVerified",
              "type": "bool"
            },
            {
              "internalType": "bool",
              "name": "isActive",
              "type": "bool"
            }
          ],
          "internalType": "struct IUserProfile.UserProfile",
          "name": "",
          "type": "tuple"
        }
      ],
      "stateMutability": "view",
      "type": "function"
    },
    {
      "inputs": [
        {
          "internalType": "string",
          "name": "username",
          "type": "string"
        }
      ],
      "name": "getProfileByUsername",
      "outputs": [
        {
          "components": [
            {
              "internalType": "address",
              "name": "userAddress",
              "type": "address"
            },
            {
              "internalType": "string",
              "name": "username",
              "type": "string"
            },
            {
              "internalType": "string",
              "name": "bio",
              "type": "string"
            },
            {
              "internalType": "string",
              "name": "avatarURI",
              "type": "string"
            },
            {
              "internalType": "string[]",
              "name": "skills",
              "type": "string[]"
            },
            {
              "internalType": "uint256",
              "name": "reputation",
              "type": "uint256"
            },
            {
              "internalType": "uint256",
              "name": "totalEarnings",
              "type": "uint256"
            },
            {
              "internalType": "uint256",
              "name": "completedQuests",
              "type": "uint256"
            },
            {
              "internalType": "uint256",
              "name": "successfulSubmissions",
              "type": "uint256"
            },
            {
              "internalType": "uint256",
              "name": "joinedAt",
              "type": "uint256"
            },
            {
              "internalType": "bool",
              "name": "isVerified",
              "type": "bool"
            },
            {
              "internalType": "bool",
              "name": "isActive",
              "type": "bool"
            }
          ],
          "internalType": "struct IUserProfile.UserProfile",
          "name": "",
          "type": "tuple"
        }
      ],
      "stateMutability": "view",
      "type": "function"
    },
    {
      "inputs": [
        {
          "internalType": "address",
          "name": "user",
          "type": "address"
        }
      ],
      "name": "getReputationHistory",
      "outputs": [
        {
          "components": [
            {
              "internalType": "address",
              "name": "user",
              "type": "address"
            },
            {
              "internalType": "string",
              "name": "action",
              "type": "string"
            },
            {
              "internalType": "uint256",
              "name": "questId",
              "type": "uint256"
            },
            {
              "internalType": "uint256",
              "name": "points",
              "type": "uint256"
            },
            {
              "internalType": "uint256",
              "name": "timestamp",
              "type": "uint256"
            }
          ],
          "internalType": "struct IUserProfile.ReputationAction[]",
          "name": "",
          "type": "tuple[]"
        }
      ],
      "stateMutability": "view",
      "type": "function"
    },
    {
      "inputs": [
        {
          "internalType": "bytes32",
          "name": "role",
          "type": "bytes32"
        }
      ],
      "name": "getRoleAdmin",
      "outputs": [
        {
          "internalType": "bytes32",
          "name": "",
          "type": "bytes32"
        }
      ],
      "stateMutability": "view",
      "type": "function"
    },
    {
      "inputs": [
        {
          "internalType": "uint256",
          "name": "limit",
          "type": "uint256"
        }
      ],
      "name": "getTopUsers",
      "outputs": [
        {
          "internalType": "address[]",
          "name": "",
          "type": "address[]"
        }
      ],
      "stateMutability": "view",
      "type": "function"
    },
    {
      "inputs": [
        {
          "internalType": "address",
          "name": "user",
          "type": "address"
        }
      ],
      "name": "getUserAchievements",
      "outputs": [
        {
          "components": [
            {
              "internalType": "uint256",
              "name": "achievementId",
              "type": "uint256"
            },
            {
              "internalType": "address",
              "name": "user",
              "type": "address"
            },
            {
              "internalType": "uint256",
              "name": "earnedAt",
              "type": "uint256"
            }
          ],
          "internalType": "struct IUserProfile.UserAchievement[]",
          "name": "",
          "type": "tuple[]"
        }
      ],
      "stateMutability": "view",
      "type": "function"
    },
    {
      "inputs": [
        {
          "internalType": "address",
          "name": "user",
          "type": "address"
        }
      ],
      "name": "getUserReputation",
      "outputs": [
        {
          "internalType": "uint256",
          "name": "",
          "type": "uint256"
        }
      ],
      "stateMutability": "view",
      "type": "function"
    },
    {
      "inputs": [
        {
          "internalType": "string",
          "name": "skill",
          "type": "string"
        }
      ],
      "name": "getUsersBySkill",
      "outputs": [
        {
          "internalType": "address[]",
          "name": "",
          "type": "address[]"
        }
      ],
      "stateMutability": "view",
      "type": "function"
    },
    {
      "inputs": [
        {
          "internalType": "address",
          "name": "questBoard",
          "type": "address"
        }
      ],
      "name": "grantQuestBoardRole",
      "outputs": [],
      "stateMutability": "nonpayable",
      "type": "function"
    },
    {
      "inputs": [
        {
          "internalType": "bytes32",
          "name": "role",
          "type": "bytes32"
        },
        {
          "internalType": "address",
          "name": "account",
          "type": "address"
        }
      ],
      "name": "grantRole",
      "outputs": [],
      "stateMutability": "nonpayable",
      "type": "function"
    },
    {
      "inputs": [
        {
          "internalType": "address",
          "name": "user",
          "type": "address"
        }
      ],
      "name": "hasProfile",
      "outputs": [
        {
          "internalType": "bool",
          "name": "",
          "type": "bool"
        }
      ],
      "stateMutability": "view",
      "type": "function"
    },
    {
      "inputs": [
        {
          "internalType": "bytes32",
          "name": "role",
          "type": "bytes32"
        },
        {
          "internalType": "address",
          "name": "account",
          "type": "address"
        }
      ],
      "name": "hasRole",
      "outputs": [
        {
          "internalType": "bool",
          "name": "",
          "type": "bool"
        }
      ],
      "stateMutability": "view",
      "type": "function"
    },
    {
      "inputs": [
        {
          "internalType": "address",
          "name": "user",
          "type": "address"
        }
      ],
      "name": "isUserVerified",
      "outputs": [
        {
          "internalType": "bool",
          "name": "",
          "type": "bool"
        }
      ],
      "stateMutability": "view",
      "type": "function"
    },
    {
      "inputs": [
        {
          "internalType": "string",
          "name": "username",
          "type": "string"
        }
      ],
      "name": "isUsernameAvailable",
      "outputs": [
        {
          "internalType": "bool",
          "name": "",
          "type": "bool"
        }
      ],
      "stateMutability": "view",
      "type": "function"
    },
    {
      "inputs": [
        {
          "internalType": "string",
          "name": "skill",
          "type": "string"
        }
      ],
      "name": "removeSkill",
      "outputs": [],
      "stateMutability": "nonpayable",
      "type": "function"
    },
    {
      "inputs": [
        {
          "internalType": "bytes32",
          "name": "role",
          "type": "bytes32"
        },
        {
          "internalType": "address",
          "name": "account",
          "type": "address"
        }
      ],
      "name": "renounceRole",
      "outputs": [],
      "stateMutability": "nonpayable",
      "type": "function"
    },
    {
      "inputs": [
        {
          "internalType": "bytes32",
          "name": "role",
          "type": "bytes32"
        },
        {
          "internalType": "address",
          "name": "account",
          "type": "address"
        }
      ],
      "name": "revokeRole",
      "outputs": [],
      "stateMutability": "nonpayable",
      "type": "function"
    },
    {
      "inputs": [
        {
          "internalType": "bytes4",
          "name": "interfaceId",
          "type": "bytes4"
        }
      ],
      "name": "supportsInterface",
      "outputs": [
        {
          "internalType": "bool",
          "name": "",
          "type": "bool"
        }
      ],
      "stateMutability": "view",
      "type": "function"
    },
    {
      "inputs": [
        {
          "internalType": "address",
          "name": "user",
          "type": "address"
        },
        {
          "internalType": "uint256",
          "name": "amount",
          "type": "uint256"
        }
      ],
      "name": "updateEarnings",
      "outputs": [],
      "stateMutability": "nonpayable",
      "type": "function"
    },
    {
      "inputs": [
        {
          "internalType": "string",
          "name": "username",
          "type": "string"
        },
        {
          "internalType": "string",
          "name": "bio",
          "type": "string"
        },
        {
          "internalType": "string",
          "name": "avatarURI",
          "type": "string"
        }
      ],
      "name": "updateProfile",
      "outputs": [],
      "stateMutability": "nonpayable",
      "type": "function"
    },
    {
      "inputs": [
        {
          "internalType": "address",
          "name": "user",
          "type": "address"
        },
        {
          "internalType": "bool",
          "name": "completed",
          "type": "bool"
        }
      ],
      "name": "updateQuestStats",
      "outputs": [],
      "stateMutability": "nonpayable",
      "type": "function"
    },
    {
      "inputs": [
        {
          "internalType": "address",
          "name": "user",
          "type": "address"
        },
        {
          "internalType": "uint256",
          "name": "points",
          "type": "uint256"
        },
        {
          "internalType": "string",
          "name": "action",
          "type": "string"
        },
        {
          "internalType": "uint256",
          "name": "questId",
          "type": "uint256"
        }
      ],
      "name": "updateReputation",
      "outputs": [],
      "stateMutability": "nonpayable",
      "type": "function"
    },
    {
      "inputs": [
        {
          "internalType": "address",
          "name": "user",
          "type": "address"
        }
      ],
      "name": "verifyUser",
      "outputs": [],
      "stateMutability": "nonpayable",
      "type": "function"
    }
  ],
  "bytecode": "0x608060405234610106573360009081526000805160206139c1833981519152602052604090205460ff16156100c6575b3360009081526000805160206139a1833981519152602052604090205460ff1615610064575b604051613875908161010c8239f35b3360008181526000805160206139a183398151915260205260408120805460ff1916600117905581907fa49807205ce4d355092ef5a8a18f56e8913cf4a201fbe287825b095693c21775906000805160206139818339815191529080a4610055565b3360008181526000805160206139c183398151915260205260408120805460ff1916600117905581906000805160206139818339815191528180a461002f565b600080fdfe608080604052600436101561001357600080fd5b60003560e01c90816301ffc9a714612476575080630f53a470146122f05780631105a5eb146120cd5780631a47767b146120615780631af7bb4e14611fe85780631e32499014611eae578063248a9ca314611e8157806324d7897f14611afb5780632f2ff15d14611a3f57806336568abe146119ad5780633be9df801461178a5780633c4b1d401461171f57806348bb0fe4146115ba5780634d5e427714610e8d5780634d81312014610e1c5780635513802c14610c4c578063591033e514610c2b5780636042ab1c14610991578063659ed7291461096457806375b238fc146109295780637725a9fb146107fa57806391d14854146107ad5780639f2344cd14610770578063a217fddf14610754578063a787c80b1461070c578063ace417e01461069f578063baccbfdb14610638578063c1dd14aa1461050f578063d44f7b37146103f0578063d547741f146103a9578063de46218914610380578063de75aa6c14610358578063f09153c41461024e578063f2ccc543146102015763f69c6dec146101a057600080fd5b346101fc5760203660031901126101fc576004356001600160401b0381116101fc576101d2602091369060040161265a565b80604051928337600290820190815281900382019020546040516001600160a01b03909116158152f35b600080fd5b346101fc5760203660031901126101fc5761021a613321565b50600435600052600660205261024a6102366040600020613354565b6040519182916020835260208301906126b7565b0390f35b346101fc5760203660031901126101fc576001600160a01b0361026f6124c9565b166000526007602052604060002080549061028982612946565b9161029760405193846127c7565b80835260208301809260005260206000206000915b83831061031a5784866040519182916020830190602084525180915260408301919060005b8181106102df575050500390f35b8251805185526020818101516001600160a01b03168187015260409182015191860191909152869550606090940193909201916001016102d1565b6003602060019260405161032d816127ac565b85548152848060a01b03858701541683820152600286015460408201528152019201920191906102ac565b346101fc5760203660031901126101fc5761024a6103746133cc565b60405191829182612717565b346101fc5760003660031901126101fc5760206040516000805160206138208339815191528152f35b346101fc5760403660031901126101fc576103ee6004356103c86124df565b906103e96103e482600052600060205260016040600020015490565b613562565b6135a0565b005b346101fc5760203660031901126101fc576104096124c9565b6104116133e8565b60008051602061382083398151915260009081526020527f257455b38f1ec2a98f2bae14b737bac72b29034213935c22abb06ee3c42d35545461045390613562565b6001600160a01b03811660009081527f257455b38f1ec2a98f2bae14b737bac72b29034213935c22abb06ee3c42d3553602052604090205460ff161561049557005b6001600160a01b031660008181527f257455b38f1ec2a98f2bae14b737bac72b29034213935c22abb06ee3c42d355360205260408120805460ff19166001179055339190600080516020613820833981519152907f2f8788117e7eff1d82e926ec794901d17c78024a50270940304540a733656f0d9080a4005b346101fc5760803660031901126101fc576105286124c9565b604435906024356001600160401b0383116101fc577fc17e77081800e4bec45161da763d23d62f41146fb2629ee32a8fea0765743a1261056f6103ee94369060040161265a565b610577613501565b6001600160a01b0380861660009081526001602052604090205461059d91161515612844565b61060e60018060a01b0386169485600052600160205260056040600020016105c6828254612da6565b90558560005260056020526040600020604051916105e383612791565b8783526105f1368688612978565b602084015260643560408401526060830152426080830152612db3565b8360005260016020526106306005604060002001549160405193849384612eeb565b0390a2612fc1565b346101fc5760203660031901126101fc576106516124c9565b6001600160a01b0380821660009081526001602052604090205416156106955760018060a01b0316600052600160205260206005604060002001545b604051908152f35b506020600061068d565b346101fc5760203660031901126101fc576106b86124c9565b6001600160a01b03808216600090815260016020526040902054161515806106e8575b6020906040519015158152f35b5060018060a01b03166000526001602052602060ff600a60406000200154166106db565b346101fc5760203660031901126101fc57602061074a61072a6124c9565b6001600160a01b0390811660009081526001602052604090205416151590565b6040519015158152f35b346101fc5760003660031901126101fc57602060405160008152f35b346101fc5760203660031901126101fc576004356001600160401b0381116101fc576107a090369060040161265a565b505061024a6103746133cc565b346101fc5760403660031901126101fc576107c66124df565b600435600052600060205260406000209060018060a01b0316600052602052602060ff604060002054166040519015158152f35b346101fc5760003660031901126101fc5760095461081781612946565b9061082560405192836127c7565b808252601f1961083482612946565b0160005b81811061091257505060015b818111156108b457826040518091602082016020835281518091526040830190602060408260051b8601019301916000905b82821061088557505050500390f35b919360019193955060206108a48192603f198a820301865288516126b7565b9601920192018594939192610876565b8060005260066020526040600020906000198101918183116108fc576108f7926108e06108f192613354565b6108ea8288612f46565b5285612f46565b50612b30565b610844565b634e487b7160e01b600052601160045260246000fd5b60209061091d613321565b82828701015201610838565b346101fc5760003660031901126101fc5760206040517fa49807205ce4d355092ef5a8a18f56e8913cf4a201fbe287825b095693c217758152f35b346101fc5760403660031901126101fc576103ee6109806124c9565b6109886133e8565b6024359061318b565b346101fc5760203660031901126101fc576004356001600160401b0381116101fc576109c190369060040161265a565b336000908152600160205260409020549091906109e8906001600160a01b03161515612844565b33600052600360205260ff610a02604060002084846129af565b541615610bef57336000526003602052610a21604060002083836129af565b60ff198154169055336000526004602052604060002060005b815480821015610bbf57610a61610a68610a548486612b3f565b50604051928380926128c3565b03826127c7565b60208151910120610a7a368787612978565b6020815191012014610a8f5750600101610a3a565b91929160001981019081116108fc57610aab610ab39185612b3f565b509184612b3f565b919091610b9357610ac391612c35565b81548015610ba9576000190190610ada8284612b3f565b610b93577f4a3d363df3f10b01f6f00967d03f2d6d8c846a0772332b7392d6320a298059fd93610b4a9382610b12610b349454612889565b9081610b4f575b505081555b3360005260016020526004604060002001612d0c565b6040519182916020835233956020840191612d61565b0390a2005b81601f60009311600114610b675750555b8780610b19565b81835260208320610b8391601f0160051c810190600101612a0d565b8082528160208120915555610b60565b634e487b7160e01b600052600060045260246000fd5b634e487b7160e01b600052603160045260246000fd5b50507f4a3d363df3f10b01f6f00967d03f2d6d8c846a0772332b7392d6320a298059fd91610b34610b4a92610b1e565b60405162461bcd60e51b815260206004820152601460248201527314dada5b1b08191bd95cc81b9bdd08195e1a5cdd60621b6044820152606490fd5b346101fc5760203660031901126101fc576103ee610c476124c9565b612fc1565b346101fc5760203660031901126101fc576004356001600160401b0381116101fc57610c7c90369060040161265a565b610c846127e8565b508060405192833760029082019081528190036020019020546001600160a01b03168015610de25760005260016020526040600020604051610cc58161275a565b81546001600160a01b03168152604051610ce681610a6181600187016128c3565b6020820152604051610cff81610a6181600287016128c3565b6040820152604051610d1881610a6181600387016128c3565b6060820152600482018054610d2c81612946565b91610d3a60405193846127c7565b818352602083019060005260206000206000915b838310610dbd5761024a8660ff600a8a896080850152600581015460a0850152600681015460c0850152600781015460e0850152600881015461010085015260098101546101208501520154818116151561014084015260081c1615156101608201526040519182918261253d565b600160208192604051610dd481610a6181896128c3565b815201920192019190610d4e565b60405162461bcd60e51b8152602060048201526012602482015271155cd95c9b985b59481b9bdd08199bdd5b9960721b6044820152606490fd5b346101fc5760203660031901126101fc57610e356124c9565b610e3d6133e8565b6001600160a01b03808216600090815260016020526040902054610e6391161515612844565b6001600160a01b03166000908152600160208190526040909120600a01805460ff19169091179055005b346101fc5760803660031901126101fc576004356001600160401b0381116101fc57610ebd90369060040161265a565b906024356001600160401b0381116101fc57610edd90369060040161265a565b6044356001600160401b0381116101fc57610efc90369060040161265a565b90916064356001600160401b0381116101fc57610f1d903690600401612687565b3360009081526001602052604090205490959194906001600160a01b031661157c57871561153757610fbd90610f736040518a8a82376002818c019081528190036020019020546001600160a01b0316156129c8565b610f7e600854612b30565b600855610fae60405193610f918561275a565b338552610f9f368c8c612978565b95602086019687523691612978565b94604084019586523691612978565b60608201908152610fcd86612946565b610fda60405191826127c7565b868152602081018760051b87013681116101fc5787915b8183106114fb575050506080830190815260a083016000815260c084016000815260e0850191600083526101008601936000855261012087019542875261014088019960008b5261016089019960018b5233600052600160205260406000209960018060a01b039060018060a01b03905116166001600160601b0360a01b8b5416178a5560018a0190518051906001600160401b0382116113b0576110a08261109a8554612889565b85612a24565b602090601f8311600114611494576110d1929160009183611338575b50508160011b916000199060031b1c19161790565b90555b51805160028a01916001600160401b0382116113b0576110f88261109a8554612889565b602090601f831160011461142d576111289291600091836113385750508160011b916000199060031b1c19161790565b90555b51805160038901916001600160401b0382116113b05761114f8261109a8554612889565b602090601f83116001146113c65761117f9291600091836113385750508160011b916000199060031b1c19161790565b90555b60048701905160208151916111978385612b9d565b01916000526020600020916000905b8282106112ca5750505050916111f1959391600a95935160058601555160068501555160078401555160088301555160098201550192511515839060ff801983541691151516179055565b51815461ff00191690151560081b61ff0016179055604051848482376002858201908152819003602001902080546001600160a01b0319163317905560005b82811061127357847fbafddecbd1dec1c1afb76d693f1de16901f521bdf29a02438e3e6806c0b8d948610b4a866040519182916020835233956020840191612d61565b6001903360005260036020526112986040600020611292838787612f05565b906129af565b8260ff198254161790553360005260046020526112c460406000206112be838787612f05565b91612b6d565b01611230565b80518051906001600160401b0382116113b0576112f1826112eb8854612889565b88612a24565b602090601f83116001146113435792611329836001959460209487966000926113385750508160011b916000199060031b1c19161790565b87555b019401910190926111a6565b0151905038806110bc565b90601f1983169187600052816000209260005b818110611398575093602093600196938796938388951061137f575b505050811b01875561132c565b015160001960f88460031b161c19169055388080611372565b92936020600181928786015181550195019301611356565b634e487b7160e01b600052604160045260246000fd5b90601f1983169184600052816000209260005b81811061141557509084600195949392106113fc575b505050811b019055611182565b015160001960f88460031b161c191690553880806113ef565b929360206001819287860151815501950193016113d9565b90601f1983169184600052816000209260005b81811061147c5750908460019594939210611463575b505050811b01905561112b565b015160001960f88460031b161c19169055388080611456565b92936020600181928786015181550195019301611440565b90601f1983169184600052816000209260005b8181106114e357509084600195949392106114ca575b505050811b0190556110d4565b015160001960f88460031b161c191690553880806114bd565b929360206001819287860151815501950193016114a7565b82356001600160401b0381116101fc57890136601f820112156101fc5760209161152c839236908481359101612978565b815201920191610ff1565b60405162461bcd60e51b815260206004820152601860248201527f557365726e616d652063616e6e6f7420626520656d70747900000000000000006044820152606490fd5b60405162461bcd60e51b815260206004820152601660248201527550726f66696c6520616c72656164792065786973747360501b6044820152606490fd5b346101fc5760203660031901126101fc576001600160a01b036115db6124c9565b16600052600560205260406000208054906115f582612946565b9161160360405193846127c7565b80835260208301809260005260206000206000915b8383106116be57848660405191829160208301906020845251809152604083019060408160051b85010192916000905b82821061165757505050500390f35b919360019193955060208091603f19898203018552875190848060a01b0382511681526080806116948585015160a08786015260a0850190612518565b93604081015160408501526060810151606085015201519101529601920192018594939192611648565b600560206001926040516116d181612791565b848060a01b0386541681526040516116ef81610a6181898b016128c3565b83820152600286015460408201526003860154606082015260048601546080820152815201920192019190611618565b346101fc5760403660031901126101fc576117386124c9565b611740613501565b6001600160a01b038082166000908152600160205260409020541661176157005b60018060a01b0316600052600160205260066040600020016117866024358254612da6565b9055005b346101fc5760803660031901126101fc576004356001600160401b0381116101fc576117ba903690600401612687565b906024356001600160401b0381116101fc576117da903690600401612687565b6044939193356001600160401b0381116101fc576117fc90369060040161265a565b9260643594611809613501565b83820361196f5760005b82811061181c57005b8061183561072a6118306001948787612d82565b612d92565b611840575b01611813565b61184b81878b612d82565b35828060a01b03611860611830848888612d82565b166000528260205261187b6005604060002001918254612da6565b9055818060a01b03611891611830838787612d82565b1660005260056020526118f98960406000206118bc848a6118b6611830838c8c612d82565b94612d82565b35604051926118ca84612791565b868060a01b031683526118de368c8b612978565b60208401528b60408401526060830152426080830152612db3565b611907611830828686612d82565b828060a01b0361191b611830848888612d82565b16600052826020527fc17e77081800e4bec45161da763d23d62f41146fb2629ee32a8fea0765743a1286600560406000200154926119678b604051938493898060a01b03169684612eeb565b0390a261183a565b60405162461bcd60e51b8152602060048201526016602482015275082e4e4c2f2e640d8cadccee8d040dad2e6dac2e8c6d60531b6044820152606490fd5b346101fc5760403660031901126101fc576119c66124df565b336001600160a01b038216036119e2576103ee906004356135a0565b60405162461bcd60e51b815260206004820152602f60248201527f416363657373436f6e74726f6c3a2063616e206f6e6c792072656e6f756e636560448201526e103937b632b9903337b91039b2b63360891b6064820152608490fd5b346101fc5760403660031901126101fc57600435611a5b6124df565b90611a776103e482600052600060205260016040600020015490565b6000818152602081815260408083206001600160a01b038616845290915290205460ff1615611aa257005b6000818152602081815260408083206001600160a01b0395909516808452949091528120805460ff19166001179055339291907f2f8788117e7eff1d82e926ec794901d17c78024a50270940304540a733656f0d9080a4005b346101fc5760803660031901126101fc576004356001600160401b0381116101fc57611b2b90369060040161265a565b906024356001600160401b0381116101fc57611b4b90369060040161265a565b6044939193356001600160401b0381116101fc57611bb894611b74611bc792369060040161265a565b969091611b7f6133e8565b611ba9611b8d600954612b30565b978860095560405197611b9f89612776565b8989523691612978565b94602087019586523691612978565b95604085019687523691612978565b93606083019485526080830190606435825260a0840192600184528560005260066020526040600020945185556001850190518051906001600160401b0382116113b057611c198261109a8554612889565b602090601f8311600114611e1a57611c49929160009183611e0f5750508160011b916000199060031b1c19161790565b90555b51805160028501916001600160401b0382116113b057611c708261109a8554612889565b602090601f8311600114611da857611ca0929160009183611d9d5750508160011b916000199060031b1c19161790565b90555b6003830194519485516001600160401b0381116113b057602096611ccb8261109a8554612889565b8790601f8311600114611d2e57826005959361068d98979593611d0493600092611d235750508160011b916000199060031b1c19161790565b90555b51600484015551151591019060ff801983541691151516179055565b015190508b806110bc565b90601f1983169184600052816000209260005b818110611d8657509260019285926005989661068d9b9a989610611d6d575b505050811b019055611d07565b015160001960f88460031b161c191690558a8080611d60565b92938b600181928786015181550195019301611d41565b0151905089806110bc565b90601f1983169184600052816000209260005b818110611df75750908460019594939210611dde575b505050811b019055611ca3565b015160001960f88460031b161c19169055888080611dd1565b92936020600181928786015181550195019301611dbb565b015190508a806110bc565b90601f1983169184600052816000209260005b818110611e695750908460019594939210611e50575b505050811b019055611c4c565b015160001960f88460031b161c19169055898080611e43565b92936020600181928786015181550195019301611e2d565b346101fc5760203660031901126101fc57602061068d600435600052600060205260016040600020015490565b346101fc5760203660031901126101fc576004356001600160401b0381116101fc57611ede90369060040161265a565b33600090815260016020526040902054909190611f05906001600160a01b03161515612844565b33600052600360205260ff611f1f604060002084846129af565b5416611fac57610b4a7fab78ff226cb8081ab9364accb24f8fea17beb18e98b6a9f2f117bd632f22752391336000526003602052611f62604060002085836129af565b600160ff19825416179055336000526004602052611f8584826040600020612b6d565b336000526004602052610b3460406000203360005260016020526004604060002001612d0c565b60405162461bcd60e51b8152602060048201526014602482015273536b696c6c20616c72656164792065786973747360601b6044820152606490fd5b346101fc5760403660031901126101fc576120016124c9565b60243580151581036101fc57612015613501565b6001600160a01b038083166000908152600160205260409020541661203657005b61203c57005b6001600160a01b03166000908152600160205260409020600701805461178690612b30565b346101fc5760203660031901126101fc5761207a6124c9565b6120826133e8565b6001600160a01b038082166000908152600160205260409020546120a891161515612844565b6001600160a01b03166000908152600160205260409020600a01805461ff0019169055005b346101fc5760603660031901126101fc576004356001600160401b0381116101fc576120fd90369060040161265a565b6024356001600160401b0381116101fc5761211c90369060040161265a565b916044356001600160401b0381116101fc5761213c90369060040161265a565b336000908152600160205260409020549094919390612165906001600160a01b03161515612844565b33600052600160205260406000209261217f368289612978565b6020815191012096600185019760405161219d81610a61818d6128c3565b60208151910120036121ee575b6121c687876003886121c0898960028401612a6b565b01612a6b565b337fbe4ec58a792f909e102ee3d745d0c3b34a4d437a54d903c4db098d31c556422f600080a2005b6122186040518383823760028185019081528190036020019020546001600160a01b0316156129c8565b604051976000815461222981612889565b90600181169081156122d957506001146122a3575b50926121c09492612299928b60206121c69d88600260039d9c9a52030190206001600160601b0360a01b8154169055604051838382376002848201908152819003602001902080546001600160a01b03191633179055612a6b565b91819394506121aa565b90508160005260206000206000905b8282106122c557505089016121c061223e565b8054828d01526020909101906001016122b2565b60ff19168c5250801515028a0190506121c061223e565b346101fc5760203660031901126101fc576123096124c9565b6123116127e8565b506001600160a01b0380821660009081526001602052604090205461233891161515612844565b60018060a01b0316600052600160205260406000206040516123598161275a565b81546001600160a01b0316815260405161237a81610a6181600187016128c3565b602082015260405161239381610a6181600287016128c3565b60408201526040516123ac81610a6181600387016128c3565b60608201526004820180546123c081612946565b916123ce60405193846127c7565b818352602083019060005260206000206000915b8383106124515761024a8660ff600a8a896080850152600581015460a0850152600681015460c0850152600781015460e0850152600881015461010085015260098101546101208501520154818116151561014084015260081c1615156101608201526040519182918261253d565b60016020819260405161246881610a6181896128c3565b8152019201920191906123e2565b346101fc5760203660031901126101fc576004359063ffffffff60e01b82168092036101fc57602091637965db0b60e01b81149081156124b8575b5015158152f35b6301ffc9a760e01b149050836124b1565b600435906001600160a01b03821682036101fc57565b602435906001600160a01b03821682036101fc57565b60005b8381106125085750506000910152565b81810151838201526020016124f8565b90602091612531815180928185528580860191016124f5565b601f01601f1916010190565b602080825282516001600160a01b031682820152820151610180604083015261259f9061258990612573906101a0850190612518565b6040850151848203601f19016060860152612518565b6060840151838203601f19016080850152612518565b91608081015192601f198382030160a0840152835180825260208201916020808360051b8301019601926000915b83831061262d5750505050506101608160a061018093015160c085015260c081015160e085015260e08101516101008501526101008101516101208501526101208101516101408501526101408101511515828501520151151591015290565b909192939660208061264b600193601f198682030187528b51612518565b990193019301919392906125cd565b9181601f840112156101fc578235916001600160401b0383116101fc57602083818601950101116101fc57565b9181601f840112156101fc578235916001600160401b0383116101fc576020808501948460051b0101116101fc57565b908151815260a0806127026126f06126de602087015160c0602088015260c0870190612518565b60408701518682036040880152612518565b60608601518582036060870152612518565b93608081015160808501520151151591015290565b602060408183019282815284518094520192019060005b81811061273b5750505090565b82516001600160a01b031684526020938401939092019160010161272e565b61018081019081106001600160401b038211176113b057604052565b60c081019081106001600160401b038211176113b057604052565b60a081019081106001600160401b038211176113b057604052565b606081019081106001600160401b038211176113b057604052565b90601f801991011681019081106001600160401b038211176113b057604052565b604051906127f58261275a565b6000610160838281526060602082015260606040820152606080820152606060808201528260a08201528260c08201528260e08201528261010082015282610120820152826101408201520152565b1561284b57565b60405162461bcd60e51b8152602060048201526016602482015275141c9bd99a5b1948191bd95cc81b9bdd08195e1a5cdd60521b6044820152606490fd5b90600182811c921680156128b9575b60208310146128a357565b634e487b7160e01b600052602260045260246000fd5b91607f1691612898565b600092918154916128d383612889565b808352926001811690811561292957506001146128ef57505050565b60009081526020812093945091925b83831061290f575060209250010190565b6001816020929493945483858701015201910191906128fe565b915050602093945060ff929192191683830152151560051b010190565b6001600160401b0381116113b05760051b60200190565b6001600160401b0381116113b057601f01601f191660200190565b9291926129848261295d565b9161299260405193846127c7565b8294818452818301116101fc578281602093846000960137010152565b6020919283604051948593843782019081520301902090565b156129cf57565b60405162461bcd60e51b81526020600482015260166024820152752ab9b2b93730b6b29030b63932b0b23c903a30b5b2b760511b6044820152606490fd5b818110612a18575050565b60008155600101612a0d565b9190601f8111612a3357505050565b612a5f926000526020600020906020601f840160051c83019310612a61575b601f0160051c0190612a0d565b565b9091508190612a52565b9092916001600160401b0381116113b057612a9081612a8a8454612889565b84612a24565b6000601f8211600114612ad0578190612ac1939495600092612ac55750508160011b916000199060031b1c19161790565b9055565b0135905038806110bc565b601f198216948382526020822091805b878110612b18575083600195969710612afe575b505050811b019055565b0135600019600384901b60f8161c19169055388080612af4565b90926020600181928686013581550194019101612ae0565b60001981146108fc5760010190565b8054821015612b575760005260206000200190600090565b634e487b7160e01b600052603260045260246000fd5b9190918054600160401b8110156113b057612b8d91600182018155612b3f565b929092610b9357612a5f92612a6b565b90600160401b81116113b057815491818155828210612bbb57505050565b600052602060002091820191015b818110612bd4575050565b600190612be18154612889565b80612bee575b5001612bc9565b601f81118314612c045750600081555b38612be7565b612c22908260005283601f6020600020920160051c82019101612a0d565b8060005260006020812081835555612bfe565b919091828114612d0757612c498354612889565b6001600160401b0381116113b057612c6581612a8a8454612889565b600093601f8211600114612ca257612ac19293948291600092612c975750508160011b916000199060031b1c19161790565b0154905038806110bc565b845260208085208386529085209094601f198316815b818110612cef57509583600195969710612cd657505050811b019055565b015460001960f88460031b161c19169055388080612af4565b9192600180602092868b015481550194019201612cb8565b509050565b818114612d5d57815491612d208383612b9d565b60005260206000209060005260206000206000915b838310612d425750505050565b60018082612d51829486612c35565b01920192019190612d35565b5050565b908060209392818452848401376000828201840152601f01601f1916010190565b9190811015612b575760051b0190565b356001600160a01b03811681036101fc5790565b919082018092116108fc57565b805490600160401b8210156113b05760018201808255821015612b5757600052600560206000209102019060018060a01b0360018060a01b03825116166001600160601b0360a01b8354161782556001820160208201518051906001600160401b0382116113b057612e298261109a8554612889565b602090601f8311600114612e7e57826004959360809593612e60936000926113385750508160011b916000199060031b1c19161790565b90555b60408101516002850155606081015160038501550151910155565b90601f1983169184600052816000209260005b818110612ed35750926001928592600498966080989610612eba575b505050811b019055612e63565b015160001960f88460031b161c19169055388080612ead565b92936020600181928786015181550195019301612e91565b604090612f02949281528160208201520191612d61565b90565b9190811015612b575760051b81013590601e19813603018212156101fc5701908135916001600160401b0383116101fc5760200182360381136101fc579190565b8051821015612b575760209160051b010190565b805490600160401b8210156113b05760018201808255821015612b575760029160409160005260036020600020910201928051845560018060a01b03602082015116600185019060018060a01b03166001600160601b0360a01b8254161790550151910155565b6001600160a01b0380821660009081526001602052604090205416156131885760018060a01b03169081600052600160205260056040600020015460015b60095481116131825780600052600660205260ff6005604060002001541680613167575b613036575b61303190612b30565b612fff565b916000939182855260076020526040852091825461305381612946565b9361306160405195866127c7565b8185528752602080882090889086015b8382106131295750505050855b835181101561311a57856130928286612f46565b5151146130a15760010161307e565b509390929450613031915060015b156130bc575b9050613028565b8460005260076020526130ee6040600020604051906130da826127ac565b838252876020830152426040830152612f5a565b80857f227c97f225356ea6e988e493fcabed63e0f79ce833cc3cb721e927daf7b765e5600080a36130b5565b509390929461303192506130af565b6003602060019260405161313c816127ac565b86548152848060a01b0385880154168382015260028701546040820152815201930191019091613071565b50806000526006602052600460406000200154821015613023565b50509050565b50565b6001600160a01b038082166000908152600160205260409020546131b191161515612844565b81600052600660205260ff60056040600020015416156132e3576001600160a01b0316600081815260076020526040902080549192916131f081612946565b916131fe60405193846127c7565b818352602083019060005260206000206000915b8383106132a5575050505060005b815181101561324957826132348284612f46565b51511461324357600101613220565b50505050565b50509080600052600760205261327e60406000206040519061326a826127ac565b848252836020830152426040830152612f5a565b7f227c97f225356ea6e988e493fcabed63e0f79ce833cc3cb721e927daf7b765e5600080a3565b600360206001926040516132b8816127ac565b85548152848060a01b0385870154168382015260028601546040820152815201920192019190613212565b60405162461bcd60e51b8152602060048201526016602482015275416368696576656d656e74206e6f742061637469766560501b6044820152606490fd5b6040519061332e82612776565b600060a08382815260606020820152606060408201526060808201528260808201520152565b9060405161336181612776565b60a060ff600583958054855260405161338181610a6181600186016128c3565b602086015260405161339a81610a6181600286016128c3565b60408601526040516133b381610a6181600386016128c3565b6060860152600481015460808601520154161515910152565b604051906133db6020836127c7565b6000808352366020840137565b3360009081527f7d7ffb7a348e1c6a02869081a26547b49160dd3df72d1d75a570eb9b698292ec602052604090205460ff161561342157565b6134fd61342d33613633565b6134dd601161345b7fa49807205ce4d355092ef5a8a18f56e8913cf4a201fbe287825b095693c21775613773565b9260376040519485927f416363657373436f6e74726f6c3a206163636f756e7420000000000000000000602085015261349d81518092602086880191016124f5565b83017001034b99036b4b9b9b4b733903937b6329607d1b838201526134cc8251809360206048850191016124f5565b01010301601f1981018352826127c7565b60405162461bcd60e51b8152602060048201529182916024830190612518565b0390fd5b3360009081527f257455b38f1ec2a98f2bae14b737bac72b29034213935c22abb06ee3c42d3553602052604090205460ff161561353a57565b6134fd61354633613633565b6134dd601161345b600080516020613820833981519152613773565b60008181526020818152604080832033845290915290205460ff16156135855750565b6134fd906134dd601161345b61359a33613633565b93613773565b6000818152602081815260408083206001600160a01b038616845290915290205460ff166135cc575050565b6000818152602081815260408083206001600160a01b0395909516808452949091528120805460ff19169055339291907ff6391f5c32d9c69d2a47ea670b442974b53935d1edc7fd64eb21e047a839171b9080a4565b908151811015612b57570160200190565b600090613640602a61295d565b9161364e60405193846127c7565b602a835261365c602a61295d565b6020840190601f190136823783511561375f576030905382516001101561374b576078602184015350602960005b600182116136df57505061369b5790565b606460405162461bcd60e51b815260206004820152602060248201527f537472696e67733a20686578206c656e67746820696e73756666696369656e746044820152fd5b9091600f81166010811015613737576f181899199a1a9b1b9c1cb0b131b232b360811b901a61370e8486613622565b5360041c91801561372357600019019061368a565b634e487b7160e01b82526011600452602482fd5b634e487b7160e01b83526032600452602483fd5b634e487b7160e01b81526032600452602490fd5b634e487b7160e01b82526032600452602482fd5b600090613780604261295d565b9161378e60405193846127c7565b6042835261379c604261295d565b6020840190601f190136823783511561375f576030905382516001101561374b576078602184015350604160005b600182116137db57505061369b5790565b9091600f81166010811015613737576f181899199a1a9b1b9c1cb0b131b232b360811b901a61380a8486613622565b5360041c9180156137235760001901906137ca56fe565761453a53b464c4f4c24643fe6e1f4b3b449a9d33d0cc641976b8ab74093ea2646970667358221220f61a738657ccfe8121329d313f16a6d8e93c6dfdb2361c96b22415e6a16a7a0d64736f6c634300081c00332f8788117e7eff1d82e926ec794901d17c78024a50270940304540a733656f0d7d7ffb7a348e1c6a02869081a26547b49160dd3df72d1d75a570eb9b698292ecad3228b676f7d3cd4284a5443f17f1962b36e491b30a40b2405849e597ba5fb5",
  "linkReferences": {},
  "deployedLinkReferences": {}
}